{
  "contractName": "CrowdFunding",
  "abi": [
    {
      "inputs": [
        {
          "internalType": "address",
          "name": "_token",
          "type": "address"
        }
      ],
      "stateMutability": "nonpayable",
      "type": "constructor"
    },
    {
      "anonymous": false,
      "inputs": [
        {
          "indexed": false,
          "internalType": "uint256",
          "name": "id",
          "type": "uint256"
        }
      ],
      "name": "Cancel",
      "type": "event"
    },
    {
      "anonymous": false,
      "inputs": [
        {
          "indexed": false,
          "internalType": "uint256",
          "name": "id",
          "type": "uint256"
        }
      ],
      "name": "Claim",
      "type": "event"
    },
    {
      "anonymous": false,
      "inputs": [
        {
          "indexed": false,
          "internalType": "uint256",
          "name": "id",
          "type": "uint256"
        },
        {
          "indexed": true,
          "internalType": "address",
          "name": "beneficiary",
          "type": "address"
        },
        {
          "indexed": false,
          "internalType": "uint256",
          "name": "goal",
          "type": "uint256"
        },
        {
          "indexed": false,
          "internalType": "uint32",
          "name": "startAt",
          "type": "uint32"
        },
        {
          "indexed": false,
          "internalType": "uint32",
          "name": "endAt",
          "type": "uint32"
        }
      ],
      "name": "Launch",
      "type": "event"
    },
    {
      "anonymous": false,
      "inputs": [
        {
          "indexed": true,
          "internalType": "uint256",
          "name": "id",
          "type": "uint256"
        },
        {
          "indexed": true,
          "internalType": "address",
          "name": "caller",
          "type": "address"
        },
        {
          "indexed": false,
          "internalType": "uint256",
          "name": "amount",
          "type": "uint256"
        }
      ],
      "name": "Pledge",
      "type": "event"
    },
    {
      "anonymous": false,
      "inputs": [
        {
          "indexed": false,
          "internalType": "uint256",
          "name": "id",
          "type": "uint256"
        },
        {
          "indexed": true,
          "internalType": "address",
          "name": "caller",
          "type": "address"
        },
        {
          "indexed": false,
          "internalType": "uint256",
          "name": "amount",
          "type": "uint256"
        }
      ],
      "name": "Refund",
      "type": "event"
    },
    {
      "anonymous": false,
      "inputs": [
        {
          "indexed": true,
          "internalType": "uint256",
          "name": "id",
          "type": "uint256"
        },
        {
          "indexed": true,
          "internalType": "address",
          "name": "caller",
          "type": "address"
        },
        {
          "indexed": false,
          "internalType": "uint256",
          "name": "amount",
          "type": "uint256"
        }
      ],
      "name": "Unpledge",
      "type": "event"
    },
    {
      "inputs": [
        {
          "internalType": "uint256",
          "name": "",
          "type": "uint256"
        }
      ],
      "name": "campaigns",
      "outputs": [
        {
          "internalType": "address",
          "name": "beneficiary",
          "type": "address"
        },
        {
          "internalType": "uint256",
          "name": "goal",
          "type": "uint256"
        },
        {
          "internalType": "uint256",
          "name": "pledged",
          "type": "uint256"
        },
        {
          "internalType": "uint32",
          "name": "startAt",
          "type": "uint32"
        },
        {
          "internalType": "uint32",
          "name": "endAt",
          "type": "uint32"
        },
        {
          "internalType": "bool",
          "name": "claimed",
          "type": "bool"
        }
      ],
      "stateMutability": "view",
      "type": "function"
    },
    {
      "inputs": [],
      "name": "campaignsCount",
      "outputs": [
        {
          "internalType": "uint256",
          "name": "",
          "type": "uint256"
        }
      ],
      "stateMutability": "view",
      "type": "function"
    },
    {
      "inputs": [
        {
          "internalType": "uint256",
          "name": "",
          "type": "uint256"
        },
        {
          "internalType": "address",
          "name": "",
          "type": "address"
        }
      ],
      "name": "pledgedAmount",
      "outputs": [
        {
          "internalType": "uint256",
          "name": "",
          "type": "uint256"
        }
      ],
      "stateMutability": "view",
      "type": "function"
    },
    {
      "inputs": [],
      "name": "token",
      "outputs": [
        {
          "internalType": "contract IERC20",
          "name": "",
          "type": "address"
        }
      ],
      "stateMutability": "view",
      "type": "function"
    },
    {
      "inputs": [
        {
          "internalType": "uint256",
          "name": "_goal",
          "type": "uint256"
        },
        {
          "internalType": "uint32",
          "name": "_startAt",
          "type": "uint32"
        },
        {
          "internalType": "uint32",
          "name": "_endAt",
          "type": "uint32"
        }
      ],
      "name": "launch",
      "outputs": [],
      "stateMutability": "nonpayable",
      "type": "function"
    },
    {
      "inputs": [
        {
          "internalType": "uint256",
          "name": "_id",
          "type": "uint256"
        }
      ],
      "name": "cancel",
      "outputs": [],
      "stateMutability": "nonpayable",
      "type": "function"
    },
    {
      "inputs": [
        {
          "internalType": "uint256",
          "name": "_id",
          "type": "uint256"
        },
        {
          "internalType": "uint256",
          "name": "_amount",
          "type": "uint256"
        }
      ],
      "name": "pledge",
      "outputs": [],
      "stateMutability": "nonpayable",
      "type": "function"
    },
    {
      "inputs": [
        {
          "internalType": "uint256",
          "name": "_id",
          "type": "uint256"
        },
        {
          "internalType": "uint256",
          "name": "_amount",
          "type": "uint256"
        }
      ],
      "name": "unpledge",
      "outputs": [],
      "stateMutability": "nonpayable",
      "type": "function"
    },
    {
      "inputs": [
        {
          "internalType": "uint256",
          "name": "_id",
          "type": "uint256"
        }
      ],
      "name": "claim",
      "outputs": [],
      "stateMutability": "nonpayable",
      "type": "function"
    },
    {
      "inputs": [
        {
          "internalType": "uint256",
          "name": "_id",
          "type": "uint256"
        }
      ],
      "name": "refund",
      "outputs": [],
      "stateMutability": "nonpayable",
      "type": "function"
    },
    {
      "inputs": [
        {
          "internalType": "uint256",
          "name": "campaignID",
          "type": "uint256"
        }
      ],
      "name": "contribute",
      "outputs": [],
      "stateMutability": "nonpayable",
      "type": "function"
    }
  ],
  "bytecode": "0x60a06040523480156200001157600080fd5b5060405162001d1b38038062001d1b8339818101604052810190620000379190620000dc565b8073ffffffffffffffffffffffffffffffffffffffff1660808173ffffffffffffffffffffffffffffffffffffffff1681525050506200010e565b600080fd5b600073ffffffffffffffffffffffffffffffffffffffff82169050919050565b6000620000a48262000077565b9050919050565b620000b68162000097565b8114620000c257600080fd5b50565b600081519050620000d681620000ab565b92915050565b600060208284031215620000f557620000f462000072565b5b60006200010584828501620000c5565b91505092915050565b608051611bd562000146600039600081816104d201528181610a1b01528181610e9401528181610faf01526111260152611bd56000f3fe608060405234801561001057600080fd5b50600436106100a95760003560e01c806344c89b651161007157806344c89b6514610153578063711853ab14610171578063aa4fb63a1461018d578063c1cbbca7146101bd578063fc0c546a146101d9578063fde327be146101f7576100a9565b8063141961bc146100ae578063278ecde1146100e35780632c63f146146100ff578063379607f51461011b57806340e58ee514610137575b600080fd5b6100c860048036038101906100c39190611254565b610213565b6040516100da9695949392919061130b565b60405180910390f35b6100fd60048036038101906100f89190611254565b61029c565b005b61011960048036038101906101149190611398565b6105c4565b005b61013560048036038101906101309190611254565b61085a565b005b610151600480360381019061014c9190611254565b610b1b565b005b61015b610d96565b60405161016891906113eb565b60405180910390f35b61018b60048036038101906101869190611406565b610d9c565b005b6101a760048036038101906101a29190611472565b610f85565b6040516101b491906113eb565b60405180910390f35b6101d760048036038101906101d29190611254565b610faa565b005b6101e1610fad565b6040516101ee9190611511565b60405180910390f35b610211600480360381019061020c9190611406565b610fd1565b005b60016020528060005260406000206000915090508060000160009054906101000a900473ffffffffffffffffffffffffffffffffffffffff16908060010154908060020154908060030160009054906101000a900463ffffffff16908060030160049054906101000a900463ffffffff16908060030160089054906101000a900460ff16905086565b6000600160008381526020019081526020016000206040518060c00160405290816000820160009054906101000a900473ffffffffffffffffffffffffffffffffffffffff1673ffffffffffffffffffffffffffffffffffffffff1673ffffffffffffffffffffffffffffffffffffffff16815260200160018201548152602001600282015481526020016003820160009054906101000a900463ffffffff1663ffffffff1663ffffffff1681526020016003820160049054906101000a900463ffffffff1663ffffffff1663ffffffff1681526020016003820160089054906101000a900460ff1615151515815250509050806080015163ffffffff1642116103db576040517f08c379a00000000000000000000000000000000000000000000000000000000081526004016103d290611589565b60405180910390fd5b8060200151816040015110610425576040517f08c379a000000000000000000000000000000000000000000000000000000000815260040161041c906115f5565b60405180910390fd5b60006002600084815260200190815260200160002060003373ffffffffffffffffffffffffffffffffffffffff1673ffffffffffffffffffffffffffffffffffffffff16815260200190815260200160002054905060006002600085815260200190815260200160002060003373ffffffffffffffffffffffffffffffffffffffff1673ffffffffffffffffffffffffffffffffffffffff168152602001908152602001600020819055507f000000000000000000000000000000000000000000000000000000000000000073ffffffffffffffffffffffffffffffffffffffff1663a9059cbb33836040518363ffffffff1660e01b815260040161052b929190611615565b6020604051808303816000875af115801561054a573d6000803e3d6000fd5b505050506040513d601f19601f8201168201806040525081019061056e919061166a565b503373ffffffffffffffffffffffffffffffffffffffff167f21e12a7cad0da5928167e1084ea4d5fdf8d9af66657a2543a9ac76a0ca08147784836040516105b7929190611697565b60405180910390a2505050565b428263ffffffff16101561060d576040517f08c379a00000000000000000000000000000000000000000000000000000000081526004016106049061170c565b60405180910390fd5b8163ffffffff168163ffffffff16101561065c576040517f08c379a000000000000000000000000000000000000000000000000000000000815260040161065390611778565b60405180910390fd5b6276a7004261066b91906117c7565b8163ffffffff1611156106b3576040517f08c379a00000000000000000000000000000000000000000000000000000000081526004016106aa90611847565b60405180910390fd5b60016000808282546106c591906117c7565b925050819055506040518060c001604052803373ffffffffffffffffffffffffffffffffffffffff168152602001848152602001600081526020018363ffffffff1681526020018263ffffffff16815260200160001515815250600160008054815260200190815260200160002060008201518160000160006101000a81548173ffffffffffffffffffffffffffffffffffffffff021916908373ffffffffffffffffffffffffffffffffffffffff160217905550602082015181600101556040820151816002015560608201518160030160006101000a81548163ffffffff021916908363ffffffff16021790555060808201518160030160046101000a81548163ffffffff021916908363ffffffff16021790555060a08201518160030160086101000a81548160ff0219169083151502179055509050503373ffffffffffffffffffffffffffffffffffffffff167f0601cd0d650b473037e838a2696d41e654433d065b3f56b28d1d3302e44a304f60005485858560405161084d9493929190611867565b60405180910390a2505050565b60006001600083815260200190815260200160002090503373ffffffffffffffffffffffffffffffffffffffff168160000160009054906101000a900473ffffffffffffffffffffffffffffffffffffffff1673ffffffffffffffffffffffffffffffffffffffff1614610903576040517f08c379a00000000000000000000000000000000000000000000000000000000081526004016108fa906118f8565b60405180910390fd5b8060030160049054906101000a900463ffffffff1663ffffffff16421161095f576040517f08c379a000000000000000000000000000000000000000000000000000000000815260040161095690611589565b60405180910390fd5b8060010154816002015410156109aa576040517f08c379a00000000000000000000000000000000000000000000000000000000081526004016109a190611964565b60405180910390fd5b8060030160089054906101000a900460ff16156109fc576040517f08c379a00000000000000000000000000000000000000000000000000000000081526004016109f3906119d0565b60405180910390fd5b60018160030160086101000a81548160ff0219169083151502179055507f000000000000000000000000000000000000000000000000000000000000000073ffffffffffffffffffffffffffffffffffffffff1663a9059cbb8260000160009054906101000a900473ffffffffffffffffffffffffffffffffffffffff1683600201546040518363ffffffff1660e01b8152600401610a9c929190611615565b6020604051808303816000875af1158015610abb573d6000803e3d6000fd5b505050506040513d601f19601f82011682018060405250810190610adf919061166a565b507f7bb2b3c10797baccb6f8c4791f1edd6ca2f0d028ee0eda64b01a9a57e3a653f782604051610b0f91906113eb565b60405180910390a15050565b6000600160008381526020019081526020016000206040518060c00160405290816000820160009054906101000a900473ffffffffffffffffffffffffffffffffffffffff1673ffffffffffffffffffffffffffffffffffffffff1673ffffffffffffffffffffffffffffffffffffffff16815260200160018201548152602001600282015481526020016003820160009054906101000a900463ffffffff1663ffffffff1663ffffffff1681526020016003820160049054906101000a900463ffffffff1663ffffffff1663ffffffff1681526020016003820160089054906101000a900460ff16151515158152505090503373ffffffffffffffffffffffffffffffffffffffff16816000015173ffffffffffffffffffffffffffffffffffffffff1614610c80576040517f08c379a0000000000000000000000000000000000000000000000000000000008152600401610c77906118f8565b60405180910390fd5b806060015163ffffffff164210610ccc576040517f08c379a0000000000000000000000000000000000000000000000000000000008152600401610cc390611a3c565b60405180910390fd5b60016000838152602001908152602001600020600080820160006101000a81549073ffffffffffffffffffffffffffffffffffffffff0219169055600182016000905560028201600090556003820160006101000a81549063ffffffff02191690556003820160046101000a81549063ffffffff02191690556003820160086101000a81549060ff021916905550507f8bf30e7ff26833413be5f69e1d373744864d600b664204b4a2f9844a8eedb9ed82604051610d8a91906113eb565b60405180910390a15050565b60005481565b60006001600084815260200190815260200160002090508060030160049054906101000a900463ffffffff1663ffffffff16421115610e10576040517f08c379a0000000000000000000000000000000000000000000000000000000008152600401610e0790611aa8565b60405180910390fd5b81816002016000828254610e249190611ac8565b92505081905550816002600085815260200190815260200160002060003373ffffffffffffffffffffffffffffffffffffffff1673ffffffffffffffffffffffffffffffffffffffff1681526020019081526020016000206000828254610e8b9190611ac8565b925050819055507f000000000000000000000000000000000000000000000000000000000000000073ffffffffffffffffffffffffffffffffffffffff1663a9059cbb33846040518363ffffffff1660e01b8152600401610eed929190611615565b6020604051808303816000875af1158015610f0c573d6000803e3d6000fd5b505050506040513d601f19601f82011682018060405250810190610f30919061166a565b503373ffffffffffffffffffffffffffffffffffffffff16837f2eeeab891b26a214d1b25749f88a406bdea852bd8c9bfda977e0ef8114c180ba84604051610f7891906113eb565b60405180910390a3505050565b6002602052816000526040600020602052806000526040600020600091509150505481565b50565b7f000000000000000000000000000000000000000000000000000000000000000081565b60006001600084815260200190815260200160002090508060030160009054906101000a900463ffffffff1663ffffffff16421015611045576040517f08c379a000000000000000000000000000000000000000000000000000000000815260040161103c90611b48565b60405180910390fd5b8060030160049054906101000a900463ffffffff1663ffffffff164211156110a2576040517f08c379a000000000000000000000000000000000000000000000000000000000815260040161109990611aa8565b60405180910390fd5b818160020160008282546110b691906117c7565b92505081905550816002600085815260200190815260200160002060003373ffffffffffffffffffffffffffffffffffffffff1673ffffffffffffffffffffffffffffffffffffffff168152602001908152602001600020600082825461111d91906117c7565b925050819055507f000000000000000000000000000000000000000000000000000000000000000073ffffffffffffffffffffffffffffffffffffffff166323b872dd3330856040518463ffffffff1660e01b815260040161118193929190611b68565b6020604051808303816000875af11580156111a0573d6000803e3d6000fd5b505050506040513d601f19601f820116820180604052508101906111c4919061166a565b503373ffffffffffffffffffffffffffffffffffffffff16837f06bdb975df800a73232998e71ed585d536222f1dfeaa622d7f62a23ada686c828460405161120c91906113eb565b60405180910390a3505050565b600080fd5b6000819050919050565b6112318161121e565b811461123c57600080fd5b50565b60008135905061124e81611228565b92915050565b60006020828403121561126a57611269611219565b5b60006112788482850161123f565b91505092915050565b600073ffffffffffffffffffffffffffffffffffffffff82169050919050565b60006112ac82611281565b9050919050565b6112bc816112a1565b82525050565b6112cb8161121e565b82525050565b600063ffffffff82169050919050565b6112ea816112d1565b82525050565b60008115159050919050565b611305816112f0565b82525050565b600060c08201905061132060008301896112b3565b61132d60208301886112c2565b61133a60408301876112c2565b61134760608301866112e1565b61135460808301856112e1565b61136160a08301846112fc565b979650505050505050565b611375816112d1565b811461138057600080fd5b50565b6000813590506113928161136c565b92915050565b6000806000606084860312156113b1576113b0611219565b5b60006113bf8682870161123f565b93505060206113d086828701611383565b92505060406113e186828701611383565b9150509250925092565b600060208201905061140060008301846112c2565b92915050565b6000806040838503121561141d5761141c611219565b5b600061142b8582860161123f565b925050602061143c8582860161123f565b9150509250929050565b61144f816112a1565b811461145a57600080fd5b50565b60008135905061146c81611446565b92915050565b6000806040838503121561148957611488611219565b5b60006114978582860161123f565b92505060206114a88582860161145d565b9150509250929050565b6000819050919050565b60006114d76114d26114cd84611281565b6114b2565b611281565b9050919050565b60006114e9826114bc565b9050919050565b60006114fb826114de565b9050919050565b61150b816114f0565b82525050565b60006020820190506115266000830184611502565b92915050565b600082825260208201905092915050565b7f6e6f7420656e6465640000000000000000000000000000000000000000000000600082015250565b600061157360098361152c565b915061157e8261153d565b602082019050919050565b600060208201905081810360008301526115a281611566565b9050919050565b7f706c6564676564203e3d20676f616c0000000000000000000000000000000000600082015250565b60006115df600f8361152c565b91506115ea826115a9565b602082019050919050565b6000602082019050818103600083015261160e816115d2565b9050919050565b600060408201905061162a60008301856112b3565b61163760208301846112c2565b9392505050565b611647816112f0565b811461165257600080fd5b50565b6000815190506116648161163e565b92915050565b6000602082840312156116805761167f611219565b5b600061168e84828501611655565b91505092915050565b60006040820190506116ac60008301856112c2565b6116b960208301846112c2565b9392505050565b7f7374617274206174203c206e6f77000000000000000000000000000000000000600082015250565b60006116f6600e8361152c565b9150611701826116c0565b602082019050919050565b60006020820190508181036000830152611725816116e9565b9050919050565b7f656e64206174203c207374617274206174000000000000000000000000000000600082015250565b600061176260118361152c565b915061176d8261172c565b602082019050919050565b6000602082019050818103600083015261179181611755565b9050919050565b7f4e487b7100000000000000000000000000000000000000000000000000000000600052601160045260246000fd5b60006117d28261121e565b91506117dd8361121e565b92508282019050808211156117f5576117f4611798565b5b92915050565b7f656e64206174203e206d6178206475726174696f6e0000000000000000000000600082015250565b600061183160158361152c565b915061183c826117fb565b602082019050919050565b6000602082019050818103600083015261186081611824565b9050919050565b600060808201905061187c60008301876112c2565b61188960208301866112c2565b61189660408301856112e1565b6118a360608301846112e1565b95945050505050565b7f6e6f742062656e65666963696172790000000000000000000000000000000000600082015250565b60006118e2600f8361152c565b91506118ed826118ac565b602082019050919050565b60006020820190508181036000830152611911816118d5565b9050919050565b7f706c6564676564203c20676f616c000000000000000000000000000000000000600082015250565b600061194e600e8361152c565b915061195982611918565b602082019050919050565b6000602082019050818103600083015261197d81611941565b9050919050565b7f616c726561647920636c61696d65640000000000000000000000000000000000600082015250565b60006119ba600f8361152c565b91506119c582611984565b602082019050919050565b600060208201905081810360008301526119e9816119ad565b9050919050565b7f7374617274656400000000000000000000000000000000000000000000000000600082015250565b6000611a2660078361152c565b9150611a31826119f0565b602082019050919050565b60006020820190508181036000830152611a5581611a19565b9050919050565b7f656e646564000000000000000000000000000000000000000000000000000000600082015250565b6000611a9260058361152c565b9150611a9d82611a5c565b602082019050919050565b60006020820190508181036000830152611ac181611a85565b9050919050565b6000611ad38261121e565b9150611ade8361121e565b9250828203905081811115611af657611af5611798565b5b92915050565b7f6e6f742073746172746564000000000000000000000000000000000000000000600082015250565b6000611b32600b8361152c565b9150611b3d82611afc565b602082019050919050565b60006020820190508181036000830152611b6181611b25565b9050919050565b6000606082019050611b7d60008301866112b3565b611b8a60208301856112b3565b611b9760408301846112c2565b94935050505056fea264697066735822122086ea2c6a99afb0599a71db4fade10c0b8825ef2834888fe34607462490a952be64736f6c63430008110033",
  "immutableReferences": {
    "87": [
      {
        "length": 32,
        "start": 1234
      },
      {
        "length": 32,
        "start": 2587
      },
      {
        "length": 32,
        "start": 3732
      },
      {
        "length": 32,
        "start": 4015
      },
      {
        "length": 32,
        "start": 4390
      }
    ]
  },
  "source": "pragma solidity >=0.7.0 <0.9.0;\r\n\r\ninterface IERC20 {\r\n    function transfer(address, uint) external returns (bool);\r\n\r\n    function transferFrom(\r\n        address,\r\n        address,\r\n        uint\r\n    ) external returns (bool);\r\n}\r\n\r\ncontract CrowdFunding{\r\n\r\n  struct Funder {\r\n    address _addr;\r\n    // string _name;\r\n    uint _amount;\r\n  }\r\n\r\n  event Launch(\r\n      uint id,\r\n      address indexed beneficiary,\r\n      uint goal,\r\n      uint32 startAt,\r\n      uint32 endAt\r\n  );\r\n  event Cancel(uint id);\r\n  event Pledge(uint indexed id, address indexed caller, uint amount);\r\n  event Unpledge(uint indexed id, address indexed caller, uint amount);\r\n  event Claim(uint id);\r\n  event Refund(uint id, address indexed caller, uint amount);\r\n\r\n\r\n  struct Campaign {\r\n    // Creator(beneficiary) of campaign\r\n    address beneficiary;\r\n    // Amount of tokens to raise\r\n    uint goal;\r\n    // uint numFunders;\r\n    // Total amount pledged(funded)\r\n    uint pledged;\r\n    // Timestamp of start of campaign\r\n    uint32 startAt;\r\n    // Timestamp of end of campaign\r\n    uint32 endAt;\r\n    // True if goal was reached and creator has claimed the tokens.\r\n    bool claimed;\r\n    // mapping (uint => Funder) funders;\r\n  }\r\n\r\n  IERC20 public immutable token;\r\n  // Total count of campaigns created.\r\n  // It is also used to generate id for new campaigns.\r\n  uint public campaignsCount;\r\n\r\n  // Mapping from id to Campaign\r\n  //  key uint, value Campaign   mapping(  ) \r\n  //  map campaigns  state  .\r\n  // { 1: Campaign, 2: Campaign ...}\r\n  mapping(uint => Campaign) public campaigns;\r\n\r\n  // Mapping from campaign id => pledger => amount pledged\r\n  mapping(uint => mapping(address => uint)) public pledgedAmount;\r\n\r\n  constructor(address _token) { \r\n      token = IERC20(_token);\r\n  }\r\n\r\n  function launch(\r\n      uint _goal,\r\n      uint32 _startAt,\r\n      uint32 _endAt\r\n  ) external {\r\n      require(_startAt >= block.timestamp, \"start at < now\");\r\n      require(_endAt >= _startAt, \"end at < start at\");\r\n      require(_endAt <= block.timestamp + 90 days, \"end at > max duration\");\r\n\r\n      campaignsCount += 1;\r\n      campaigns[campaignsCount] = Campaign({\r\n          beneficiary: msg.sender,\r\n          goal: _goal,\r\n          // numFunders: 0,\r\n          pledged: 0,\r\n          startAt: _startAt,\r\n          endAt: _endAt,\r\n          claimed: false\r\n      });\r\n\r\n      emit Launch(campaignsCount, msg.sender, _goal, _startAt, _endAt);\r\n  }\r\n\r\n  \r\n  function cancel(uint _id) external {\r\n      Campaign memory campaign = campaigns[_id];\r\n      require(campaign.beneficiary == msg.sender, \"not beneficiary\");\r\n      require(block.timestamp < campaign.startAt, \"started\");\r\n\r\n      delete campaigns[_id];\r\n      emit Cancel(_id);\r\n  }\r\n\r\n\r\n  function pledge(uint _id, uint _amount) external {\r\n      Campaign storage campaign = campaigns[_id];\r\n      require(block.timestamp >= campaign.startAt, \"not started\");\r\n      require(block.timestamp <= campaign.endAt, \"ended\");\r\n      // campaign.funders[campaign.numFunders++] = Funder({addr: msg.sender, amount: msg.value});\r\n      campaign.pledged += _amount;\r\n      pledgedAmount[_id][msg.sender] += _amount;\r\n      token.transferFrom(msg.sender, address(this), _amount);\r\n\r\n      emit Pledge(_id, msg.sender, _amount);\r\n  }\r\n\r\n\r\n  function unpledge(uint _id, uint _amount) external {\r\n      Campaign storage campaign = campaigns[_id];\r\n      require(block.timestamp <= campaign.endAt, \"ended\");\r\n\r\n      campaign.pledged -= _amount;\r\n      pledgedAmount[_id][msg.sender] -= _amount;\r\n      token.transfer(msg.sender, _amount);\r\n\r\n      emit Unpledge(_id, msg.sender, _amount);\r\n  }\r\n\r\n  function claim(uint _id) external {\r\n      Campaign storage campaign = campaigns[_id];\r\n      require(campaign.beneficiary == msg.sender, \"not beneficiary\");\r\n      require(block.timestamp > campaign.endAt, \"not ended\");\r\n      require(campaign.pledged >= campaign.goal, \"pledged < goal\");\r\n      require(!campaign.claimed, \"already claimed\");\r\n\r\n      campaign.claimed = true;\r\n      token.transfer(campaign.beneficiary, campaign.pledged);\r\n\r\n      emit Claim(_id);\r\n  }\r\n\r\n  function refund(uint _id) external {\r\n      Campaign memory campaign = campaigns[_id];\r\n      require(block.timestamp > campaign.endAt, \"not ended\");\r\n      require(campaign.pledged < campaign.goal, \"pledged >= goal\");\r\n\r\n      uint bal = pledgedAmount[_id][msg.sender];\r\n      pledgedAmount[_id][msg.sender] = 0;\r\n      token.transfer(msg.sender, bal);\r\n\r\n      emit Refund(_id, msg.sender, bal);\r\n  }\r\n\r\n\r\n  // function newCampaign(address _beneficiary, uint _goalAmount)  public returns (uint campaignID)  {\r\n  //   campaignID = numCampaigns++; \r\n  //   // campaigns[campaignID] = Campaign(beneficiary, goal, 0, 0);\r\n  // }\r\n  function contribute(uint campaignID) public {\r\n    // Campaign storage c = campaigns[campaignID];\r\n    // c.funders[c.numFunders++] = Funder({addr: msg.sender, amount: msg.value});\r\n    // c.amount += msg.value;\r\n  }\r\n\r\n  // function checkGoalReached(uint campaignID) public returns (bool reached) {\r\n  //   // Campaign c = campaigns[campaignID];\r\n  //   // if (c.amount < c.fundingGoal)\r\n  //   //   return false;\r\n  //   // c.beneficiary.send(c.amount);\r\n  //   // c.amount = 0;\r\n  //   // return true;\r\n  // }\r\n}",
  "sourcePath": "C:\\Users\\SSAFY\\Desktop\\A608_pjt\\S07P22A608\\Frontend\\contracts\\contracts\\CrowdFunding.sol",
  "compiler": {
    "name": "solc",
    "version": "0.8.17+commit.8df45f5f.Emscripten.clang"
  },
  "schemaVersion": "3.4.10",
  "updatedAt": "2022-09-21T01:59:48.455Z",
  "devdoc": {
    "kind": "dev",
    "methods": {},
    "version": 1
  },
  "userdoc": {
    "kind": "user",
    "methods": {},
    "version": 1
  }
}