{
  "contractName": "DealFactory",
  "abi": [
    {
      "inputs": [
        {
          "internalType": "address",
          "name": "_currencyAddress",
          "type": "address"
        },
        {
          "internalType": "address",
          "name": "_NFTmintAddress",
          "type": "address"
        }
      ],
      "stateMutability": "nonpayable",
      "type": "constructor"
    },
    {
      "anonymous": false,
      "inputs": [
        {
          "indexed": true,
          "internalType": "address",
          "name": "_dealContract",
          "type": "address"
        },
        {
          "indexed": true,
          "internalType": "address",
          "name": "_owner",
          "type": "address"
        },
        {
          "indexed": false,
          "internalType": "uint256",
          "name": "_workId",
          "type": "uint256"
        }
      ],
      "name": "NewDeal",
      "type": "event"
    },
    {
      "anonymous": false,
      "inputs": [
        {
          "indexed": true,
          "internalType": "address",
          "name": "previousOwner",
          "type": "address"
        },
        {
          "indexed": true,
          "internalType": "address",
          "name": "newOwner",
          "type": "address"
        }
      ],
      "name": "OwnershipTransferred",
      "type": "event"
    },
    {
      "anonymous": false,
      "inputs": [
        {
          "indexed": false,
          "internalType": "address",
          "name": "dealContractAddress",
          "type": "address"
        },
        {
          "indexed": false,
          "internalType": "address",
          "name": "seller",
          "type": "address"
        },
        {
          "indexed": false,
          "internalType": "address",
          "name": "currencyAddress",
          "type": "address"
        },
        {
          "indexed": false,
          "internalType": "uint256",
          "name": "tokenId",
          "type": "uint256"
        },
        {
          "indexed": false,
          "internalType": "uint256",
          "name": "purchasePrice",
          "type": "uint256"
        },
        {
          "indexed": false,
          "internalType": "uint256",
          "name": "dealstartTime",
          "type": "uint256"
        },
        {
          "indexed": false,
          "internalType": "uint256",
          "name": "dealendTime",
          "type": "uint256"
        }
      ],
      "name": "UpdateDealCreated",
      "type": "event"
    },
    {
      "inputs": [],
      "name": "admin",
      "outputs": [
        {
          "internalType": "address",
          "name": "",
          "type": "address"
        }
      ],
      "stateMutability": "view",
      "type": "function"
    },
    {
      "inputs": [
        {
          "internalType": "uint256",
          "name": "",
          "type": "uint256"
        }
      ],
      "name": "deals",
      "outputs": [
        {
          "internalType": "address",
          "name": "",
          "type": "address"
        }
      ],
      "stateMutability": "view",
      "type": "function"
    },
    {
      "inputs": [],
      "name": "erc20Contract",
      "outputs": [
        {
          "internalType": "contract IERC20",
          "name": "",
          "type": "address"
        }
      ],
      "stateMutability": "view",
      "type": "function"
    },
    {
      "inputs": [],
      "name": "erc721Contract",
      "outputs": [
        {
          "internalType": "contract IERC721",
          "name": "",
          "type": "address"
        }
      ],
      "stateMutability": "view",
      "type": "function"
    },
    {
      "inputs": [],
      "name": "owner",
      "outputs": [
        {
          "internalType": "address",
          "name": "",
          "type": "address"
        }
      ],
      "stateMutability": "view",
      "type": "function"
    },
    {
      "inputs": [],
      "name": "renounceOwnership",
      "outputs": [],
      "stateMutability": "nonpayable",
      "type": "function"
    },
    {
      "inputs": [
        {
          "internalType": "address",
          "name": "newOwner",
          "type": "address"
        }
      ],
      "name": "transferOwnership",
      "outputs": [],
      "stateMutability": "nonpayable",
      "type": "function"
    },
    {
      "inputs": [
        {
          "internalType": "uint256",
          "name": "tokenId",
          "type": "uint256"
        }
      ],
      "name": "getDealAddress",
      "outputs": [
        {
          "internalType": "address",
          "name": "",
          "type": "address"
        }
      ],
      "stateMutability": "view",
      "type": "function"
    },
    {
      "inputs": [
        {
          "internalType": "address",
          "name": "nftAddress",
          "type": "address"
        },
        {
          "internalType": "address",
          "name": "seller",
          "type": "address"
        },
        {
          "internalType": "address",
          "name": "currencyAddress",
          "type": "address"
        },
        {
          "internalType": "uint256",
          "name": "tokenId",
          "type": "uint256"
        },
        {
          "internalType": "uint256",
          "name": "purchasePrice",
          "type": "uint256"
        },
        {
          "internalType": "uint256",
          "name": "startTime",
          "type": "uint256"
        },
        {
          "internalType": "uint256",
          "name": "endTime",
          "type": "uint256"
        }
      ],
      "name": "createDeal",
      "outputs": [
        {
          "internalType": "contract Deal",
          "name": "updateDealContract",
          "type": "address"
        }
      ],
      "stateMutability": "nonpayable",
      "type": "function"
    },
    {
      "inputs": [],
      "name": "allDeals",
      "outputs": [
        {
          "internalType": "address[]",
          "name": "",
          "type": "address[]"
        }
      ],
      "stateMutability": "view",
      "type": "function"
    }
  ],
  "bytecode": "0x60806040523480156200001157600080fd5b506040516200206038038062002060833981810160405281019062000037919062000258565b620000576200004b6200012260201b60201c565b6200012a60201b60201c565b33600160006101000a81548173ffffffffffffffffffffffffffffffffffffffff021916908373ffffffffffffffffffffffffffffffffffffffff16021790555081600360006101000a81548173ffffffffffffffffffffffffffffffffffffffff021916908373ffffffffffffffffffffffffffffffffffffffff16021790555080600460006101000a81548173ffffffffffffffffffffffffffffffffffffffff021916908373ffffffffffffffffffffffffffffffffffffffff16021790555050506200029f565b600033905090565b60008060009054906101000a900473ffffffffffffffffffffffffffffffffffffffff169050816000806101000a81548173ffffffffffffffffffffffffffffffffffffffff021916908373ffffffffffffffffffffffffffffffffffffffff1602179055508173ffffffffffffffffffffffffffffffffffffffff168173ffffffffffffffffffffffffffffffffffffffff167f8be0079c531659141344cd1fd0a4f28419497f9722a3daafe3b4186f6b6457e060405160405180910390a35050565b600080fd5b600073ffffffffffffffffffffffffffffffffffffffff82169050919050565b60006200022082620001f3565b9050919050565b620002328162000213565b81146200023e57600080fd5b50565b600081519050620002528162000227565b92915050565b60008060408385031215620002725762000271620001ee565b5b6000620002828582860162000241565b9250506020620002958582860162000241565b9150509250929050565b611db180620002af6000396000f3fe60806040523480156200001157600080fd5b5060043610620000ac5760003560e01c8063976ac6bc116200006f578063976ac6bc146200016d578063a8f6c91314620001a3578063d7c97fb414620001c5578063f2fde38b14620001e7578063f851a440146200020757620000ac565b806303988f8414620000b15780635fb081fc14620000e7578063715018a6146200011d5780637186320c14620001295780638da5cb5b146200014b575b600080fd5b620000cf6004803603810190620000c9919062000957565b62000229565b604051620000de9190620009ce565b60405180910390f35b620001056004803603810190620000ff919062000957565b62000269565b604051620001149190620009ce565b60405180910390f35b62000127620002b4565b005b6200013362000345565b60405162000142919062000ab9565b60405180910390f35b62000155620003d5565b604051620001649190620009ce565b60405180910390f35b6200018b600480360381019062000185919062000b0e565b620003fe565b6040516200019a919062000c2c565b60405180910390f35b620001ad620006c7565b604051620001bc919062000c6e565b60405180910390f35b620001cf620006ed565b604051620001de919062000cb0565b60405180910390f35b620002056004803603810190620001ff919062000ccd565b62000713565b005b6200021162000817565b604051620002209190620009ce565b60405180910390f35b600281815481106200023a57600080fd5b906000526020600020016000915054906101000a900473ffffffffffffffffffffffffffffffffffffffff1681565b60006002828154811062000282576200028162000cff565b5b9060005260206000200160009054906101000a900473ffffffffffffffffffffffffffffffffffffffff169050919050565b620002be6200083d565b73ffffffffffffffffffffffffffffffffffffffff16620002de620003d5565b73ffffffffffffffffffffffffffffffffffffffff161462000337576040517f08c379a00000000000000000000000000000000000000000000000000000000081526004016200032e9062000d8f565b60405180910390fd5b62000343600062000845565b565b60606002805480602002602001604051908101604052809291908181526020018280548015620003cb57602002820191906000526020600020905b8160009054906101000a900473ffffffffffffffffffffffffffffffffffffffff1673ffffffffffffffffffffffffffffffffffffffff168152602001906001019080831162000380575b5050505050905090565b60008060009054906101000a900473ffffffffffffffffffffffffffffffffffffffff16905090565b600085600360006101000a81548173ffffffffffffffffffffffffffffffffffffffff021916908373ffffffffffffffffffffffffffffffffffffffff16021790555087600460006101000a81548173ffffffffffffffffffffffffffffffffffffffff021916908373ffffffffffffffffffffffffffffffffffffffff160217905550600460009054906101000a900473ffffffffffffffffffffffffffffffffffffffff1673ffffffffffffffffffffffffffffffffffffffff166323b872dd8830886040518463ffffffff1660e01b8152600401620004e39392919062000dc2565b600060405180830381600087803b158015620004fe57600080fd5b505af115801562000513573d6000803e3d6000fd5b50505050600160009054906101000a900473ffffffffffffffffffffffffffffffffffffffff1687878a888888886040516200054f9062000909565b6200056298979695949392919062000dff565b604051809103906000f0801580156200057f573d6000803e3d6000fd5b509050600460009054906101000a900473ffffffffffffffffffffffffffffffffffffffff1673ffffffffffffffffffffffffffffffffffffffff166323b872dd3083886040518463ffffffff1660e01b8152600401620005e39392919062000dc2565b600060405180830381600087803b158015620005fe57600080fd5b505af115801562000613573d6000803e3d6000fd5b5050505080600286815481106200062f576200062e62000cff565b5b9060005260206000200160006101000a81548173ffffffffffffffffffffffffffffffffffffffff021916908373ffffffffffffffffffffffffffffffffffffffff1602179055507f6bcf7b2359e95b65e873eef94492374452d6e71ab611b52f097f26f69e9f0e6781888888888888604051620006b4979695949392919062000e8d565b60405180910390a1979650505050505050565b600360009054906101000a900473ffffffffffffffffffffffffffffffffffffffff1681565b600460009054906101000a900473ffffffffffffffffffffffffffffffffffffffff1681565b6200071d6200083d565b73ffffffffffffffffffffffffffffffffffffffff166200073d620003d5565b73ffffffffffffffffffffffffffffffffffffffff161462000796576040517f08c379a00000000000000000000000000000000000000000000000000000000081526004016200078d9062000d8f565b60405180910390fd5b600073ffffffffffffffffffffffffffffffffffffffff168173ffffffffffffffffffffffffffffffffffffffff16141562000809576040517f08c379a0000000000000000000000000000000000000000000000000000000008152600401620008009062000f80565b60405180910390fd5b620008148162000845565b50565b600160009054906101000a900473ffffffffffffffffffffffffffffffffffffffff1681565b600033905090565b60008060009054906101000a900473ffffffffffffffffffffffffffffffffffffffff169050816000806101000a81548173ffffffffffffffffffffffffffffffffffffffff021916908373ffffffffffffffffffffffffffffffffffffffff1602179055508173ffffffffffffffffffffffffffffffffffffffff168173ffffffffffffffffffffffffffffffffffffffff167f8be0079c531659141344cd1fd0a4f28419497f9722a3daafe3b4186f6b6457e060405160405180910390a35050565b610dd98062000fa383390190565b600080fd5b6000819050919050565b62000931816200091c565b81146200093d57600080fd5b50565b600081359050620009518162000926565b92915050565b60006020828403121562000970576200096f62000917565b5b6000620009808482850162000940565b91505092915050565b600073ffffffffffffffffffffffffffffffffffffffff82169050919050565b6000620009b68262000989565b9050919050565b620009c881620009a9565b82525050565b6000602082019050620009e56000830184620009bd565b92915050565b600081519050919050565b600082825260208201905092915050565b6000819050602082019050919050565b62000a2281620009a9565b82525050565b600062000a36838362000a17565b60208301905092915050565b6000602082019050919050565b600062000a5c82620009eb565b62000a688185620009f6565b935062000a758362000a07565b8060005b8381101562000aac57815162000a90888262000a28565b975062000a9d8362000a42565b92505060018101905062000a79565b5085935050505092915050565b6000602082019050818103600083015262000ad5818462000a4f565b905092915050565b62000ae881620009a9565b811462000af457600080fd5b50565b60008135905062000b088162000add565b92915050565b600080600080600080600060e0888a03121562000b305762000b2f62000917565b5b600062000b408a828b0162000af7565b975050602062000b538a828b0162000af7565b965050604062000b668a828b0162000af7565b955050606062000b798a828b0162000940565b945050608062000b8c8a828b0162000940565b93505060a062000b9f8a828b0162000940565b92505060c062000bb28a828b0162000940565b91505092959891949750929550565b6000819050919050565b600062000bec62000be662000be08462000989565b62000bc1565b62000989565b9050919050565b600062000c008262000bcb565b9050919050565b600062000c148262000bf3565b9050919050565b62000c268162000c07565b82525050565b600060208201905062000c43600083018462000c1b565b92915050565b600062000c568262000bf3565b9050919050565b62000c688162000c49565b82525050565b600060208201905062000c85600083018462000c5d565b92915050565b600062000c988262000bf3565b9050919050565b62000caa8162000c8b565b82525050565b600060208201905062000cc7600083018462000c9f565b92915050565b60006020828403121562000ce65762000ce562000917565b5b600062000cf68482850162000af7565b91505092915050565b7f4e487b7100000000000000000000000000000000000000000000000000000000600052603260045260246000fd5b600082825260208201905092915050565b7f4f776e61626c653a2063616c6c6572206973206e6f7420746865206f776e6572600082015250565b600062000d7760208362000d2e565b915062000d848262000d3f565b602082019050919050565b6000602082019050818103600083015262000daa8162000d68565b9050919050565b62000dbc816200091c565b82525050565b600060608201905062000dd96000830186620009bd565b62000de86020830185620009bd565b62000df7604083018462000db1565b949350505050565b60006101008201905062000e17600083018b620009bd565b62000e26602083018a620009bd565b62000e356040830189620009bd565b62000e446060830188620009bd565b62000e53608083018762000db1565b62000e6260a083018662000db1565b62000e7160c083018562000db1565b62000e8060e083018462000db1565b9998505050505050505050565b600060e08201905062000ea4600083018a620009bd565b62000eb36020830189620009bd565b62000ec26040830188620009bd565b62000ed1606083018762000db1565b62000ee0608083018662000db1565b62000eef60a083018562000db1565b62000efe60c083018462000db1565b98975050505050505050565b7f4f776e61626c653a206e6577206f776e657220697320746865207a65726f206160008201527f6464726573730000000000000000000000000000000000000000000000000000602082015250565b600062000f6860268362000d2e565b915062000f758262000f0a565b604082019050919050565b6000602082019050818103600083015262000f9b8162000f59565b905091905056fe60806040523480156200001157600080fd5b5060405162000dd938038062000dd98339818101604052810190620000379190620002b4565b600083116200004557600080fd5b876000806101000a81548173ffffffffffffffffffffffffffffffffffffffff021916908373ffffffffffffffffffffffffffffffffffffffff16021790555086600160006101000a81548173ffffffffffffffffffffffffffffffffffffffff021916908373ffffffffffffffffffffffffffffffffffffffff16021790555085600360006101000a81548173ffffffffffffffffffffffffffffffffffffffff021916908373ffffffffffffffffffffffffffffffffffffffff16021790555084600460006101000a81548173ffffffffffffffffffffffffffffffffffffffff021916908373ffffffffffffffffffffffffffffffffffffffff160217905550836008819055508260078190555081600581905550806006819055506000600960006101000a81548160ff02191690831515021790555085600960016101000a81548173ffffffffffffffffffffffffffffffffffffffff021916908373ffffffffffffffffffffffffffffffffffffffff16021790555084600a60006101000a81548173ffffffffffffffffffffffffffffffffffffffff021916908373ffffffffffffffffffffffffffffffffffffffff16021790555050505050505050506200037d565b600080fd5b600073ffffffffffffffffffffffffffffffffffffffff82169050919050565b6000620002418262000214565b9050919050565b620002538162000234565b81146200025f57600080fd5b50565b600081519050620002738162000248565b92915050565b6000819050919050565b6200028e8162000279565b81146200029a57600080fd5b50565b600081519050620002ae8162000283565b92915050565b600080600080600080600080610100898b031215620002d857620002d76200020f565b5b6000620002e88b828c0162000262565b9850506020620002fb8b828c0162000262565b97505060406200030e8b828c0162000262565b9650506060620003218b828c0162000262565b9550506080620003348b828c016200029d565b94505060a0620003478b828c016200029d565b93505060c06200035a8b828c016200029d565b92505060e06200036d8b828c016200029d565b9150509295985092959890939650565b610a4c806200038d6000396000f3fe608060405234801561001057600080fd5b50600436106101005760003560e01c806364edfbf011610097578063a8f6c91311610066578063a8f6c9131461024a578063c7e284b814610268578063defd6c5f14610286578063ef0a230e146102a457610100565b806364edfbf0146101e15780636b1863b4146101eb5780636d60502f146102095780637150d8ae1461022c57610100565b80631c1cb323116100d35780631c1cb32314610169578063243ce3c2146101875780635bf8633a146101a557806363b63dc8146101c357610100565b806308551a53146101055780630a7f463f1461012357806312fa6feb1461012d57806317d70f7c1461014b575b600080fd5b61010d6102c2565b60405161011a91906106af565b60405180910390f35b61012b6102e8565b005b6101356102ea565b60405161014291906106e5565b60405180910390f35b6101536102fd565b6040516101609190610719565b60405180910390f35b610171610303565b60405161017e91906106af565b60405180910390f35b61018f610329565b60405161019c91906106e5565b60405180910390f35b6101ad61051b565b6040516101ba91906106af565b60405180910390f35b6101cb610541565b6040516101d89190610719565b60405180910390f35b6101e9610547565b005b6101f361054f565b6040516102009190610719565b60405180910390f35b610211610555565b60405161022396959493929190610734565b60405180910390f35b6102346105c4565b60405161024191906106af565b60405180910390f35b6102526105ea565b60405161025f91906107f4565b60405180910390f35b610270610610565b60405161027d9190610828565b60405180910390f35b61028e610625565b60405161029b9190610719565b60405180910390f35b6102ac61062b565b6040516102b99190610864565b60405180910390f35b600160009054906101000a900473ffffffffffffffffffffffffffffffffffffffff1681565b565b600960009054906101000a900460ff1681565b60085481565b600360009054906101000a900473ffffffffffffffffffffffffffffffffffffffff1681565b60008033905060008054906101000a900473ffffffffffffffffffffffffffffffffffffffff1673ffffffffffffffffffffffffffffffffffffffff168173ffffffffffffffffffffffffffffffffffffffff1614806103d65750600160009054906101000a900473ffffffffffffffffffffffffffffffffffffffff1673ffffffffffffffffffffffffffffffffffffffff168173ffffffffffffffffffffffffffffffffffffffff16145b610415576040517f08c379a000000000000000000000000000000000000000000000000000000000815260040161040c906108dc565b60405180910390fd5b600a60009054906101000a900473ffffffffffffffffffffffffffffffffffffffff1673ffffffffffffffffffffffffffffffffffffffff166323b872dd30600160009054906101000a900473ffffffffffffffffffffffffffffffffffffffff166008546040518463ffffffff1660e01b8152600401610498939291906108fc565b600060405180830381600087803b1580156104b257600080fd5b505af11580156104c6573d6000803e3d6000fd5b505050506104d2610651565b7f3ef2284afd6045a363fed2a39814e330369e6fa8216cc00ac2b71e2d194f1a3a306000600854600060405161050b949392919061096e565b60405180910390a1600191505090565b600460009054906101000a900473ffffffffffffffffffffffffffffffffffffffff1681565b60055481565b600033905050565b60065481565b600080600080600080600554600654600754600854600360009054906101000a900473ffffffffffffffffffffffffffffffffffffffff16600460009054906101000a900473ffffffffffffffffffffffffffffffffffffffff16955095509550955095509550909192939495565b600260009054906101000a900473ffffffffffffffffffffffffffffffffffffffff1681565b600960019054906101000a900473ffffffffffffffffffffffffffffffffffffffff1681565b60004260065461062091906109e2565b905090565b60075481565b600a60009054906101000a900473ffffffffffffffffffffffffffffffffffffffff1681565b6001600960006101000a81548160ff021916908315150217905550565b600073ffffffffffffffffffffffffffffffffffffffff82169050919050565b60006106998261066e565b9050919050565b6106a98161068e565b82525050565b60006020820190506106c460008301846106a0565b92915050565b60008115159050919050565b6106df816106ca565b82525050565b60006020820190506106fa60008301846106d6565b92915050565b6000819050919050565b61071381610700565b82525050565b600060208201905061072e600083018461070a565b92915050565b600060c082019050610749600083018961070a565b610756602083018861070a565b610763604083018761070a565b610770606083018661070a565b61077d60808301856106a0565b61078a60a08301846106a0565b979650505050505050565b6000819050919050565b60006107ba6107b56107b08461066e565b610795565b61066e565b9050919050565b60006107cc8261079f565b9050919050565b60006107de826107c1565b9050919050565b6107ee816107d3565b82525050565b600060208201905061080960008301846107e5565b92915050565b6000819050919050565b6108228161080f565b82525050565b600060208201905061083d6000830184610819565b92915050565b600061084e826107c1565b9050919050565b61085e81610843565b82525050565b60006020820190506108796000830184610855565b92915050565b600082825260208201905092915050565b7f446f206e6f7420616c6c6f776564207065726d697373696f6e00000000000000600082015250565b60006108c660198361087f565b91506108d182610890565b602082019050919050565b600060208201905081810360008301526108f5816108b9565b9050919050565b600060608201905061091160008301866106a0565b61091e60208301856106a0565b61092b604083018461070a565b949350505050565b6000819050919050565b600061095861095361094e84610933565b610795565b610700565b9050919050565b6109688161093d565b82525050565b600060808201905061098360008301876106a0565b61099060208301866106a0565b61099d604083018561070a565b6109aa606083018461095f565b95945050505050565b7f4e487b7100000000000000000000000000000000000000000000000000000000600052601160045260246000fd5b60006109ed82610700565b91506109f883610700565b925082821015610a0b57610a0a6109b3565b5b82820390509291505056fea2646970667358221220402f10c5a4942696a59b277eccead8cfaa599e666090f04d2e0db4138f90bd1a64736f6c634300080a0033a2646970667358221220d561bb32fd53e3a75fe59bafb6cbd5254799bcdde6da7d5f1fa5f7b5908280d364736f6c634300080a0033",
  "immutableReferences": {},
  "source": "// SPDX-License-Identifier: MIT\r\npragma solidity >=0.7.0 <0.9.0;\r\n\r\nimport \"./access/Ownable.sol\";\r\nimport \"./token/ERC20/ERC20.sol\";\r\nimport \"./token/ERC721/ERC721.sol\";\r\nimport \"./SsafyNFT.sol\";\r\nimport \"./SsafyToken.sol\";\r\nimport \"./NFT.sol\";\r\n\r\n/**\r\n * PJT  - Req.1-SC1 DealFactory \r\n */\r\ncontract DealFactory is Ownable {\r\n    address public admin;\r\n    address[] public deals;\r\n\r\n    IERC20 public erc20Contract;\r\n    IERC721 public erc721Contract;\r\n\r\n    event NewDeal(\r\n        address indexed _dealContract,\r\n        address indexed _owner,\r\n        uint256 _workId\r\n    );\r\n\r\n    event UpdateDealCreated(\r\n        address dealContractAddress,\r\n        address seller,\r\n        address currencyAddress,\r\n        uint256 tokenId,\r\n        uint256 purchasePrice,\r\n        uint256 dealstartTime,\r\n        uint256 dealendTime\r\n    );\r\n\r\n    constructor(address _currencyAddress, address _NFTmintAddress) {\r\n        admin = msg.sender;\r\n      \r\n        erc20Contract = IERC20(_currencyAddress);\r\n        erc721Contract = IERC721(_NFTmintAddress);\r\n    }\r\n\r\n    function getDealAddress(uint256 tokenId) public view returns(address){\r\n        return deals[tokenId];\r\n    }\r\n\r\n    function createDeal(\r\n        address nftAddress,\r\n        address seller,\r\n        address currencyAddress,\r\n        uint256 tokenId,\r\n        uint256 purchasePrice,\r\n        uint256 startTime,\r\n        uint256 endTime\r\n    ) public returns (Deal updateDealContract) {\r\n        // TODO\r\n        erc20Contract = IERC20(currencyAddress);\r\n        erc721Contract = IERC721(nftAddress);\r\n\r\n        erc721Contract.transferFrom(seller, address(this), tokenId);\r\n\r\n        updateDealContract = new Deal (\r\n            admin,\r\n            seller,\r\n            currencyAddress,\r\n            nftAddress,\r\n            tokenId,\r\n            purchasePrice,\r\n            startTime,\r\n            endTime\r\n        );\r\n\r\n        erc721Contract.transferFrom(address(this), address(updateDealContract), tokenId);\r\n\r\n        deals[tokenId] = address(updateDealContract);\r\n\r\n        emit UpdateDealCreated(address(updateDealContract), seller, currencyAddress, tokenId, purchasePrice, startTime, endTime);\r\n        \r\n        return updateDealContract;\r\n    }\r\n\r\n    function allDeals() public view returns (address[] memory) {\r\n        return deals;\r\n    }\r\n}\r\n\r\n\r\ncontract Deal {\r\n    //    \r\n    address admin;\r\n    address public seller;\r\n    address public buyer;\r\n    address public currencyAddress;\r\n    address public nftAddress;\r\n    uint256 public dealStartTime;\r\n    uint256 public dealEndTime;\r\n    uint256 public purchasePrice;\r\n    uint256 public tokenId;\r\n    bool public ended;\r\n\r\n    IERC20 public erc20Contract;\r\n    IERC721 public erc721Constract;\r\n\r\n    event DealEnded(\r\n        address dealContractAddress,\r\n        address seller,\r\n        uint256 tokenId,\r\n        uint256 amount\r\n        );\r\n\r\n    constructor(\r\n        address _admin,\r\n        address _seller,\r\n        address _currencyAddress,\r\n        address _nftAddress,\r\n        uint256 _tokenId,\r\n        uint256 _purchasePrice,\r\n        uint256 startTime,\r\n        uint256 endTime\r\n    ) {\r\n        require(_purchasePrice > 0);\r\n        admin = _admin;\r\n        seller = _seller;\r\n        currencyAddress = _currencyAddress;\r\n        nftAddress = _nftAddress;\r\n        tokenId = _tokenId;\r\n        purchasePrice = _purchasePrice;\r\n        dealStartTime = startTime;\r\n        dealEndTime = endTime;\r\n        ended = false;\r\n        erc20Contract = IERC20(_currencyAddress);\r\n        erc721Constract = IERC721(_nftAddress);\r\n    }\r\n\r\n    function purchase() public {\r\n        // TODO\r\n        address _puchaser = msg.sender;\r\n    }\r\n\r\n    function confirmItem() public {\r\n        // TODO \r\n    }\r\n    \r\n    function cancelDeals() public returns(bool) {\r\n        address request = msg.sender;\r\n        require(request == admin || request == seller, \"Do not allowed permission\");\r\n\r\n        erc721Constract.transferFrom(address(this), seller, tokenId);\r\n        _end();\r\n\r\n        emit DealEnded(address(this), address(0), tokenId,0);\r\n        return true;\r\n    }\r\n\r\n    function getTimeLeft() public view returns (int256) {\r\n        return (int256)(dealEndTime - block.timestamp);\r\n    }\r\n\r\n    function getDealInfo()\r\n        public\r\n        view\r\n        returns (\r\n            uint256,\r\n            uint256,\r\n            uint256,\r\n            uint256,\r\n            address,\r\n            address\r\n        )\r\n    {\r\n        return (\r\n            dealStartTime,\r\n            dealEndTime,\r\n            purchasePrice,\r\n            tokenId,\r\n            currencyAddress,\r\n            nftAddress\r\n        );\r\n    }\r\n\r\n    // internal  private     _  .\r\n    function _end() internal {\r\n        ended = true;\r\n    }\r\n\r\n    function _getCurrencyAmount() private view returns (uint256) {\r\n        return erc20Contract.balanceOf(msg.sender);\r\n    }\r\n\r\n    // modifier       . \r\n    modifier onlySeller() {\r\n        require(msg.sender == seller, \"Deal: You are not seller.\");\r\n        _;\r\n    }\r\n\r\n    modifier onlyAfterStart() {\r\n        require(\r\n            block.timestamp >= dealStartTime,\r\n            \"Deal: This Deal is not started.\"\r\n        );\r\n        _;\r\n    }\r\n}\r\n",
  "sourcePath": "C:\\Users\\SSAFY\\Desktop\\smartcontract\\S07P22A608\\smart-contracts\\contracts\\DealFactory.sol",
  "compiler": {
    "name": "solc",
    "version": "0.8.10+commit.fc410830.Emscripten.clang"
  },
  "schemaVersion": "3.4.10",
  "updatedAt": "2022-09-21T04:57:24.775Z",
  "devdoc": {
    "kind": "dev",
    "methods": {
      "owner()": {
        "details": "Returns the address of the current owner."
      },
      "renounceOwnership()": {
        "details": "Leaves the contract without owner. It will not be possible to call `onlyOwner` functions anymore. Can only be called by the current owner. NOTE: Renouncing ownership will leave the contract without an owner, thereby removing any functionality that is only available to the owner."
      },
      "transferOwnership(address)": {
        "details": "Transfers ownership of the contract to a new account (`newOwner`). Can only be called by the current owner."
      }
    },
    "version": 1
  },
  "userdoc": {
    "kind": "user",
    "methods": {},
    "notice": "PJT  - Req.1-SC1 DealFactory ",
    "version": 1
  }
}