{
  "contractName": "Deal",
  "abi": [
    {
      "inputs": [
        {
          "internalType": "address",
          "name": "_admin",
          "type": "address"
        },
        {
          "internalType": "address",
          "name": "_seller",
          "type": "address"
        },
        {
          "internalType": "address",
          "name": "_currencyAddress",
          "type": "address"
        },
        {
          "internalType": "address",
          "name": "_nftAddress",
          "type": "address"
        },
        {
          "internalType": "uint256",
          "name": "_tokenId",
          "type": "uint256"
        },
        {
          "internalType": "uint256",
          "name": "_purchasePrice",
          "type": "uint256"
        },
        {
          "internalType": "uint256",
          "name": "startTime",
          "type": "uint256"
        },
        {
          "internalType": "uint256",
          "name": "endTime",
          "type": "uint256"
        }
      ],
      "stateMutability": "nonpayable",
      "type": "constructor"
    },
    {
      "anonymous": false,
      "inputs": [
        {
          "indexed": false,
          "internalType": "address",
          "name": "dealContractAddress",
          "type": "address"
        },
        {
          "indexed": false,
          "internalType": "address",
          "name": "seller",
          "type": "address"
        },
        {
          "indexed": false,
          "internalType": "uint256",
          "name": "tokenId",
          "type": "uint256"
        },
        {
          "indexed": false,
          "internalType": "uint256",
          "name": "amount",
          "type": "uint256"
        }
      ],
      "name": "DealEnded",
      "type": "event"
    },
    {
      "inputs": [],
      "name": "buyer",
      "outputs": [
        {
          "internalType": "address",
          "name": "",
          "type": "address"
        }
      ],
      "stateMutability": "view",
      "type": "function"
    },
    {
      "inputs": [],
      "name": "currencyAddress",
      "outputs": [
        {
          "internalType": "address",
          "name": "",
          "type": "address"
        }
      ],
      "stateMutability": "view",
      "type": "function"
    },
    {
      "inputs": [],
      "name": "dealEndTime",
      "outputs": [
        {
          "internalType": "uint256",
          "name": "",
          "type": "uint256"
        }
      ],
      "stateMutability": "view",
      "type": "function"
    },
    {
      "inputs": [],
      "name": "dealStartTime",
      "outputs": [
        {
          "internalType": "uint256",
          "name": "",
          "type": "uint256"
        }
      ],
      "stateMutability": "view",
      "type": "function"
    },
    {
      "inputs": [],
      "name": "ended",
      "outputs": [
        {
          "internalType": "bool",
          "name": "",
          "type": "bool"
        }
      ],
      "stateMutability": "view",
      "type": "function"
    },
    {
      "inputs": [],
      "name": "erc20Contract",
      "outputs": [
        {
          "internalType": "contract IERC20",
          "name": "",
          "type": "address"
        }
      ],
      "stateMutability": "view",
      "type": "function"
    },
    {
      "inputs": [],
      "name": "erc721Constract",
      "outputs": [
        {
          "internalType": "contract IERC721",
          "name": "",
          "type": "address"
        }
      ],
      "stateMutability": "view",
      "type": "function"
    },
    {
      "inputs": [],
      "name": "nftAddress",
      "outputs": [
        {
          "internalType": "address",
          "name": "",
          "type": "address"
        }
      ],
      "stateMutability": "view",
      "type": "function"
    },
    {
      "inputs": [],
      "name": "purchasePrice",
      "outputs": [
        {
          "internalType": "uint256",
          "name": "",
          "type": "uint256"
        }
      ],
      "stateMutability": "view",
      "type": "function"
    },
    {
      "inputs": [],
      "name": "seller",
      "outputs": [
        {
          "internalType": "address",
          "name": "",
          "type": "address"
        }
      ],
      "stateMutability": "view",
      "type": "function"
    },
    {
      "inputs": [],
      "name": "tokenId",
      "outputs": [
        {
          "internalType": "uint256",
          "name": "",
          "type": "uint256"
        }
      ],
      "stateMutability": "view",
      "type": "function"
    },
    {
      "inputs": [],
      "name": "purchase",
      "outputs": [],
      "stateMutability": "nonpayable",
      "type": "function"
    },
    {
      "inputs": [],
      "name": "confirmItem",
      "outputs": [],
      "stateMutability": "nonpayable",
      "type": "function"
    },
    {
      "inputs": [],
      "name": "cancelDeals",
      "outputs": [
        {
          "internalType": "bool",
          "name": "",
          "type": "bool"
        }
      ],
      "stateMutability": "nonpayable",
      "type": "function"
    },
    {
      "inputs": [],
      "name": "getTimeLeft",
      "outputs": [
        {
          "internalType": "int256",
          "name": "",
          "type": "int256"
        }
      ],
      "stateMutability": "view",
      "type": "function"
    },
    {
      "inputs": [],
      "name": "getDealInfo",
      "outputs": [
        {
          "internalType": "uint256",
          "name": "",
          "type": "uint256"
        },
        {
          "internalType": "uint256",
          "name": "",
          "type": "uint256"
        },
        {
          "internalType": "uint256",
          "name": "",
          "type": "uint256"
        },
        {
          "internalType": "uint256",
          "name": "",
          "type": "uint256"
        },
        {
          "internalType": "address",
          "name": "",
          "type": "address"
        },
        {
          "internalType": "address",
          "name": "",
          "type": "address"
        }
      ],
      "stateMutability": "view",
      "type": "function"
    }
  ],
  "bytecode": "0x60806040523480156200001157600080fd5b5060405162000dd938038062000dd98339818101604052810190620000379190620002b4565b600083116200004557600080fd5b876000806101000a81548173ffffffffffffffffffffffffffffffffffffffff021916908373ffffffffffffffffffffffffffffffffffffffff16021790555086600160006101000a81548173ffffffffffffffffffffffffffffffffffffffff021916908373ffffffffffffffffffffffffffffffffffffffff16021790555085600360006101000a81548173ffffffffffffffffffffffffffffffffffffffff021916908373ffffffffffffffffffffffffffffffffffffffff16021790555084600460006101000a81548173ffffffffffffffffffffffffffffffffffffffff021916908373ffffffffffffffffffffffffffffffffffffffff160217905550836008819055508260078190555081600581905550806006819055506000600960006101000a81548160ff02191690831515021790555085600960016101000a81548173ffffffffffffffffffffffffffffffffffffffff021916908373ffffffffffffffffffffffffffffffffffffffff16021790555084600a60006101000a81548173ffffffffffffffffffffffffffffffffffffffff021916908373ffffffffffffffffffffffffffffffffffffffff16021790555050505050505050506200037d565b600080fd5b600073ffffffffffffffffffffffffffffffffffffffff82169050919050565b6000620002418262000214565b9050919050565b620002538162000234565b81146200025f57600080fd5b50565b600081519050620002738162000248565b92915050565b6000819050919050565b6200028e8162000279565b81146200029a57600080fd5b50565b600081519050620002ae8162000283565b92915050565b600080600080600080600080610100898b031215620002d857620002d76200020f565b5b6000620002e88b828c0162000262565b9850506020620002fb8b828c0162000262565b97505060406200030e8b828c0162000262565b9650506060620003218b828c0162000262565b9550506080620003348b828c016200029d565b94505060a0620003478b828c016200029d565b93505060c06200035a8b828c016200029d565b92505060e06200036d8b828c016200029d565b9150509295985092959890939650565b610a4c806200038d6000396000f3fe608060405234801561001057600080fd5b50600436106101005760003560e01c806364edfbf011610097578063a8f6c91311610066578063a8f6c9131461024a578063c7e284b814610268578063defd6c5f14610286578063ef0a230e146102a457610100565b806364edfbf0146101e15780636b1863b4146101eb5780636d60502f146102095780637150d8ae1461022c57610100565b80631c1cb323116100d35780631c1cb32314610169578063243ce3c2146101875780635bf8633a146101a557806363b63dc8146101c357610100565b806308551a53146101055780630a7f463f1461012357806312fa6feb1461012d57806317d70f7c1461014b575b600080fd5b61010d6102c2565b60405161011a91906106af565b60405180910390f35b61012b6102e8565b005b6101356102ea565b60405161014291906106e5565b60405180910390f35b6101536102fd565b6040516101609190610719565b60405180910390f35b610171610303565b60405161017e91906106af565b60405180910390f35b61018f610329565b60405161019c91906106e5565b60405180910390f35b6101ad61051b565b6040516101ba91906106af565b60405180910390f35b6101cb610541565b6040516101d89190610719565b60405180910390f35b6101e9610547565b005b6101f361054f565b6040516102009190610719565b60405180910390f35b610211610555565b60405161022396959493929190610734565b60405180910390f35b6102346105c4565b60405161024191906106af565b60405180910390f35b6102526105ea565b60405161025f91906107f4565b60405180910390f35b610270610610565b60405161027d9190610828565b60405180910390f35b61028e610625565b60405161029b9190610719565b60405180910390f35b6102ac61062b565b6040516102b99190610864565b60405180910390f35b600160009054906101000a900473ffffffffffffffffffffffffffffffffffffffff1681565b565b600960009054906101000a900460ff1681565b60085481565b600360009054906101000a900473ffffffffffffffffffffffffffffffffffffffff1681565b60008033905060008054906101000a900473ffffffffffffffffffffffffffffffffffffffff1673ffffffffffffffffffffffffffffffffffffffff168173ffffffffffffffffffffffffffffffffffffffff1614806103d65750600160009054906101000a900473ffffffffffffffffffffffffffffffffffffffff1673ffffffffffffffffffffffffffffffffffffffff168173ffffffffffffffffffffffffffffffffffffffff16145b610415576040517f08c379a000000000000000000000000000000000000000000000000000000000815260040161040c906108dc565b60405180910390fd5b600a60009054906101000a900473ffffffffffffffffffffffffffffffffffffffff1673ffffffffffffffffffffffffffffffffffffffff166323b872dd30600160009054906101000a900473ffffffffffffffffffffffffffffffffffffffff166008546040518463ffffffff1660e01b8152600401610498939291906108fc565b600060405180830381600087803b1580156104b257600080fd5b505af11580156104c6573d6000803e3d6000fd5b505050506104d2610651565b7f3ef2284afd6045a363fed2a39814e330369e6fa8216cc00ac2b71e2d194f1a3a306000600854600060405161050b949392919061096e565b60405180910390a1600191505090565b600460009054906101000a900473ffffffffffffffffffffffffffffffffffffffff1681565b60055481565b600033905050565b60065481565b600080600080600080600554600654600754600854600360009054906101000a900473ffffffffffffffffffffffffffffffffffffffff16600460009054906101000a900473ffffffffffffffffffffffffffffffffffffffff16955095509550955095509550909192939495565b600260009054906101000a900473ffffffffffffffffffffffffffffffffffffffff1681565b600960019054906101000a900473ffffffffffffffffffffffffffffffffffffffff1681565b60004260065461062091906109e2565b905090565b60075481565b600a60009054906101000a900473ffffffffffffffffffffffffffffffffffffffff1681565b6001600960006101000a81548160ff021916908315150217905550565b600073ffffffffffffffffffffffffffffffffffffffff82169050919050565b60006106998261066e565b9050919050565b6106a98161068e565b82525050565b60006020820190506106c460008301846106a0565b92915050565b60008115159050919050565b6106df816106ca565b82525050565b60006020820190506106fa60008301846106d6565b92915050565b6000819050919050565b61071381610700565b82525050565b600060208201905061072e600083018461070a565b92915050565b600060c082019050610749600083018961070a565b610756602083018861070a565b610763604083018761070a565b610770606083018661070a565b61077d60808301856106a0565b61078a60a08301846106a0565b979650505050505050565b6000819050919050565b60006107ba6107b56107b08461066e565b610795565b61066e565b9050919050565b60006107cc8261079f565b9050919050565b60006107de826107c1565b9050919050565b6107ee816107d3565b82525050565b600060208201905061080960008301846107e5565b92915050565b6000819050919050565b6108228161080f565b82525050565b600060208201905061083d6000830184610819565b92915050565b600061084e826107c1565b9050919050565b61085e81610843565b82525050565b60006020820190506108796000830184610855565b92915050565b600082825260208201905092915050565b7f446f206e6f7420616c6c6f776564207065726d697373696f6e00000000000000600082015250565b60006108c660198361087f565b91506108d182610890565b602082019050919050565b600060208201905081810360008301526108f5816108b9565b9050919050565b600060608201905061091160008301866106a0565b61091e60208301856106a0565b61092b604083018461070a565b949350505050565b6000819050919050565b600061095861095361094e84610933565b610795565b610700565b9050919050565b6109688161093d565b82525050565b600060808201905061098360008301876106a0565b61099060208301866106a0565b61099d604083018561070a565b6109aa606083018461095f565b95945050505050565b7f4e487b7100000000000000000000000000000000000000000000000000000000600052601160045260246000fd5b60006109ed82610700565b91506109f883610700565b925082821015610a0b57610a0a6109b3565b5b82820390509291505056fea2646970667358221220402f10c5a4942696a59b277eccead8cfaa599e666090f04d2e0db4138f90bd1a64736f6c634300080a0033",
  "immutableReferences": {},
  "source": "// SPDX-License-Identifier: MIT\r\npragma solidity >=0.7.0 <0.9.0;\r\n\r\nimport \"./access/Ownable.sol\";\r\nimport \"./token/ERC20/ERC20.sol\";\r\nimport \"./token/ERC721/ERC721.sol\";\r\nimport \"./SsafyNFT.sol\";\r\nimport \"./SsafyToken.sol\";\r\nimport \"./NFT.sol\";\r\n\r\n/**\r\n * PJT  - Req.1-SC1 DealFactory \r\n */\r\ncontract DealFactory is Ownable {\r\n    address public admin;\r\n    address[] public deals;\r\n\r\n    IERC20 public erc20Contract;\r\n    IERC721 public erc721Contract;\r\n\r\n    event NewDeal(\r\n        address indexed _dealContract,\r\n        address indexed _owner,\r\n        uint256 _workId\r\n    );\r\n\r\n    event UpdateDealCreated(\r\n        address dealContractAddress,\r\n        address seller,\r\n        address currencyAddress,\r\n        uint256 tokenId,\r\n        uint256 purchasePrice,\r\n        uint256 dealstartTime,\r\n        uint256 dealendTime\r\n    );\r\n\r\n    constructor(address _currencyAddress, address _NFTmintAddress) {\r\n        admin = msg.sender;\r\n      \r\n        erc20Contract = IERC20(_currencyAddress);\r\n        erc721Contract = IERC721(_NFTmintAddress);\r\n    }\r\n\r\n    function getDealAddress(uint256 tokenId) public view returns(address){\r\n        return deals[tokenId];\r\n    }\r\n\r\n    function createDeal(\r\n        address nftAddress,\r\n        address seller,\r\n        address currencyAddress,\r\n        uint256 tokenId,\r\n        uint256 purchasePrice,\r\n        uint256 startTime,\r\n        uint256 endTime\r\n    ) public returns (Deal updateDealContract) {\r\n        // TODO\r\n        erc20Contract = IERC20(currencyAddress);\r\n        erc721Contract = IERC721(nftAddress);\r\n\r\n        erc721Contract.transferFrom(seller, address(this), tokenId);\r\n\r\n        updateDealContract = new Deal (\r\n            admin,\r\n            seller,\r\n            currencyAddress,\r\n            nftAddress,\r\n            tokenId,\r\n            purchasePrice,\r\n            startTime,\r\n            endTime\r\n        );\r\n\r\n        erc721Contract.transferFrom(address(this), address(updateDealContract), tokenId);\r\n\r\n        deals[tokenId] = address(updateDealContract);\r\n\r\n        emit UpdateDealCreated(address(updateDealContract), seller, currencyAddress, tokenId, purchasePrice, startTime, endTime);\r\n        \r\n        return updateDealContract;\r\n    }\r\n\r\n    function allDeals() public view returns (address[] memory) {\r\n        return deals;\r\n    }\r\n}\r\n\r\n\r\ncontract Deal {\r\n    //    \r\n    address admin;\r\n    address public seller;\r\n    address public buyer;\r\n    address public currencyAddress;\r\n    address public nftAddress;\r\n    uint256 public dealStartTime;\r\n    uint256 public dealEndTime;\r\n    uint256 public purchasePrice;\r\n    uint256 public tokenId;\r\n    bool public ended;\r\n\r\n    IERC20 public erc20Contract;\r\n    IERC721 public erc721Constract;\r\n\r\n    event DealEnded(\r\n        address dealContractAddress,\r\n        address seller,\r\n        uint256 tokenId,\r\n        uint256 amount\r\n        );\r\n\r\n    constructor(\r\n        address _admin,\r\n        address _seller,\r\n        address _currencyAddress,\r\n        address _nftAddress,\r\n        uint256 _tokenId,\r\n        uint256 _purchasePrice,\r\n        uint256 startTime,\r\n        uint256 endTime\r\n    ) {\r\n        require(_purchasePrice > 0);\r\n        admin = _admin;\r\n        seller = _seller;\r\n        currencyAddress = _currencyAddress;\r\n        nftAddress = _nftAddress;\r\n        tokenId = _tokenId;\r\n        purchasePrice = _purchasePrice;\r\n        dealStartTime = startTime;\r\n        dealEndTime = endTime;\r\n        ended = false;\r\n        erc20Contract = IERC20(_currencyAddress);\r\n        erc721Constract = IERC721(_nftAddress);\r\n    }\r\n\r\n    function purchase() public {\r\n        // TODO\r\n        address _puchaser = msg.sender;\r\n    }\r\n\r\n    function confirmItem() public {\r\n        // TODO \r\n    }\r\n    \r\n    function cancelDeals() public returns(bool) {\r\n        address request = msg.sender;\r\n        require(request == admin || request == seller, \"Do not allowed permission\");\r\n\r\n        erc721Constract.transferFrom(address(this), seller, tokenId);\r\n        _end();\r\n\r\n        emit DealEnded(address(this), address(0), tokenId,0);\r\n        return true;\r\n    }\r\n\r\n    function getTimeLeft() public view returns (int256) {\r\n        return (int256)(dealEndTime - block.timestamp);\r\n    }\r\n\r\n    function getDealInfo()\r\n        public\r\n        view\r\n        returns (\r\n            uint256,\r\n            uint256,\r\n            uint256,\r\n            uint256,\r\n            address,\r\n            address\r\n        )\r\n    {\r\n        return (\r\n            dealStartTime,\r\n            dealEndTime,\r\n            purchasePrice,\r\n            tokenId,\r\n            currencyAddress,\r\n            nftAddress\r\n        );\r\n    }\r\n\r\n    // internal  private     _  .\r\n    function _end() internal {\r\n        ended = true;\r\n    }\r\n\r\n    function _getCurrencyAmount() private view returns (uint256) {\r\n        return erc20Contract.balanceOf(msg.sender);\r\n    }\r\n\r\n    // modifier       . \r\n    modifier onlySeller() {\r\n        require(msg.sender == seller, \"Deal: You are not seller.\");\r\n        _;\r\n    }\r\n\r\n    modifier onlyAfterStart() {\r\n        require(\r\n            block.timestamp >= dealStartTime,\r\n            \"Deal: This Deal is not started.\"\r\n        );\r\n        _;\r\n    }\r\n}\r\n",
  "sourcePath": "C:\\Users\\SSAFY\\Desktop\\smartcontract\\S07P22A608\\smart-contracts\\contracts\\DealFactory.sol",
  "compiler": {
    "name": "solc",
    "version": "0.8.10+commit.fc410830.Emscripten.clang"
  },
  "schemaVersion": "3.4.10",
  "updatedAt": "2022-09-21T04:57:24.766Z",
  "devdoc": {
    "kind": "dev",
    "methods": {},
    "version": 1
  },
  "userdoc": {
    "kind": "user",
    "methods": {},
    "version": 1
  }
}