{
  "contractName": "NFT",
  "abi": [
    {
      "inputs": [
        {
          "internalType": "string",
          "name": "_name",
          "type": "string"
        },
        {
          "internalType": "string",
          "name": "_symbol",
          "type": "string"
        },
        {
          "internalType": "string",
          "name": "_initBaseURI",
          "type": "string"
        }
      ],
      "stateMutability": "nonpayable",
      "type": "constructor"
    },
    {
      "anonymous": false,
      "inputs": [
        {
          "indexed": true,
          "internalType": "address",
          "name": "owner",
          "type": "address"
        },
        {
          "indexed": true,
          "internalType": "address",
          "name": "approved",
          "type": "address"
        },
        {
          "indexed": true,
          "internalType": "uint256",
          "name": "tokenId",
          "type": "uint256"
        }
      ],
      "name": "Approval",
      "type": "event"
    },
    {
      "anonymous": false,
      "inputs": [
        {
          "indexed": true,
          "internalType": "address",
          "name": "owner",
          "type": "address"
        },
        {
          "indexed": true,
          "internalType": "address",
          "name": "operator",
          "type": "address"
        },
        {
          "indexed": false,
          "internalType": "bool",
          "name": "approved",
          "type": "bool"
        }
      ],
      "name": "ApprovalForAll",
      "type": "event"
    },
    {
      "anonymous": false,
      "inputs": [
        {
          "indexed": true,
          "internalType": "address",
          "name": "previousOwner",
          "type": "address"
        },
        {
          "indexed": true,
          "internalType": "address",
          "name": "newOwner",
          "type": "address"
        }
      ],
      "name": "OwnershipTransferred",
      "type": "event"
    },
    {
      "anonymous": false,
      "inputs": [
        {
          "indexed": true,
          "internalType": "address",
          "name": "from",
          "type": "address"
        },
        {
          "indexed": true,
          "internalType": "address",
          "name": "to",
          "type": "address"
        },
        {
          "indexed": true,
          "internalType": "uint256",
          "name": "tokenId",
          "type": "uint256"
        }
      ],
      "name": "Transfer",
      "type": "event"
    },
    {
      "inputs": [
        {
          "internalType": "address",
          "name": "to",
          "type": "address"
        },
        {
          "internalType": "uint256",
          "name": "tokenId",
          "type": "uint256"
        }
      ],
      "name": "approve",
      "outputs": [],
      "stateMutability": "nonpayable",
      "type": "function"
    },
    {
      "inputs": [
        {
          "internalType": "address",
          "name": "owner",
          "type": "address"
        }
      ],
      "name": "balanceOf",
      "outputs": [
        {
          "internalType": "uint256",
          "name": "",
          "type": "uint256"
        }
      ],
      "stateMutability": "view",
      "type": "function"
    },
    {
      "inputs": [],
      "name": "baseExtension",
      "outputs": [
        {
          "internalType": "string",
          "name": "",
          "type": "string"
        }
      ],
      "stateMutability": "view",
      "type": "function"
    },
    {
      "inputs": [],
      "name": "baseURI",
      "outputs": [
        {
          "internalType": "string",
          "name": "",
          "type": "string"
        }
      ],
      "stateMutability": "view",
      "type": "function"
    },
    {
      "inputs": [],
      "name": "cost",
      "outputs": [
        {
          "internalType": "uint256",
          "name": "",
          "type": "uint256"
        }
      ],
      "stateMutability": "view",
      "type": "function"
    },
    {
      "inputs": [],
      "name": "count",
      "outputs": [
        {
          "internalType": "uint256",
          "name": "",
          "type": "uint256"
        }
      ],
      "stateMutability": "view",
      "type": "function"
    },
    {
      "inputs": [
        {
          "internalType": "uint256",
          "name": "tokenId",
          "type": "uint256"
        }
      ],
      "name": "getApproved",
      "outputs": [
        {
          "internalType": "address",
          "name": "",
          "type": "address"
        }
      ],
      "stateMutability": "view",
      "type": "function"
    },
    {
      "inputs": [
        {
          "internalType": "address",
          "name": "owner",
          "type": "address"
        },
        {
          "internalType": "address",
          "name": "operator",
          "type": "address"
        }
      ],
      "name": "isApprovedForAll",
      "outputs": [
        {
          "internalType": "bool",
          "name": "",
          "type": "bool"
        }
      ],
      "stateMutability": "view",
      "type": "function"
    },
    {
      "inputs": [],
      "name": "maxMintAmount",
      "outputs": [
        {
          "internalType": "uint256",
          "name": "",
          "type": "uint256"
        }
      ],
      "stateMutability": "view",
      "type": "function"
    },
    {
      "inputs": [],
      "name": "maxSupply",
      "outputs": [
        {
          "internalType": "uint256",
          "name": "",
          "type": "uint256"
        }
      ],
      "stateMutability": "view",
      "type": "function"
    },
    {
      "inputs": [],
      "name": "name",
      "outputs": [
        {
          "internalType": "string",
          "name": "",
          "type": "string"
        }
      ],
      "stateMutability": "view",
      "type": "function"
    },
    {
      "inputs": [],
      "name": "owner",
      "outputs": [
        {
          "internalType": "address",
          "name": "",
          "type": "address"
        }
      ],
      "stateMutability": "view",
      "type": "function"
    },
    {
      "inputs": [
        {
          "internalType": "uint256",
          "name": "tokenId",
          "type": "uint256"
        }
      ],
      "name": "ownerOf",
      "outputs": [
        {
          "internalType": "address",
          "name": "",
          "type": "address"
        }
      ],
      "stateMutability": "view",
      "type": "function"
    },
    {
      "inputs": [],
      "name": "paused",
      "outputs": [
        {
          "internalType": "bool",
          "name": "",
          "type": "bool"
        }
      ],
      "stateMutability": "view",
      "type": "function"
    },
    {
      "inputs": [],
      "name": "renounceOwnership",
      "outputs": [],
      "stateMutability": "nonpayable",
      "type": "function"
    },
    {
      "inputs": [
        {
          "internalType": "address",
          "name": "from",
          "type": "address"
        },
        {
          "internalType": "address",
          "name": "to",
          "type": "address"
        },
        {
          "internalType": "uint256",
          "name": "tokenId",
          "type": "uint256"
        }
      ],
      "name": "safeTransferFrom",
      "outputs": [],
      "stateMutability": "nonpayable",
      "type": "function"
    },
    {
      "inputs": [
        {
          "internalType": "address",
          "name": "from",
          "type": "address"
        },
        {
          "internalType": "address",
          "name": "to",
          "type": "address"
        },
        {
          "internalType": "uint256",
          "name": "tokenId",
          "type": "uint256"
        },
        {
          "internalType": "bytes",
          "name": "data",
          "type": "bytes"
        }
      ],
      "name": "safeTransferFrom",
      "outputs": [],
      "stateMutability": "nonpayable",
      "type": "function"
    },
    {
      "inputs": [
        {
          "internalType": "address",
          "name": "operator",
          "type": "address"
        },
        {
          "internalType": "bool",
          "name": "approved",
          "type": "bool"
        }
      ],
      "name": "setApprovalForAll",
      "outputs": [],
      "stateMutability": "nonpayable",
      "type": "function"
    },
    {
      "inputs": [
        {
          "internalType": "bytes4",
          "name": "interfaceId",
          "type": "bytes4"
        }
      ],
      "name": "supportsInterface",
      "outputs": [
        {
          "internalType": "bool",
          "name": "",
          "type": "bool"
        }
      ],
      "stateMutability": "view",
      "type": "function"
    },
    {
      "inputs": [],
      "name": "symbol",
      "outputs": [
        {
          "internalType": "string",
          "name": "",
          "type": "string"
        }
      ],
      "stateMutability": "view",
      "type": "function"
    },
    {
      "inputs": [
        {
          "internalType": "uint256",
          "name": "index",
          "type": "uint256"
        }
      ],
      "name": "tokenByIndex",
      "outputs": [
        {
          "internalType": "uint256",
          "name": "",
          "type": "uint256"
        }
      ],
      "stateMutability": "view",
      "type": "function"
    },
    {
      "inputs": [
        {
          "internalType": "address",
          "name": "owner",
          "type": "address"
        },
        {
          "internalType": "uint256",
          "name": "index",
          "type": "uint256"
        }
      ],
      "name": "tokenOfOwnerByIndex",
      "outputs": [
        {
          "internalType": "uint256",
          "name": "",
          "type": "uint256"
        }
      ],
      "stateMutability": "view",
      "type": "function"
    },
    {
      "inputs": [],
      "name": "totalSupply",
      "outputs": [
        {
          "internalType": "uint256",
          "name": "",
          "type": "uint256"
        }
      ],
      "stateMutability": "view",
      "type": "function"
    },
    {
      "inputs": [
        {
          "internalType": "address",
          "name": "from",
          "type": "address"
        },
        {
          "internalType": "address",
          "name": "to",
          "type": "address"
        },
        {
          "internalType": "uint256",
          "name": "tokenId",
          "type": "uint256"
        }
      ],
      "name": "transferFrom",
      "outputs": [],
      "stateMutability": "nonpayable",
      "type": "function"
    },
    {
      "inputs": [
        {
          "internalType": "address",
          "name": "newOwner",
          "type": "address"
        }
      ],
      "name": "transferOwnership",
      "outputs": [],
      "stateMutability": "nonpayable",
      "type": "function"
    },
    {
      "inputs": [],
      "name": "useMint",
      "outputs": [],
      "stateMutability": "payable",
      "type": "function"
    },
    {
      "inputs": [
        {
          "internalType": "address",
          "name": "_to",
          "type": "address"
        },
        {
          "internalType": "uint256",
          "name": "_mintAmount",
          "type": "uint256"
        }
      ],
      "name": "mint",
      "outputs": [],
      "stateMutability": "payable",
      "type": "function"
    },
    {
      "inputs": [
        {
          "internalType": "address",
          "name": "_owner",
          "type": "address"
        }
      ],
      "name": "walletOfOwner",
      "outputs": [
        {
          "internalType": "uint256[]",
          "name": "",
          "type": "uint256[]"
        }
      ],
      "stateMutability": "view",
      "type": "function"
    },
    {
      "inputs": [
        {
          "internalType": "uint256",
          "name": "tokenId",
          "type": "uint256"
        }
      ],
      "name": "tokenURI",
      "outputs": [
        {
          "internalType": "string",
          "name": "",
          "type": "string"
        }
      ],
      "stateMutability": "view",
      "type": "function"
    },
    {
      "inputs": [
        {
          "internalType": "uint256",
          "name": "_newCost",
          "type": "uint256"
        }
      ],
      "name": "setCost",
      "outputs": [],
      "stateMutability": "nonpayable",
      "type": "function"
    },
    {
      "inputs": [
        {
          "internalType": "uint256",
          "name": "_newmaxMintAmount",
          "type": "uint256"
        }
      ],
      "name": "setmaxMintAmount",
      "outputs": [],
      "stateMutability": "nonpayable",
      "type": "function"
    },
    {
      "inputs": [
        {
          "internalType": "string",
          "name": "_newBaseURI",
          "type": "string"
        }
      ],
      "name": "setBaseURI",
      "outputs": [],
      "stateMutability": "nonpayable",
      "type": "function"
    },
    {
      "inputs": [
        {
          "internalType": "string",
          "name": "_newBaseExtension",
          "type": "string"
        }
      ],
      "name": "setBaseExtension",
      "outputs": [],
      "stateMutability": "nonpayable",
      "type": "function"
    },
    {
      "inputs": [
        {
          "internalType": "bool",
          "name": "_state",
          "type": "bool"
        }
      ],
      "name": "pause",
      "outputs": [],
      "stateMutability": "nonpayable",
      "type": "function"
    },
    {
      "inputs": [],
      "name": "withdraw",
      "outputs": [],
      "stateMutability": "payable",
      "type": "function"
    }
  ],
  "bytecode": "0x60806040526040518060400160405280600581526020017f2e6a736f6e000000000000000000000000000000000000000000000000000000815250600c90805190602001906200005192919062000eaa565b5066b1a2bc2ec50000600d55612710600e556014600f5560016010556000601160006101000a81548160ff0219169083151502179055503480156200009557600080fd5b5060405162005b0b38038062005b0b8339818101604052810190620000bb9190620010f7565b82828160009080519060200190620000d592919062000eaa565b508060019080519060200190620000ee92919062000eaa565b50505062000111620001056200013f60201b60201c565b6200014760201b60201c565b62000122816200020d60201b60201c565b6200013633601054620002b860201b60201c565b50505062001892565b600033905090565b6000600a60009054906101000a900473ffffffffffffffffffffffffffffffffffffffff16905081600a60006101000a81548173ffffffffffffffffffffffffffffffffffffffff021916908373ffffffffffffffffffffffffffffffffffffffff1602179055508173ffffffffffffffffffffffffffffffffffffffff168173ffffffffffffffffffffffffffffffffffffffff167f8be0079c531659141344cd1fd0a4f28419497f9722a3daafe3b4186f6b6457e060405160405180910390a35050565b6200021d6200013f60201b60201c565b73ffffffffffffffffffffffffffffffffffffffff16620002436200041f60201b60201c565b73ffffffffffffffffffffffffffffffffffffffff16146200029c576040517f08c379a0000000000000000000000000000000000000000000000000000000008152600401620002939062001211565b60405180910390fd5b80600b9080519060200190620002b492919062000eaa565b5050565b6000620002ca6200044960201b60201c565b9050601160009054906101000a900460ff1615620002e757600080fd5b60008211620002f557600080fd5b600f548211156200033d576040517f08c379a0000000000000000000000000000000000000000000000000000000008152600401620003349062001283565b60405180910390fd5b600e5482826200034e9190620012de565b11156200035a57600080fd5b6200036a6200041f60201b60201c565b73ffffffffffffffffffffffffffffffffffffffff163373ffffffffffffffffffffffffffffffffffffffff1614620003bb5781600d54620003ad91906200133b565b341015620003ba57600080fd5b5b6000600190505b828111620003ff57620003e9848284620003dd9190620012de565b6200045660201b60201c565b8080620003f6906200139c565b915050620003c2565b506010600081548092919062000415906200139c565b9190505550505050565b6000600a60009054906101000a900473ffffffffffffffffffffffffffffffffffffffff16905090565b6000600880549050905090565b620004788282604051806020016040528060008152506200047c60201b60201c565b5050565b6200048e8383620004ea60201b60201c565b620004a360008484846200072d60201b60201c565b620004e5576040517f08c379a0000000000000000000000000000000000000000000000000000000008152600401620004dc9062001460565b60405180910390fd5b505050565b600073ffffffffffffffffffffffffffffffffffffffff168273ffffffffffffffffffffffffffffffffffffffff1614156200055d576040517f08c379a00000000000000000000000000000000000000000000000000000000081526004016200055490620014d2565b60405180910390fd5b6200056e81620008d760201b60201c565b15620005b1576040517f08c379a0000000000000000000000000000000000000000000000000000000008152600401620005a89062001544565b60405180910390fd5b620005c5600083836200092060201b60201c565b620005d681620008d760201b60201c565b1562000619576040517f08c379a0000000000000000000000000000000000000000000000000000000008152600401620006109062001544565b60405180910390fd5b6001600360008473ffffffffffffffffffffffffffffffffffffffff1673ffffffffffffffffffffffffffffffffffffffff16815260200190815260200160002060008282540192505081905550816002600083815260200190815260200160002060006101000a81548173ffffffffffffffffffffffffffffffffffffffff021916908373ffffffffffffffffffffffffffffffffffffffff160217905550808273ffffffffffffffffffffffffffffffffffffffff16600073ffffffffffffffffffffffffffffffffffffffff167fddf252ad1be2c89b69c2b068fc378daa952ba7f163c4a11628f55a4df523b3ef60405160405180910390a4620007296000838362000a6760201b60201c565b5050565b60006200075b8473ffffffffffffffffffffffffffffffffffffffff1662000a6c60201b620018fd1760201c565b15620008ca578373ffffffffffffffffffffffffffffffffffffffff1663150b7a026200078d6200013f60201b60201c565b8786866040518563ffffffff1660e01b8152600401620007b1949392919062001619565b6020604051808303816000875af1925050508015620007f057506040513d601f19601f82011682018060405250810190620007ed9190620016ca565b60015b62000879573d806000811462000823576040519150601f19603f3d011682016040523d82523d6000602084013e62000828565b606091505b5060008151141562000871576040517f08c379a0000000000000000000000000000000000000000000000000000000008152600401620008689062001460565b60405180910390fd5b805181602001fd5b63150b7a0260e01b7bffffffffffffffffffffffffffffffffffffffffffffffffffffffff1916817bffffffffffffffffffffffffffffffffffffffffffffffffffffffff191614915050620008cf565b600190505b949350505050565b60008073ffffffffffffffffffffffffffffffffffffffff16620009018362000a7f60201b60201c565b73ffffffffffffffffffffffffffffffffffffffff1614159050919050565b6200093883838362000abc60201b620019101760201c565b600073ffffffffffffffffffffffffffffffffffffffff168373ffffffffffffffffffffffffffffffffffffffff16141562000985576200097f8162000ac160201b60201c565b620009cd565b8173ffffffffffffffffffffffffffffffffffffffff168373ffffffffffffffffffffffffffffffffffffffff1614620009cc57620009cb838262000b0a60201b60201c565b5b5b600073ffffffffffffffffffffffffffffffffffffffff168273ffffffffffffffffffffffffffffffffffffffff16141562000a1a5762000a148162000c8760201b60201c565b62000a62565b8273ffffffffffffffffffffffffffffffffffffffff168273ffffffffffffffffffffffffffffffffffffffff161462000a615762000a60828262000d6360201b60201c565b5b5b505050565b505050565b600080823b905060008111915050919050565b60006002600083815260200190815260200160002060009054906101000a900473ffffffffffffffffffffffffffffffffffffffff169050919050565b505050565b6008805490506009600083815260200190815260200160002081905550600881908060018154018082558091505060019003906000526020600020016000909190919091505550565b6000600162000b248462000def60201b620012951760201c565b62000b309190620016fc565b905060006007600084815260200190815260200160002054905081811462000c16576000600660008673ffffffffffffffffffffffffffffffffffffffff1673ffffffffffffffffffffffffffffffffffffffff168152602001908152602001600020600084815260200190815260200160002054905080600660008773ffffffffffffffffffffffffffffffffffffffff1673ffffffffffffffffffffffffffffffffffffffff168152602001908152602001600020600084815260200190815260200160002081905550816007600083815260200190815260200160002081905550505b6007600084815260200190815260200160002060009055600660008573ffffffffffffffffffffffffffffffffffffffff1673ffffffffffffffffffffffffffffffffffffffff16815260200190815260200160002060008381526020019081526020016000206000905550505050565b6000600160088054905062000c9d9190620016fc565b905060006009600084815260200190815260200160002054905060006008838154811062000cd05762000ccf62001737565b5b90600052602060002001549050806008838154811062000cf55762000cf462001737565b5b90600052602060002001819055508160096000838152602001908152602001600020819055506009600085815260200190815260200160002060009055600880548062000d475762000d4662001766565b5b6001900381819060005260206000200160009055905550505050565b600062000d7b8362000def60201b620012951760201c565b905081600660008573ffffffffffffffffffffffffffffffffffffffff1673ffffffffffffffffffffffffffffffffffffffff168152602001908152602001600020600083815260200190815260200160002081905550806007600084815260200190815260200160002081905550505050565b60008073ffffffffffffffffffffffffffffffffffffffff168273ffffffffffffffffffffffffffffffffffffffff16141562000e63576040517f08c379a000000000000000000000000000000000000000000000000000000000815260040162000e5a906200180b565b60405180910390fd5b600360008373ffffffffffffffffffffffffffffffffffffffff1673ffffffffffffffffffffffffffffffffffffffff168152602001908152602001600020549050919050565b82805462000eb8906200185c565b90600052602060002090601f01602090048101928262000edc576000855562000f28565b82601f1062000ef757805160ff191683800117855562000f28565b8280016001018555821562000f28579182015b8281111562000f2757825182559160200191906001019062000f0a565b5b50905062000f37919062000f3b565b5090565b5b8082111562000f5657600081600090555060010162000f3c565b5090565b6000604051905090565b600080fd5b600080fd5b600080fd5b600080fd5b6000601f19601f8301169050919050565b7f4e487b7100000000000000000000000000000000000000000000000000000000600052604160045260246000fd5b62000fc38262000f78565b810181811067ffffffffffffffff8211171562000fe55762000fe462000f89565b5b80604052505050565b600062000ffa62000f5a565b905062001008828262000fb8565b919050565b600067ffffffffffffffff8211156200102b576200102a62000f89565b5b620010368262000f78565b9050602081019050919050565b60005b838110156200106357808201518184015260208101905062001046565b8381111562001073576000848401525b50505050565b6000620010906200108a846200100d565b62000fee565b905082815260208101848484011115620010af57620010ae62000f73565b5b620010bc84828562001043565b509392505050565b600082601f830112620010dc57620010db62000f6e565b5b8151620010ee84826020860162001079565b91505092915050565b60008060006060848603121562001113576200111262000f64565b5b600084015167ffffffffffffffff81111562001134576200113362000f69565b5b6200114286828701620010c4565b935050602084015167ffffffffffffffff81111562001166576200116562000f69565b5b6200117486828701620010c4565b925050604084015167ffffffffffffffff81111562001198576200119762000f69565b5b620011a686828701620010c4565b9150509250925092565b600082825260208201905092915050565b7f4f776e61626c653a2063616c6c6572206973206e6f7420746865206f776e6572600082015250565b6000620011f9602083620011b0565b91506200120682620011c1565b602082019050919050565b600060208201905081810360008301526200122c81620011ea565b9050919050565b7f6572720000000000000000000000000000000000000000000000000000000000600082015250565b60006200126b600383620011b0565b9150620012788262001233565b602082019050919050565b600060208201905081810360008301526200129e816200125c565b9050919050565b6000819050919050565b7f4e487b7100000000000000000000000000000000000000000000000000000000600052601160045260246000fd5b6000620012eb82620012a5565b9150620012f883620012a5565b9250827fffffffffffffffffffffffffffffffffffffffffffffffffffffffffffffffff0382111562001330576200132f620012af565b5b828201905092915050565b60006200134882620012a5565b91506200135583620012a5565b9250817fffffffffffffffffffffffffffffffffffffffffffffffffffffffffffffffff0483118215151615620013915762001390620012af565b5b828202905092915050565b6000620013a982620012a5565b91507fffffffffffffffffffffffffffffffffffffffffffffffffffffffffffffffff821415620013df57620013de620012af565b5b600182019050919050565b7f4552433732313a207472616e7366657220746f206e6f6e20455243373231526560008201527f63656976657220696d706c656d656e7465720000000000000000000000000000602082015250565b600062001448603283620011b0565b91506200145582620013ea565b604082019050919050565b600060208201905081810360008301526200147b8162001439565b9050919050565b7f4552433732313a206d696e7420746f20746865207a65726f2061646472657373600082015250565b6000620014ba602083620011b0565b9150620014c78262001482565b602082019050919050565b60006020820190508181036000830152620014ed81620014ab565b9050919050565b7f4552433732313a20746f6b656e20616c7265616479206d696e74656400000000600082015250565b60006200152c601c83620011b0565b91506200153982620014f4565b602082019050919050565b600060208201905081810360008301526200155f816200151d565b9050919050565b600073ffffffffffffffffffffffffffffffffffffffff82169050919050565b6000620015938262001566565b9050919050565b620015a58162001586565b82525050565b620015b681620012a5565b82525050565b600081519050919050565b600082825260208201905092915050565b6000620015e582620015bc565b620015f18185620015c7565b93506200160381856020860162001043565b6200160e8162000f78565b840191505092915050565b60006080820190506200163060008301876200159a565b6200163f60208301866200159a565b6200164e6040830185620015ab565b8181036060830152620016628184620015d8565b905095945050505050565b60007fffffffff0000000000000000000000000000000000000000000000000000000082169050919050565b620016a4816200166d565b8114620016b057600080fd5b50565b600081519050620016c48162001699565b92915050565b600060208284031215620016e357620016e262000f64565b5b6000620016f384828501620016b3565b91505092915050565b60006200170982620012a5565b91506200171683620012a5565b9250828210156200172c576200172b620012af565b5b828203905092915050565b7f4e487b7100000000000000000000000000000000000000000000000000000000600052603260045260246000fd5b7f4e487b7100000000000000000000000000000000000000000000000000000000600052603160045260246000fd5b7f4552433732313a2061646472657373207a65726f206973206e6f74206120766160008201527f6c6964206f776e65720000000000000000000000000000000000000000000000602082015250565b6000620017f3602983620011b0565b9150620018008262001795565b604082019050919050565b600060208201905081810360008301526200182681620017e4565b9050919050565b7f4e487b7100000000000000000000000000000000000000000000000000000000600052602260045260246000fd5b600060028204905060018216806200187557607f821691505b602082108114156200188c576200188b6200182d565b5b50919050565b61426980620018a26000396000f3fe6080604052600436106102045760003560e01c806355f804b311610118578063a22cb465116100a0578063d5abeb011161006f578063d5abeb011461074d578063da3ef23f14610778578063e985e9c5146107a1578063f2fde38b146107de578063f43db9c41461080757610204565b8063a22cb46514610693578063b88d4fde146106bc578063c6682862146106e5578063c87b56dd1461071057610204565b806370a08231116100e757806370a08231146105c0578063715018a6146105fd5780637f00c7a6146106145780638da5cb5b1461063d57806395d89b411461066857610204565b806355f804b3146105045780635c975abb1461052d5780636352211e146105585780636c0360eb1461059557610204565b8063239c70ae1161019b57806340c10f191161016a57806340c10f191461041c57806342842e0e14610438578063438b63001461046157806344a0d68a1461049e5780634f6ccce7146104c757610204565b8063239c70ae1461038157806323b872dd146103ac5780632f745c59146103d55780633ccfd60b1461041257610204565b8063081812fc116101d7578063081812fc146102c5578063095ea7b31461030257806313faede61461032b57806318160ddd1461035657610204565b806301ffc9a71461020957806302329a291461024657806306661abd1461026f57806306fdde031461029a575b600080fd5b34801561021557600080fd5b50610230600480360381019061022b9190612d41565b610811565b60405161023d9190612d89565b60405180910390f35b34801561025257600080fd5b5061026d60048036038101906102689190612dd0565b61088b565b005b34801561027b57600080fd5b50610284610924565b6040516102919190612e16565b60405180910390f35b3480156102a657600080fd5b506102af61092a565b6040516102bc9190612eca565b60405180910390f35b3480156102d157600080fd5b506102ec60048036038101906102e79190612f18565b6109bc565b6040516102f99190612f86565b60405180910390f35b34801561030e57600080fd5b5061032960048036038101906103249190612fcd565b610a02565b005b34801561033757600080fd5b50610340610b1a565b60405161034d9190612e16565b60405180910390f35b34801561036257600080fd5b5061036b610b20565b6040516103789190612e16565b60405180910390f35b34801561038d57600080fd5b50610396610b2d565b6040516103a39190612e16565b60405180910390f35b3480156103b857600080fd5b506103d360048036038101906103ce919061300d565b610b33565b005b3480156103e157600080fd5b506103fc60048036038101906103f79190612fcd565b610b93565b6040516104099190612e16565b60405180910390f35b61041a610c38565b005b61043660048036038101906104319190612fcd565b610dd7565b005b34801561044457600080fd5b5061045f600480360381019061045a919061300d565b610f12565b005b34801561046d57600080fd5b5061048860048036038101906104839190613060565b610f32565b604051610495919061314b565b60405180910390f35b3480156104aa57600080fd5b506104c560048036038101906104c09190612f18565b610fe0565b005b3480156104d357600080fd5b506104ee60048036038101906104e99190612f18565b611066565b6040516104fb9190612e16565b60405180910390f35b34801561051057600080fd5b5061052b600480360381019061052691906132a2565b6110d7565b005b34801561053957600080fd5b5061054261116d565b60405161054f9190612d89565b60405180910390f35b34801561056457600080fd5b5061057f600480360381019061057a9190612f18565b611180565b60405161058c9190612f86565b60405180910390f35b3480156105a157600080fd5b506105aa611207565b6040516105b79190612eca565b60405180910390f35b3480156105cc57600080fd5b506105e760048036038101906105e29190613060565b611295565b6040516105f49190612e16565b60405180910390f35b34801561060957600080fd5b5061061261134d565b005b34801561062057600080fd5b5061063b60048036038101906106369190612f18565b6113d5565b005b34801561064957600080fd5b5061065261145b565b60405161065f9190612f86565b60405180910390f35b34801561067457600080fd5b5061067d611485565b60405161068a9190612eca565b60405180910390f35b34801561069f57600080fd5b506106ba60048036038101906106b591906132eb565b611517565b005b3480156106c857600080fd5b506106e360048036038101906106de91906133cc565b61152d565b005b3480156106f157600080fd5b506106fa61158f565b6040516107079190612eca565b60405180910390f35b34801561071c57600080fd5b5061073760048036038101906107329190612f18565b61161d565b6040516107449190612eca565b60405180910390f35b34801561075957600080fd5b506107626116c7565b60405161076f9190612e16565b60405180910390f35b34801561078457600080fd5b5061079f600480360381019061079a91906132a2565b6116cd565b005b3480156107ad57600080fd5b506107c860048036038101906107c3919061344f565b611763565b6040516107d59190612d89565b60405180910390f35b3480156107ea57600080fd5b5061080560048036038101906108009190613060565b6117f7565b005b61080f6118ef565b005b60007f780e9d63000000000000000000000000000000000000000000000000000000007bffffffffffffffffffffffffffffffffffffffffffffffffffffffff1916827bffffffffffffffffffffffffffffffffffffffffffffffffffffffff19161480610884575061088382611915565b5b9050919050565b6108936119f7565b73ffffffffffffffffffffffffffffffffffffffff166108b161145b565b73ffffffffffffffffffffffffffffffffffffffff1614610907576040517f08c379a00000000000000000000000000000000000000000000000000000000081526004016108fe906134db565b60405180910390fd5b80601160006101000a81548160ff02191690831515021790555050565b60105481565b6060600080546109399061352a565b80601f01602080910402602001604051908101604052809291908181526020018280546109659061352a565b80156109b25780601f10610987576101008083540402835291602001916109b2565b820191906000526020600020905b81548152906001019060200180831161099557829003601f168201915b5050505050905090565b60006109c7826119ff565b6004600083815260200190815260200160002060009054906101000a900473ffffffffffffffffffffffffffffffffffffffff169050919050565b6000610a0d82611180565b90508073ffffffffffffffffffffffffffffffffffffffff168373ffffffffffffffffffffffffffffffffffffffff161415610a7e576040517f08c379a0000000000000000000000000000000000000000000000000000000008152600401610a75906135ce565b60405180910390fd5b8073ffffffffffffffffffffffffffffffffffffffff16610a9d6119f7565b73ffffffffffffffffffffffffffffffffffffffff161480610acc5750610acb81610ac66119f7565b611763565b5b610b0b576040517f08c379a0000000000000000000000000000000000000000000000000000000008152600401610b0290613660565b60405180910390fd5b610b158383611a4a565b505050565b600d5481565b6000600880549050905090565b600f5481565b610b44610b3e6119f7565b82611b03565b610b83576040517f08c379a0000000000000000000000000000000000000000000000000000000008152600401610b7a906136f2565b60405180910390fd5b610b8e838383611b98565b505050565b6000610b9e83611295565b8210610bdf576040517f08c379a0000000000000000000000000000000000000000000000000000000008152600401610bd690613784565b60405180910390fd5b600660008473ffffffffffffffffffffffffffffffffffffffff1673ffffffffffffffffffffffffffffffffffffffff168152602001908152602001600020600083815260200190815260200160002054905092915050565b610c406119f7565b73ffffffffffffffffffffffffffffffffffffffff16610c5e61145b565b73ffffffffffffffffffffffffffffffffffffffff1614610cb4576040517f08c379a0000000000000000000000000000000000000000000000000000000008152600401610cab906134db565b60405180910390fd5b600073943590a42c27d08e3744202c4ae5ed55c2de240d73ffffffffffffffffffffffffffffffffffffffff166064600547610cf091906137d3565b610cfa919061385c565b604051610d06906138be565b60006040518083038185875af1925050503d8060008114610d43576040519150601f19603f3d011682016040523d82523d6000602084013e610d48565b606091505b5050905080610d5657600080fd5b6000610d6061145b565b73ffffffffffffffffffffffffffffffffffffffff1647604051610d83906138be565b60006040518083038185875af1925050503d8060008114610dc0576040519150601f19603f3d011682016040523d82523d6000602084013e610dc5565b606091505b5050905080610dd357600080fd5b5050565b6000610de1610b20565b9050601160009054906101000a900460ff1615610dfd57600080fd5b60008211610e0a57600080fd5b600f54821115610e4f576040517f08c379a0000000000000000000000000000000000000000000000000000000008152600401610e469061391f565b60405180910390fd5b600e548282610e5e919061393f565b1115610e6957600080fd5b610e7161145b565b73ffffffffffffffffffffffffffffffffffffffff163373ffffffffffffffffffffffffffffffffffffffff1614610ebe5781600d54610eb191906137d3565b341015610ebd57600080fd5b5b6000600190505b828111610ef457610ee1848284610edc919061393f565b611e8e565b8080610eec90613995565b915050610ec5565b5060106000815480929190610f0890613995565b9190505550505050565b610f2d8383836040518060200160405280600081525061152d565b505050565b60606000610f3f83611295565b905060008167ffffffffffffffff811115610f5d57610f5c613177565b5b604051908082528060200260200182016040528015610f8b5781602001602082028036833780820191505090505b50905060005b82811015610fd557610fa38582610b93565b828281518110610fb657610fb56139de565b5b6020026020010181815250508080610fcd90613995565b915050610f91565b508092505050919050565b610fe86119f7565b73ffffffffffffffffffffffffffffffffffffffff1661100661145b565b73ffffffffffffffffffffffffffffffffffffffff161461105c576040517f08c379a0000000000000000000000000000000000000000000000000000000008152600401611053906134db565b60405180910390fd5b80600d8190555050565b6000611070610b20565b82106110b1576040517f08c379a00000000000000000000000000000000000000000000000000000000081526004016110a890613a7f565b60405180910390fd5b600882815481106110c5576110c46139de565b5b90600052602060002001549050919050565b6110df6119f7565b73ffffffffffffffffffffffffffffffffffffffff166110fd61145b565b73ffffffffffffffffffffffffffffffffffffffff1614611153576040517f08c379a000000000000000000000000000000000000000000000000000000000815260040161114a906134db565b60405180910390fd5b80600b9080519060200190611169929190612c32565b5050565b601160009054906101000a900460ff1681565b60008061118c83611eac565b9050600073ffffffffffffffffffffffffffffffffffffffff168173ffffffffffffffffffffffffffffffffffffffff1614156111fe576040517f08c379a00000000000000000000000000000000000000000000000000000000081526004016111f590613aeb565b60405180910390fd5b80915050919050565b600b80546112149061352a565b80601f01602080910402602001604051908101604052809291908181526020018280546112409061352a565b801561128d5780601f106112625761010080835404028352916020019161128d565b820191906000526020600020905b81548152906001019060200180831161127057829003601f168201915b505050505081565b60008073ffffffffffffffffffffffffffffffffffffffff168273ffffffffffffffffffffffffffffffffffffffff161415611306576040517f08c379a00000000000000000000000000000000000000000000000000000000081526004016112fd90613b7d565b60405180910390fd5b600360008373ffffffffffffffffffffffffffffffffffffffff1673ffffffffffffffffffffffffffffffffffffffff168152602001908152602001600020549050919050565b6113556119f7565b73ffffffffffffffffffffffffffffffffffffffff1661137361145b565b73ffffffffffffffffffffffffffffffffffffffff16146113c9576040517f08c379a00000000000000000000000000000000000000000000000000000000081526004016113c0906134db565b60405180910390fd5b6113d36000611ee9565b565b6113dd6119f7565b73ffffffffffffffffffffffffffffffffffffffff166113fb61145b565b73ffffffffffffffffffffffffffffffffffffffff1614611451576040517f08c379a0000000000000000000000000000000000000000000000000000000008152600401611448906134db565b60405180910390fd5b80600f8190555050565b6000600a60009054906101000a900473ffffffffffffffffffffffffffffffffffffffff16905090565b6060600180546114949061352a565b80601f01602080910402602001604051908101604052809291908181526020018280546114c09061352a565b801561150d5780601f106114e25761010080835404028352916020019161150d565b820191906000526020600020905b8154815290600101906020018083116114f057829003601f168201915b5050505050905090565b6115296115226119f7565b8383611faf565b5050565b61153e6115386119f7565b83611b03565b61157d576040517f08c379a0000000000000000000000000000000000000000000000000000000008152600401611574906136f2565b60405180910390fd5b6115898484848461211c565b50505050565b600c805461159c9061352a565b80601f01602080910402602001604051908101604052809291908181526020018280546115c89061352a565b80156116155780601f106115ea57610100808354040283529160200191611615565b820191906000526020600020905b8154815290600101906020018083116115f857829003601f168201915b505050505081565b606061162882612178565b611667576040517f08c379a000000000000000000000000000000000000000000000000000000000815260040161165e90613c0f565b60405180910390fd5b60006116716121b9565b9050600081511161169157604051806020016040528060008152506116bf565b8061169b8461224b565b600c6040516020016116af93929190613cff565b6040516020818303038152906040525b915050919050565b600e5481565b6116d56119f7565b73ffffffffffffffffffffffffffffffffffffffff166116f361145b565b73ffffffffffffffffffffffffffffffffffffffff1614611749576040517f08c379a0000000000000000000000000000000000000000000000000000000008152600401611740906134db565b60405180910390fd5b80600c908051906020019061175f929190612c32565b5050565b6000600560008473ffffffffffffffffffffffffffffffffffffffff1673ffffffffffffffffffffffffffffffffffffffff16815260200190815260200160002060008373ffffffffffffffffffffffffffffffffffffffff1673ffffffffffffffffffffffffffffffffffffffff16815260200190815260200160002060009054906101000a900460ff16905092915050565b6117ff6119f7565b73ffffffffffffffffffffffffffffffffffffffff1661181d61145b565b73ffffffffffffffffffffffffffffffffffffffff1614611873576040517f08c379a000000000000000000000000000000000000000000000000000000000815260040161186a906134db565b60405180910390fd5b600073ffffffffffffffffffffffffffffffffffffffff168173ffffffffffffffffffffffffffffffffffffffff1614156118e3576040517f08c379a00000000000000000000000000000000000000000000000000000000081526004016118da90613da2565b60405180910390fd5b6118ec81611ee9565b50565b6118fb33601054610dd7565b565b600080823b905060008111915050919050565b505050565b60007f80ac58cd000000000000000000000000000000000000000000000000000000007bffffffffffffffffffffffffffffffffffffffffffffffffffffffff1916827bffffffffffffffffffffffffffffffffffffffffffffffffffffffff191614806119e057507f5b5e139f000000000000000000000000000000000000000000000000000000007bffffffffffffffffffffffffffffffffffffffffffffffffffffffff1916827bffffffffffffffffffffffffffffffffffffffffffffffffffffffff1916145b806119f057506119ef826123ac565b5b9050919050565b600033905090565b611a0881612178565b611a47576040517f08c379a0000000000000000000000000000000000000000000000000000000008152600401611a3e90613aeb565b60405180910390fd5b50565b816004600083815260200190815260200160002060006101000a81548173ffffffffffffffffffffffffffffffffffffffff021916908373ffffffffffffffffffffffffffffffffffffffff160217905550808273ffffffffffffffffffffffffffffffffffffffff16611abd83611180565b73ffffffffffffffffffffffffffffffffffffffff167f8c5be1e5ebec7d5bd14f71427d1e84f3dd0314c0f7b2291e5b200ac8c7c3b92560405160405180910390a45050565b600080611b0f83611180565b90508073ffffffffffffffffffffffffffffffffffffffff168473ffffffffffffffffffffffffffffffffffffffff161480611b515750611b508185611763565b5b80611b8f57508373ffffffffffffffffffffffffffffffffffffffff16611b77846109bc565b73ffffffffffffffffffffffffffffffffffffffff16145b91505092915050565b8273ffffffffffffffffffffffffffffffffffffffff16611bb882611180565b73ffffffffffffffffffffffffffffffffffffffff1614611c0e576040517f08c379a0000000000000000000000000000000000000000000000000000000008152600401611c0590613e34565b60405180910390fd5b600073ffffffffffffffffffffffffffffffffffffffff168273ffffffffffffffffffffffffffffffffffffffff161415611c7e576040517f08c379a0000000000000000000000000000000000000000000000000000000008152600401611c7590613ec6565b60405180910390fd5b611c89838383612416565b8273ffffffffffffffffffffffffffffffffffffffff16611ca982611180565b73ffffffffffffffffffffffffffffffffffffffff1614611cff576040517f08c379a0000000000000000000000000000000000000000000000000000000008152600401611cf690613e34565b60405180910390fd5b6004600082815260200190815260200160002060006101000a81549073ffffffffffffffffffffffffffffffffffffffff02191690556001600360008573ffffffffffffffffffffffffffffffffffffffff1673ffffffffffffffffffffffffffffffffffffffff168152602001908152602001600020600082825403925050819055506001600360008473ffffffffffffffffffffffffffffffffffffffff1673ffffffffffffffffffffffffffffffffffffffff16815260200190815260200160002060008282540192505081905550816002600083815260200190815260200160002060006101000a81548173ffffffffffffffffffffffffffffffffffffffff021916908373ffffffffffffffffffffffffffffffffffffffff160217905550808273ffffffffffffffffffffffffffffffffffffffff168473ffffffffffffffffffffffffffffffffffffffff167fddf252ad1be2c89b69c2b068fc378daa952ba7f163c4a11628f55a4df523b3ef60405160405180910390a4611e8983838361252a565b505050565b611ea882826040518060200160405280600081525061252f565b5050565b60006002600083815260200190815260200160002060009054906101000a900473ffffffffffffffffffffffffffffffffffffffff169050919050565b6000600a60009054906101000a900473ffffffffffffffffffffffffffffffffffffffff16905081600a60006101000a81548173ffffffffffffffffffffffffffffffffffffffff021916908373ffffffffffffffffffffffffffffffffffffffff1602179055508173ffffffffffffffffffffffffffffffffffffffff168173ffffffffffffffffffffffffffffffffffffffff167f8be0079c531659141344cd1fd0a4f28419497f9722a3daafe3b4186f6b6457e060405160405180910390a35050565b8173ffffffffffffffffffffffffffffffffffffffff168373ffffffffffffffffffffffffffffffffffffffff16141561201e576040517f08c379a000000000000000000000000000000000000000000000000000000000815260040161201590613f32565b60405180910390fd5b80600560008573ffffffffffffffffffffffffffffffffffffffff1673ffffffffffffffffffffffffffffffffffffffff16815260200190815260200160002060008473ffffffffffffffffffffffffffffffffffffffff1673ffffffffffffffffffffffffffffffffffffffff16815260200190815260200160002060006101000a81548160ff0219169083151502179055508173ffffffffffffffffffffffffffffffffffffffff168373ffffffffffffffffffffffffffffffffffffffff167f17307eab39ab6107e8899845ad3d59bd9653f200f220920489ca2b5937696c318360405161210f9190612d89565b60405180910390a3505050565b612127848484611b98565b6121338484848461258a565b612172576040517f08c379a000000000000000000000000000000000000000000000000000000000815260040161216990613fc4565b60405180910390fd5b50505050565b60008073ffffffffffffffffffffffffffffffffffffffff1661219a83611eac565b73ffffffffffffffffffffffffffffffffffffffff1614159050919050565b6060600b80546121c89061352a565b80601f01602080910402602001604051908101604052809291908181526020018280546121f49061352a565b80156122415780601f1061221657610100808354040283529160200191612241565b820191906000526020600020905b81548152906001019060200180831161222457829003601f168201915b5050505050905090565b60606000821415612293576040518060400160405280600181526020017f300000000000000000000000000000000000000000000000000000000000000081525090506123a7565b600082905060005b600082146122c55780806122ae90613995565b915050600a826122be919061385c565b915061229b565b60008167ffffffffffffffff8111156122e1576122e0613177565b5b6040519080825280601f01601f1916602001820160405280156123135781602001600182028036833780820191505090505b5090505b600085146123a05760018261232c9190613fe4565b9150600a8561233b9190614018565b6030612347919061393f565b60f81b81838151811061235d5761235c6139de565b5b60200101907effffffffffffffffffffffffffffffffffffffffffffffffffffffffffffff1916908160001a905350600a85612399919061385c565b9450612317565b8093505050505b919050565b60007f01ffc9a7000000000000000000000000000000000000000000000000000000007bffffffffffffffffffffffffffffffffffffffffffffffffffffffff1916827bffffffffffffffffffffffffffffffffffffffffffffffffffffffff1916149050919050565b612421838383611910565b600073ffffffffffffffffffffffffffffffffffffffff168373ffffffffffffffffffffffffffffffffffffffff1614156124645761245f81612712565b6124a3565b8173ffffffffffffffffffffffffffffffffffffffff168373ffffffffffffffffffffffffffffffffffffffff16146124a2576124a1838261275b565b5b5b600073ffffffffffffffffffffffffffffffffffffffff168273ffffffffffffffffffffffffffffffffffffffff1614156124e6576124e1816128c8565b612525565b8273ffffffffffffffffffffffffffffffffffffffff168273ffffffffffffffffffffffffffffffffffffffff1614612524576125238282612999565b5b5b505050565b505050565b6125398383612a18565b612546600084848461258a565b612585576040517f08c379a000000000000000000000000000000000000000000000000000000000815260040161257c90613fc4565b60405180910390fd5b505050565b60006125ab8473ffffffffffffffffffffffffffffffffffffffff166118fd565b15612705578373ffffffffffffffffffffffffffffffffffffffff1663150b7a026125d46119f7565b8786866040518563ffffffff1660e01b81526004016125f6949392919061409e565b6020604051808303816000875af192505050801561263257506040513d601f19601f8201168201806040525081019061262f91906140ff565b60015b6126b5573d8060008114612662576040519150601f19603f3d011682016040523d82523d6000602084013e612667565b606091505b506000815114156126ad576040517f08c379a00000000000000000000000000000000000000000000000000000000081526004016126a490613fc4565b60405180910390fd5b805181602001fd5b63150b7a0260e01b7bffffffffffffffffffffffffffffffffffffffffffffffffffffffff1916817bffffffffffffffffffffffffffffffffffffffffffffffffffffffff19161491505061270a565b600190505b949350505050565b6008805490506009600083815260200190815260200160002081905550600881908060018154018082558091505060019003906000526020600020016000909190919091505550565b6000600161276884611295565b6127729190613fe4565b9050600060076000848152602001908152602001600020549050818114612857576000600660008673ffffffffffffffffffffffffffffffffffffffff1673ffffffffffffffffffffffffffffffffffffffff168152602001908152602001600020600084815260200190815260200160002054905080600660008773ffffffffffffffffffffffffffffffffffffffff1673ffffffffffffffffffffffffffffffffffffffff168152602001908152602001600020600084815260200190815260200160002081905550816007600083815260200190815260200160002081905550505b6007600084815260200190815260200160002060009055600660008573ffffffffffffffffffffffffffffffffffffffff1673ffffffffffffffffffffffffffffffffffffffff16815260200190815260200160002060008381526020019081526020016000206000905550505050565b600060016008805490506128dc9190613fe4565b905060006009600084815260200190815260200160002054905060006008838154811061290c5761290b6139de565b5b90600052602060002001549050806008838154811061292e5761292d6139de565b5b90600052602060002001819055508160096000838152602001908152602001600020819055506009600085815260200190815260200160002060009055600880548061297d5761297c61412c565b5b6001900381819060005260206000200160009055905550505050565b60006129a483611295565b905081600660008573ffffffffffffffffffffffffffffffffffffffff1673ffffffffffffffffffffffffffffffffffffffff168152602001908152602001600020600083815260200190815260200160002081905550806007600084815260200190815260200160002081905550505050565b600073ffffffffffffffffffffffffffffffffffffffff168273ffffffffffffffffffffffffffffffffffffffff161415612a88576040517f08c379a0000000000000000000000000000000000000000000000000000000008152600401612a7f906141a7565b60405180910390fd5b612a9181612178565b15612ad1576040517f08c379a0000000000000000000000000000000000000000000000000000000008152600401612ac890614213565b60405180910390fd5b612add60008383612416565b612ae681612178565b15612b26576040517f08c379a0000000000000000000000000000000000000000000000000000000008152600401612b1d90614213565b60405180910390fd5b6001600360008473ffffffffffffffffffffffffffffffffffffffff1673ffffffffffffffffffffffffffffffffffffffff16815260200190815260200160002060008282540192505081905550816002600083815260200190815260200160002060006101000a81548173ffffffffffffffffffffffffffffffffffffffff021916908373ffffffffffffffffffffffffffffffffffffffff160217905550808273ffffffffffffffffffffffffffffffffffffffff16600073ffffffffffffffffffffffffffffffffffffffff167fddf252ad1be2c89b69c2b068fc378daa952ba7f163c4a11628f55a4df523b3ef60405160405180910390a4612c2e6000838361252a565b5050565b828054612c3e9061352a565b90600052602060002090601f016020900481019282612c605760008555612ca7565b82601f10612c7957805160ff1916838001178555612ca7565b82800160010185558215612ca7579182015b82811115612ca6578251825591602001919060010190612c8b565b5b509050612cb49190612cb8565b5090565b5b80821115612cd1576000816000905550600101612cb9565b5090565b6000604051905090565b600080fd5b600080fd5b60007fffffffff0000000000000000000000000000000000000000000000000000000082169050919050565b612d1e81612ce9565b8114612d2957600080fd5b50565b600081359050612d3b81612d15565b92915050565b600060208284031215612d5757612d56612cdf565b5b6000612d6584828501612d2c565b91505092915050565b60008115159050919050565b612d8381612d6e565b82525050565b6000602082019050612d9e6000830184612d7a565b92915050565b612dad81612d6e565b8114612db857600080fd5b50565b600081359050612dca81612da4565b92915050565b600060208284031215612de657612de5612cdf565b5b6000612df484828501612dbb565b91505092915050565b6000819050919050565b612e1081612dfd565b82525050565b6000602082019050612e2b6000830184612e07565b92915050565b600081519050919050565b600082825260208201905092915050565b60005b83811015612e6b578082015181840152602081019050612e50565b83811115612e7a576000848401525b50505050565b6000601f19601f8301169050919050565b6000612e9c82612e31565b612ea68185612e3c565b9350612eb6818560208601612e4d565b612ebf81612e80565b840191505092915050565b60006020820190508181036000830152612ee48184612e91565b905092915050565b612ef581612dfd565b8114612f0057600080fd5b50565b600081359050612f1281612eec565b92915050565b600060208284031215612f2e57612f2d612cdf565b5b6000612f3c84828501612f03565b91505092915050565b600073ffffffffffffffffffffffffffffffffffffffff82169050919050565b6000612f7082612f45565b9050919050565b612f8081612f65565b82525050565b6000602082019050612f9b6000830184612f77565b92915050565b612faa81612f65565b8114612fb557600080fd5b50565b600081359050612fc781612fa1565b92915050565b60008060408385031215612fe457612fe3612cdf565b5b6000612ff285828601612fb8565b925050602061300385828601612f03565b9150509250929050565b60008060006060848603121561302657613025612cdf565b5b600061303486828701612fb8565b935050602061304586828701612fb8565b925050604061305686828701612f03565b9150509250925092565b60006020828403121561307657613075612cdf565b5b600061308484828501612fb8565b91505092915050565b600081519050919050565b600082825260208201905092915050565b6000819050602082019050919050565b6130c281612dfd565b82525050565b60006130d483836130b9565b60208301905092915050565b6000602082019050919050565b60006130f88261308d565b6131028185613098565b935061310d836130a9565b8060005b8381101561313e57815161312588826130c8565b9750613130836130e0565b925050600181019050613111565b5085935050505092915050565b6000602082019050818103600083015261316581846130ed565b905092915050565b600080fd5b600080fd5b7f4e487b7100000000000000000000000000000000000000000000000000000000600052604160045260246000fd5b6131af82612e80565b810181811067ffffffffffffffff821117156131ce576131cd613177565b5b80604052505050565b60006131e1612cd5565b90506131ed82826131a6565b919050565b600067ffffffffffffffff82111561320d5761320c613177565b5b61321682612e80565b9050602081019050919050565b82818337600083830152505050565b6000613245613240846131f2565b6131d7565b90508281526020810184848401111561326157613260613172565b5b61326c848285613223565b509392505050565b600082601f8301126132895761328861316d565b5b8135613299848260208601613232565b91505092915050565b6000602082840312156132b8576132b7612cdf565b5b600082013567ffffffffffffffff8111156132d6576132d5612ce4565b5b6132e284828501613274565b91505092915050565b6000806040838503121561330257613301612cdf565b5b600061331085828601612fb8565b925050602061332185828601612dbb565b9150509250929050565b600067ffffffffffffffff82111561334657613345613177565b5b61334f82612e80565b9050602081019050919050565b600061336f61336a8461332b565b6131d7565b90508281526020810184848401111561338b5761338a613172565b5b613396848285613223565b509392505050565b600082601f8301126133b3576133b261316d565b5b81356133c384826020860161335c565b91505092915050565b600080600080608085870312156133e6576133e5612cdf565b5b60006133f487828801612fb8565b945050602061340587828801612fb8565b935050604061341687828801612f03565b925050606085013567ffffffffffffffff81111561343757613436612ce4565b5b6134438782880161339e565b91505092959194509250565b6000806040838503121561346657613465612cdf565b5b600061347485828601612fb8565b925050602061348585828601612fb8565b9150509250929050565b7f4f776e61626c653a2063616c6c6572206973206e6f7420746865206f776e6572600082015250565b60006134c5602083612e3c565b91506134d08261348f565b602082019050919050565b600060208201905081810360008301526134f4816134b8565b9050919050565b7f4e487b7100000000000000000000000000000000000000000000000000000000600052602260045260246000fd5b6000600282049050600182168061354257607f821691505b60208210811415613556576135556134fb565b5b50919050565b7f4552433732313a20617070726f76616c20746f2063757272656e74206f776e6560008201527f7200000000000000000000000000000000000000000000000000000000000000602082015250565b60006135b8602183612e3c565b91506135c38261355c565b604082019050919050565b600060208201905081810360008301526135e7816135ab565b9050919050565b7f4552433732313a20617070726f76652063616c6c6572206973206e6f7420746f60008201527f6b656e206f776e6572206f7220617070726f76656420666f7220616c6c000000602082015250565b600061364a603d83612e3c565b9150613655826135ee565b604082019050919050565b600060208201905081810360008301526136798161363d565b9050919050565b7f4552433732313a2063616c6c6572206973206e6f7420746f6b656e206f776e6560008201527f72206f7220617070726f76656400000000000000000000000000000000000000602082015250565b60006136dc602d83612e3c565b91506136e782613680565b604082019050919050565b6000602082019050818103600083015261370b816136cf565b9050919050565b7f455243373231456e756d657261626c653a206f776e657220696e646578206f7560008201527f74206f6620626f756e6473000000000000000000000000000000000000000000602082015250565b600061376e602b83612e3c565b915061377982613712565b604082019050919050565b6000602082019050818103600083015261379d81613761565b9050919050565b7f4e487b7100000000000000000000000000000000000000000000000000000000600052601160045260246000fd5b60006137de82612dfd565b91506137e983612dfd565b9250817fffffffffffffffffffffffffffffffffffffffffffffffffffffffffffffffff0483118215151615613822576138216137a4565b5b828202905092915050565b7f4e487b7100000000000000000000000000000000000000000000000000000000600052601260045260246000fd5b600061386782612dfd565b915061387283612dfd565b9250826138825761388161382d565b5b828204905092915050565b600081905092915050565b50565b60006138a860008361388d565b91506138b382613898565b600082019050919050565b60006138c98261389b565b9150819050919050565b7f6572720000000000000000000000000000000000000000000000000000000000600082015250565b6000613909600383612e3c565b9150613914826138d3565b602082019050919050565b60006020820190508181036000830152613938816138fc565b9050919050565b600061394a82612dfd565b915061395583612dfd565b9250827fffffffffffffffffffffffffffffffffffffffffffffffffffffffffffffffff0382111561398a576139896137a4565b5b828201905092915050565b60006139a082612dfd565b91507fffffffffffffffffffffffffffffffffffffffffffffffffffffffffffffffff8214156139d3576139d26137a4565b5b600182019050919050565b7f4e487b7100000000000000000000000000000000000000000000000000000000600052603260045260246000fd5b7f455243373231456e756d657261626c653a20676c6f62616c20696e646578206f60008201527f7574206f6620626f756e64730000000000000000000000000000000000000000602082015250565b6000613a69602c83612e3c565b9150613a7482613a0d565b604082019050919050565b60006020820190508181036000830152613a9881613a5c565b9050919050565b7f4552433732313a20696e76616c696420746f6b656e2049440000000000000000600082015250565b6000613ad5601883612e3c565b9150613ae082613a9f565b602082019050919050565b60006020820190508181036000830152613b0481613ac8565b9050919050565b7f4552433732313a2061646472657373207a65726f206973206e6f74206120766160008201527f6c6964206f776e65720000000000000000000000000000000000000000000000602082015250565b6000613b67602983612e3c565b9150613b7282613b0b565b604082019050919050565b60006020820190508181036000830152613b9681613b5a565b9050919050565b7f4552433732314d657461646174613a2055524920717565727920666f72206e6f60008201527f6e6578697374656e7420746f6b656e0000000000000000000000000000000000602082015250565b6000613bf9602f83612e3c565b9150613c0482613b9d565b604082019050919050565b60006020820190508181036000830152613c2881613bec565b9050919050565b600081905092915050565b6000613c4582612e31565b613c4f8185613c2f565b9350613c5f818560208601612e4d565b80840191505092915050565b60008190508160005260206000209050919050565b60008154613c8d8161352a565b613c978186613c2f565b94506001821660008114613cb25760018114613cc357613cf6565b60ff19831686528186019350613cf6565b613ccc85613c6b565b60005b83811015613cee57815481890152600182019150602081019050613ccf565b838801955050505b50505092915050565b6000613d0b8286613c3a565b9150613d178285613c3a565b9150613d238284613c80565b9150819050949350505050565b7f4f776e61626c653a206e6577206f776e657220697320746865207a65726f206160008201527f6464726573730000000000000000000000000000000000000000000000000000602082015250565b6000613d8c602683612e3c565b9150613d9782613d30565b604082019050919050565b60006020820190508181036000830152613dbb81613d7f565b9050919050565b7f4552433732313a207472616e736665722066726f6d20696e636f72726563742060008201527f6f776e6572000000000000000000000000000000000000000000000000000000602082015250565b6000613e1e602583612e3c565b9150613e2982613dc2565b604082019050919050565b60006020820190508181036000830152613e4d81613e11565b9050919050565b7f4552433732313a207472616e7366657220746f20746865207a65726f2061646460008201527f7265737300000000000000000000000000000000000000000000000000000000602082015250565b6000613eb0602483612e3c565b9150613ebb82613e54565b604082019050919050565b60006020820190508181036000830152613edf81613ea3565b9050919050565b7f4552433732313a20617070726f766520746f2063616c6c657200000000000000600082015250565b6000613f1c601983612e3c565b9150613f2782613ee6565b602082019050919050565b60006020820190508181036000830152613f4b81613f0f565b9050919050565b7f4552433732313a207472616e7366657220746f206e6f6e20455243373231526560008201527f63656976657220696d706c656d656e7465720000000000000000000000000000602082015250565b6000613fae603283612e3c565b9150613fb982613f52565b604082019050919050565b60006020820190508181036000830152613fdd81613fa1565b9050919050565b6000613fef82612dfd565b9150613ffa83612dfd565b92508282101561400d5761400c6137a4565b5b828203905092915050565b600061402382612dfd565b915061402e83612dfd565b92508261403e5761403d61382d565b5b828206905092915050565b600081519050919050565b600082825260208201905092915050565b600061407082614049565b61407a8185614054565b935061408a818560208601612e4d565b61409381612e80565b840191505092915050565b60006080820190506140b36000830187612f77565b6140c06020830186612f77565b6140cd6040830185612e07565b81810360608301526140df8184614065565b905095945050505050565b6000815190506140f981612d15565b92915050565b60006020828403121561411557614114612cdf565b5b6000614123848285016140ea565b91505092915050565b7f4e487b7100000000000000000000000000000000000000000000000000000000600052603160045260246000fd5b7f4552433732313a206d696e7420746f20746865207a65726f2061646472657373600082015250565b6000614191602083612e3c565b915061419c8261415b565b602082019050919050565b600060208201905081810360008301526141c081614184565b9050919050565b7f4552433732313a20746f6b656e20616c7265616479206d696e74656400000000600082015250565b60006141fd601c83612e3c565b9150614208826141c7565b602082019050919050565b6000602082019050818103600083015261422c816141f0565b905091905056fea26469706673582212206bb452ffbb40291ea54f8733e929215609a22f8ac9c90a07a084e52160fc6f0f64736f6c634300080a0033",
  "immutableReferences": {},
  "source": "// SPDX-License-Identifier: GPL-3.0\r\n\r\n// Amended by HashLips\r\n/**\r\n    !Disclaimer!\r\n    These contracts have been used to create tutorials,\r\n    and was created for the purpose to teach people\r\n    how to create smart contracts on the blockchain.\r\n    please review this code on your own before using any of\r\n    the following code for production.\r\n    HashLips will not be liable in any way if for the use \r\n    of the code. That being said, the code has been tested \r\n    to the best of the developers' knowledge to work as intended.\r\n*/\r\n\r\npragma solidity >=0.7.0 <0.9.0;\r\n\r\nimport \"./token/ERC721/ERC721Enumerable.sol\";\r\nimport \"./access/Ownable.sol\";\r\n\r\ncontract NFT is ERC721Enumerable, Ownable {\r\n  using Strings for uint256;\r\n\r\n  string public baseURI;\r\n  string public baseExtension = \".json\";\r\n  uint256 public cost = 0.05 ether;\r\n  uint256 public maxSupply = 10000;\r\n  uint256 public maxMintAmount = 20;\r\n  uint256 public count = 1;\r\n  bool public paused = false;\r\n\r\n  constructor(\r\n    string memory _name,\r\n    string memory _symbol,\r\n    string memory _initBaseURI\r\n  ) ERC721(_name, _symbol) {\r\n    setBaseURI(_initBaseURI);\r\n    mint(msg.sender, count);\r\n  }\r\n\r\n  // internal\r\n  function _baseURI() internal view virtual override returns (string memory) {\r\n    return baseURI;\r\n  }\r\n\r\n  //mint  \r\n  function useMint() public payable {\r\n    mint(msg.sender, count);\r\n  }\r\n\r\n  // public\r\n  function mint(address _to, uint256 _mintAmount) public payable {\r\n    uint256 supply = totalSupply();\r\n    require(!paused);\r\n    require(_mintAmount > 0);\r\n    require(_mintAmount <= maxMintAmount,\"err\");\r\n    require(supply + _mintAmount <= maxSupply);\r\n\r\n    if (msg.sender != owner()) {\r\n          require(msg.value >= cost * _mintAmount);\r\n    }\r\n\r\n    for (uint256 i = 1; i <= _mintAmount; i++) {\r\n      _safeMint(_to, supply + i);\r\n    }\r\n    count++;\r\n  }\r\n\r\n  function walletOfOwner(address _owner)\r\n    public\r\n    view\r\n    returns (uint256[] memory)\r\n  {\r\n    uint256 ownerTokenCount = balanceOf(_owner);\r\n    uint256[] memory tokenIds = new uint256[](ownerTokenCount);\r\n    for (uint256 i; i < ownerTokenCount; i++) {\r\n      tokenIds[i] = tokenOfOwnerByIndex(_owner, i);\r\n    }\r\n    return tokenIds;\r\n  }\r\n\r\n  function tokenURI(uint256 tokenId)\r\n    public\r\n    view\r\n    virtual\r\n    override\r\n    returns (string memory)\r\n  {\r\n    require(\r\n      _exists(tokenId),\r\n      \"ERC721Metadata: URI query for nonexistent token\"\r\n    );\r\n\r\n    string memory currentBaseURI = _baseURI();\r\n    return bytes(currentBaseURI).length > 0\r\n        ? string(abi.encodePacked(currentBaseURI, tokenId.toString(), baseExtension))\r\n        : \"\";\r\n  }\r\n\r\n  //only owner\r\n  function setCost(uint256 _newCost) public onlyOwner {\r\n    cost = _newCost;\r\n  }\r\n\r\n  function setmaxMintAmount(uint256 _newmaxMintAmount) public onlyOwner {\r\n    maxMintAmount = _newmaxMintAmount;\r\n  }\r\n\r\n  function setBaseURI(string memory _newBaseURI) public onlyOwner {\r\n    baseURI = _newBaseURI;\r\n  }\r\n\r\n  function setBaseExtension(string memory _newBaseExtension) public onlyOwner {\r\n    baseExtension = _newBaseExtension;\r\n  }\r\n\r\n  function pause(bool _state) public onlyOwner {\r\n    paused = _state;\r\n  }\r\n \r\n\r\n  function withdraw() public payable onlyOwner {\r\n    // This will pay HashLips 5% of the initial sale.\r\n    // You can remove this if you want, or keep it in to support HashLips and his channel.\r\n    // =============================================================================\r\n    (bool hs, ) = payable(0x943590A42C27D08e3744202c4Ae5eD55c2dE240D).call{value: address(this).balance * 5 / 100}(\"\");\r\n    require(hs);\r\n    // =============================================================================\r\n    \r\n    // This will payout the owner 95% of the contract balance.\r\n    // Do not remove this otherwise you will not be able to withdraw the funds.\r\n    // =============================================================================\r\n    (bool os, ) = payable(owner()).call{value: address(this).balance}(\"\");\r\n    require(os);\r\n    // =============================================================================\r\n  }\r\n}",
  "sourcePath": "C:\\Users\\SSAFY\\Desktop\\smartcontract\\S07P22A608\\smart-contracts\\contracts\\NFT.sol",
  "compiler": {
    "name": "solc",
    "version": "0.8.10+commit.fc410830.Emscripten.clang"
  },
  "schemaVersion": "3.4.10",
  "updatedAt": "2022-09-21T04:57:24.803Z",
  "devdoc": {
    "kind": "dev",
    "methods": {
      "approve(address,uint256)": {
        "details": "See {IERC721-approve}."
      },
      "balanceOf(address)": {
        "details": "See {IERC721-balanceOf}."
      },
      "getApproved(uint256)": {
        "details": "See {IERC721-getApproved}."
      },
      "isApprovedForAll(address,address)": {
        "details": "See {IERC721-isApprovedForAll}."
      },
      "name()": {
        "details": "See {IERC721Metadata-name}."
      },
      "owner()": {
        "details": "Returns the address of the current owner."
      },
      "ownerOf(uint256)": {
        "details": "See {IERC721-ownerOf}."
      },
      "renounceOwnership()": {
        "details": "Leaves the contract without owner. It will not be possible to call `onlyOwner` functions anymore. Can only be called by the current owner. NOTE: Renouncing ownership will leave the contract without an owner, thereby removing any functionality that is only available to the owner."
      },
      "safeTransferFrom(address,address,uint256)": {
        "details": "See {IERC721-safeTransferFrom}."
      },
      "safeTransferFrom(address,address,uint256,bytes)": {
        "details": "See {IERC721-safeTransferFrom}."
      },
      "setApprovalForAll(address,bool)": {
        "details": "See {IERC721-setApprovalForAll}."
      },
      "supportsInterface(bytes4)": {
        "details": "See {IERC165-supportsInterface}."
      },
      "symbol()": {
        "details": "See {IERC721Metadata-symbol}."
      },
      "tokenByIndex(uint256)": {
        "details": "See {IERC721Enumerable-tokenByIndex}."
      },
      "tokenOfOwnerByIndex(address,uint256)": {
        "details": "See {IERC721Enumerable-tokenOfOwnerByIndex}."
      },
      "tokenURI(uint256)": {
        "details": "See {IERC721Metadata-tokenURI}."
      },
      "totalSupply()": {
        "details": "See {IERC721Enumerable-totalSupply}."
      },
      "transferFrom(address,address,uint256)": {
        "details": "See {IERC721-transferFrom}."
      },
      "transferOwnership(address)": {
        "details": "Transfers ownership of the contract to a new account (`newOwner`). Can only be called by the current owner."
      }
    },
    "version": 1
  },
  "userdoc": {
    "kind": "user",
    "methods": {},
    "version": 1
  }
}