{
  "contractName": "SsafyNFT",
  "abi": [
    {
      "inputs": [],
      "stateMutability": "nonpayable",
      "type": "constructor"
    },
    {
      "anonymous": false,
      "inputs": [
        {
          "indexed": true,
          "internalType": "address",
          "name": "owner",
          "type": "address"
        },
        {
          "indexed": true,
          "internalType": "address",
          "name": "approved",
          "type": "address"
        },
        {
          "indexed": true,
          "internalType": "uint256",
          "name": "tokenId",
          "type": "uint256"
        }
      ],
      "name": "Approval",
      "type": "event"
    },
    {
      "anonymous": false,
      "inputs": [
        {
          "indexed": true,
          "internalType": "address",
          "name": "owner",
          "type": "address"
        },
        {
          "indexed": true,
          "internalType": "address",
          "name": "operator",
          "type": "address"
        },
        {
          "indexed": false,
          "internalType": "bool",
          "name": "approved",
          "type": "bool"
        }
      ],
      "name": "ApprovalForAll",
      "type": "event"
    },
    {
      "anonymous": false,
      "inputs": [
        {
          "indexed": true,
          "internalType": "address",
          "name": "previousOwner",
          "type": "address"
        },
        {
          "indexed": true,
          "internalType": "address",
          "name": "newOwner",
          "type": "address"
        }
      ],
      "name": "OwnershipTransferred",
      "type": "event"
    },
    {
      "anonymous": false,
      "inputs": [
        {
          "indexed": true,
          "internalType": "address",
          "name": "from",
          "type": "address"
        },
        {
          "indexed": true,
          "internalType": "address",
          "name": "to",
          "type": "address"
        },
        {
          "indexed": true,
          "internalType": "uint256",
          "name": "tokenId",
          "type": "uint256"
        }
      ],
      "name": "Transfer",
      "type": "event"
    },
    {
      "anonymous": false,
      "inputs": [
        {
          "indexed": true,
          "internalType": "uint256",
          "name": "_tokenId",
          "type": "uint256"
        },
        {
          "indexed": true,
          "internalType": "address",
          "name": "_owner",
          "type": "address"
        }
      ],
      "name": "mintingNFT",
      "type": "event"
    },
    {
      "inputs": [
        {
          "internalType": "address",
          "name": "to",
          "type": "address"
        },
        {
          "internalType": "uint256",
          "name": "tokenId",
          "type": "uint256"
        }
      ],
      "name": "approve",
      "outputs": [],
      "stateMutability": "nonpayable",
      "type": "function"
    },
    {
      "inputs": [
        {
          "internalType": "address",
          "name": "owner",
          "type": "address"
        }
      ],
      "name": "balanceOf",
      "outputs": [
        {
          "internalType": "uint256",
          "name": "",
          "type": "uint256"
        }
      ],
      "stateMutability": "view",
      "type": "function"
    },
    {
      "inputs": [
        {
          "internalType": "uint256",
          "name": "tokenId",
          "type": "uint256"
        }
      ],
      "name": "getApproved",
      "outputs": [
        {
          "internalType": "address",
          "name": "",
          "type": "address"
        }
      ],
      "stateMutability": "view",
      "type": "function"
    },
    {
      "inputs": [
        {
          "internalType": "address",
          "name": "owner",
          "type": "address"
        },
        {
          "internalType": "address",
          "name": "operator",
          "type": "address"
        }
      ],
      "name": "isApprovedForAll",
      "outputs": [
        {
          "internalType": "bool",
          "name": "",
          "type": "bool"
        }
      ],
      "stateMutability": "view",
      "type": "function"
    },
    {
      "inputs": [],
      "name": "name",
      "outputs": [
        {
          "internalType": "string",
          "name": "",
          "type": "string"
        }
      ],
      "stateMutability": "view",
      "type": "function"
    },
    {
      "inputs": [],
      "name": "owner",
      "outputs": [
        {
          "internalType": "address",
          "name": "",
          "type": "address"
        }
      ],
      "stateMutability": "view",
      "type": "function"
    },
    {
      "inputs": [
        {
          "internalType": "uint256",
          "name": "tokenId",
          "type": "uint256"
        }
      ],
      "name": "ownerOf",
      "outputs": [
        {
          "internalType": "address",
          "name": "",
          "type": "address"
        }
      ],
      "stateMutability": "view",
      "type": "function"
    },
    {
      "inputs": [],
      "name": "renounceOwnership",
      "outputs": [],
      "stateMutability": "nonpayable",
      "type": "function"
    },
    {
      "inputs": [
        {
          "internalType": "address",
          "name": "from",
          "type": "address"
        },
        {
          "internalType": "address",
          "name": "to",
          "type": "address"
        },
        {
          "internalType": "uint256",
          "name": "tokenId",
          "type": "uint256"
        }
      ],
      "name": "safeTransferFrom",
      "outputs": [],
      "stateMutability": "nonpayable",
      "type": "function"
    },
    {
      "inputs": [
        {
          "internalType": "address",
          "name": "from",
          "type": "address"
        },
        {
          "internalType": "address",
          "name": "to",
          "type": "address"
        },
        {
          "internalType": "uint256",
          "name": "tokenId",
          "type": "uint256"
        },
        {
          "internalType": "bytes",
          "name": "data",
          "type": "bytes"
        }
      ],
      "name": "safeTransferFrom",
      "outputs": [],
      "stateMutability": "nonpayable",
      "type": "function"
    },
    {
      "inputs": [
        {
          "internalType": "address",
          "name": "operator",
          "type": "address"
        },
        {
          "internalType": "bool",
          "name": "approved",
          "type": "bool"
        }
      ],
      "name": "setApprovalForAll",
      "outputs": [],
      "stateMutability": "nonpayable",
      "type": "function"
    },
    {
      "inputs": [
        {
          "internalType": "bytes4",
          "name": "interfaceId",
          "type": "bytes4"
        }
      ],
      "name": "supportsInterface",
      "outputs": [
        {
          "internalType": "bool",
          "name": "",
          "type": "bool"
        }
      ],
      "stateMutability": "view",
      "type": "function"
    },
    {
      "inputs": [],
      "name": "symbol",
      "outputs": [
        {
          "internalType": "string",
          "name": "",
          "type": "string"
        }
      ],
      "stateMutability": "view",
      "type": "function"
    },
    {
      "inputs": [
        {
          "internalType": "address",
          "name": "from",
          "type": "address"
        },
        {
          "internalType": "address",
          "name": "to",
          "type": "address"
        },
        {
          "internalType": "uint256",
          "name": "tokenId",
          "type": "uint256"
        }
      ],
      "name": "transferFrom",
      "outputs": [],
      "stateMutability": "nonpayable",
      "type": "function"
    },
    {
      "inputs": [
        {
          "internalType": "address",
          "name": "newOwner",
          "type": "address"
        }
      ],
      "name": "transferOwnership",
      "outputs": [],
      "stateMutability": "nonpayable",
      "type": "function"
    },
    {
      "inputs": [],
      "name": "current",
      "outputs": [
        {
          "internalType": "uint256",
          "name": "",
          "type": "uint256"
        }
      ],
      "stateMutability": "view",
      "type": "function"
    },
    {
      "inputs": [
        {
          "internalType": "uint256",
          "name": "tokenId",
          "type": "uint256"
        }
      ],
      "name": "tokenURI",
      "outputs": [
        {
          "internalType": "string",
          "name": "",
          "type": "string"
        }
      ],
      "stateMutability": "view",
      "type": "function"
    },
    {
      "inputs": [
        {
          "internalType": "address",
          "name": "to",
          "type": "address"
        },
        {
          "internalType": "string",
          "name": "_tokenURI",
          "type": "string"
        }
      ],
      "name": "create",
      "outputs": [
        {
          "internalType": "uint256",
          "name": "",
          "type": "uint256"
        }
      ],
      "stateMutability": "nonpayable",
      "type": "function"
    }
  ],
  "bytecode": "0x60806040523480156200001157600080fd5b506040518060400160405280600881526020017f4661726d44494e470000000000000000000000000000000000000000000000008152506040518060400160405280600d81526020017f50726f6a65637442794136303800000000000000000000000000000000000000815250816000908051906020019062000096929190620001a6565b508060019080519060200190620000af929190620001a6565b505050620000d2620000c6620000d860201b60201c565b620000e060201b60201c565b620002bb565b600033905090565b6000600660009054906101000a900473ffffffffffffffffffffffffffffffffffffffff16905081600660006101000a81548173ffffffffffffffffffffffffffffffffffffffff021916908373ffffffffffffffffffffffffffffffffffffffff1602179055508173ffffffffffffffffffffffffffffffffffffffff168173ffffffffffffffffffffffffffffffffffffffff167f8be0079c531659141344cd1fd0a4f28419497f9722a3daafe3b4186f6b6457e060405160405180910390a35050565b828054620001b49062000285565b90600052602060002090601f016020900481019282620001d8576000855562000224565b82601f10620001f357805160ff191683800117855562000224565b8280016001018555821562000224579182015b828111156200022357825182559160200191906001019062000206565b5b50905062000233919062000237565b5090565b5b808211156200025257600081600090555060010162000238565b5090565b7f4e487b7100000000000000000000000000000000000000000000000000000000600052602260045260246000fd5b600060028204905060018216806200029e57607f821691505b60208210811415620002b557620002b462000256565b5b50919050565b61284d80620002cb6000396000f3fe608060405234801561001057600080fd5b50600436106101165760003560e01c80638da5cb5b116100a2578063a22cb46511610071578063a22cb465146102e1578063b88d4fde146102fd578063c87b56dd14610319578063e985e9c514610349578063f2fde38b1461037957610116565b80638da5cb5b1461025757806395d89b41146102755780639fa6a6e314610293578063a15ab08d146102b157610116565b806323b872dd116100e957806323b872dd146101b557806342842e0e146101d15780636352211e146101ed57806370a082311461021d578063715018a61461024d57610116565b806301ffc9a71461011b57806306fdde031461014b578063081812fc14610169578063095ea7b314610199575b600080fd5b610135600480360381019061013091906119d3565b610395565b6040516101429190611a1b565b60405180910390f35b610153610477565b6040516101609190611acf565b60405180910390f35b610183600480360381019061017e9190611b27565b610509565b6040516101909190611b95565b60405180910390f35b6101b360048036038101906101ae9190611bdc565b61054f565b005b6101cf60048036038101906101ca9190611c1c565b610667565b005b6101eb60048036038101906101e69190611c1c565b6106c7565b005b61020760048036038101906102029190611b27565b6106e7565b6040516102149190611b95565b60405180910390f35b61023760048036038101906102329190611c6f565b61076e565b6040516102449190611cab565b60405180910390f35b610255610826565b005b61025f6108ae565b60405161026c9190611b95565b60405180910390f35b61027d6108d8565b60405161028a9190611acf565b60405180910390f35b61029b61096a565b6040516102a89190611cab565b60405180910390f35b6102cb60048036038101906102c69190611dfb565b61097b565b6040516102d89190611cab565b60405180910390f35b6102fb60048036038101906102f69190611e83565b610a2a565b005b61031760048036038101906103129190611f64565b610a40565b005b610333600480360381019061032e9190611b27565b610aa2565b6040516103409190611acf565b60405180910390f35b610363600480360381019061035e9190611fe7565b610b47565b6040516103709190611a1b565b60405180910390f35b610393600480360381019061038e9190611c6f565b610bdb565b005b60007f80ac58cd000000000000000000000000000000000000000000000000000000007bffffffffffffffffffffffffffffffffffffffffffffffffffffffff1916827bffffffffffffffffffffffffffffffffffffffffffffffffffffffff1916148061046057507f5b5e139f000000000000000000000000000000000000000000000000000000007bffffffffffffffffffffffffffffffffffffffffffffffffffffffff1916827bffffffffffffffffffffffffffffffffffffffffffffffffffffffff1916145b80610470575061046f82610cd3565b5b9050919050565b60606000805461048690612056565b80601f01602080910402602001604051908101604052809291908181526020018280546104b290612056565b80156104ff5780601f106104d4576101008083540402835291602001916104ff565b820191906000526020600020905b8154815290600101906020018083116104e257829003601f168201915b5050505050905090565b600061051482610d3d565b6004600083815260200190815260200160002060009054906101000a900473ffffffffffffffffffffffffffffffffffffffff169050919050565b600061055a826106e7565b90508073ffffffffffffffffffffffffffffffffffffffff168373ffffffffffffffffffffffffffffffffffffffff1614156105cb576040517f08c379a00000000000000000000000000000000000000000000000000000000081526004016105c2906120fa565b60405180910390fd5b8073ffffffffffffffffffffffffffffffffffffffff166105ea610d88565b73ffffffffffffffffffffffffffffffffffffffff161480610619575061061881610613610d88565b610b47565b5b610658576040517f08c379a000000000000000000000000000000000000000000000000000000000815260040161064f9061218c565b60405180910390fd5b6106628383610d90565b505050565b610678610672610d88565b82610e49565b6106b7576040517f08c379a00000000000000000000000000000000000000000000000000000000081526004016106ae9061221e565b60405180910390fd5b6106c2838383610ede565b505050565b6106e283838360405180602001604052806000815250610a40565b505050565b6000806106f3836111d4565b9050600073ffffffffffffffffffffffffffffffffffffffff168173ffffffffffffffffffffffffffffffffffffffff161415610765576040517f08c379a000000000000000000000000000000000000000000000000000000000815260040161075c9061228a565b60405180910390fd5b80915050919050565b60008073ffffffffffffffffffffffffffffffffffffffff168273ffffffffffffffffffffffffffffffffffffffff1614156107df576040517f08c379a00000000000000000000000000000000000000000000000000000000081526004016107d69061231c565b60405180910390fd5b600360008373ffffffffffffffffffffffffffffffffffffffff1673ffffffffffffffffffffffffffffffffffffffff168152602001908152602001600020549050919050565b61082e610d88565b73ffffffffffffffffffffffffffffffffffffffff1661084c6108ae565b73ffffffffffffffffffffffffffffffffffffffff16146108a2576040517f08c379a000000000000000000000000000000000000000000000000000000000815260040161089990612388565b60405180910390fd5b6108ac6000611211565b565b6000600660009054906101000a900473ffffffffffffffffffffffffffffffffffffffff16905090565b6060600180546108e790612056565b80601f016020809104026020016040519081016040528092919081815260200182805461091390612056565b80156109605780601f1061093557610100808354040283529160200191610960565b820191906000526020600020905b81548152906001019060200180831161094357829003601f168201915b5050505050905090565b600061097660076112d7565b905090565b600061098760076112e5565b816008600061099660076112d7565b815260200190815260200160002090805190602001906109b79291906118c4565b506109cb836109c660076112d7565b6112fb565b8273ffffffffffffffffffffffffffffffffffffffff166109ec60076112d7565b7f46b3dcfb8e97959610d40df202fbbeae64fc380b2d827672f74975899b8a530660405160405180910390a3610a2260076112d7565b905092915050565b610a3c610a35610d88565b8383611515565b5050565b610a51610a4b610d88565b83610e49565b610a90576040517f08c379a0000000000000000000000000000000000000000000000000000000008152600401610a879061221e565b60405180910390fd5b610a9c84848484611682565b50505050565b6060600860008381526020019081526020016000208054610ac290612056565b80601f0160208091040260200160405190810160405280929190818152602001828054610aee90612056565b8015610b3b5780601f10610b1057610100808354040283529160200191610b3b565b820191906000526020600020905b815481529060010190602001808311610b1e57829003601f168201915b50505050509050919050565b6000600560008473ffffffffffffffffffffffffffffffffffffffff1673ffffffffffffffffffffffffffffffffffffffff16815260200190815260200160002060008373ffffffffffffffffffffffffffffffffffffffff1673ffffffffffffffffffffffffffffffffffffffff16815260200190815260200160002060009054906101000a900460ff16905092915050565b610be3610d88565b73ffffffffffffffffffffffffffffffffffffffff16610c016108ae565b73ffffffffffffffffffffffffffffffffffffffff1614610c57576040517f08c379a0000000000000000000000000000000000000000000000000000000008152600401610c4e90612388565b60405180910390fd5b600073ffffffffffffffffffffffffffffffffffffffff168173ffffffffffffffffffffffffffffffffffffffff161415610cc7576040517f08c379a0000000000000000000000000000000000000000000000000000000008152600401610cbe9061241a565b60405180910390fd5b610cd081611211565b50565b60007f01ffc9a7000000000000000000000000000000000000000000000000000000007bffffffffffffffffffffffffffffffffffffffffffffffffffffffff1916827bffffffffffffffffffffffffffffffffffffffffffffffffffffffff1916149050919050565b610d46816116de565b610d85576040517f08c379a0000000000000000000000000000000000000000000000000000000008152600401610d7c9061228a565b60405180910390fd5b50565b600033905090565b816004600083815260200190815260200160002060006101000a81548173ffffffffffffffffffffffffffffffffffffffff021916908373ffffffffffffffffffffffffffffffffffffffff160217905550808273ffffffffffffffffffffffffffffffffffffffff16610e03836106e7565b73ffffffffffffffffffffffffffffffffffffffff167f8c5be1e5ebec7d5bd14f71427d1e84f3dd0314c0f7b2291e5b200ac8c7c3b92560405160405180910390a45050565b600080610e55836106e7565b90508073ffffffffffffffffffffffffffffffffffffffff168473ffffffffffffffffffffffffffffffffffffffff161480610e975750610e968185610b47565b5b80610ed557508373ffffffffffffffffffffffffffffffffffffffff16610ebd84610509565b73ffffffffffffffffffffffffffffffffffffffff16145b91505092915050565b8273ffffffffffffffffffffffffffffffffffffffff16610efe826106e7565b73ffffffffffffffffffffffffffffffffffffffff1614610f54576040517f08c379a0000000000000000000000000000000000000000000000000000000008152600401610f4b906124ac565b60405180910390fd5b600073ffffffffffffffffffffffffffffffffffffffff168273ffffffffffffffffffffffffffffffffffffffff161415610fc4576040517f08c379a0000000000000000000000000000000000000000000000000000000008152600401610fbb9061253e565b60405180910390fd5b610fcf83838361171f565b8273ffffffffffffffffffffffffffffffffffffffff16610fef826106e7565b73ffffffffffffffffffffffffffffffffffffffff1614611045576040517f08c379a000000000000000000000000000000000000000000000000000000000815260040161103c906124ac565b60405180910390fd5b6004600082815260200190815260200160002060006101000a81549073ffffffffffffffffffffffffffffffffffffffff02191690556001600360008573ffffffffffffffffffffffffffffffffffffffff1673ffffffffffffffffffffffffffffffffffffffff168152602001908152602001600020600082825403925050819055506001600360008473ffffffffffffffffffffffffffffffffffffffff1673ffffffffffffffffffffffffffffffffffffffff16815260200190815260200160002060008282540192505081905550816002600083815260200190815260200160002060006101000a81548173ffffffffffffffffffffffffffffffffffffffff021916908373ffffffffffffffffffffffffffffffffffffffff160217905550808273ffffffffffffffffffffffffffffffffffffffff168473ffffffffffffffffffffffffffffffffffffffff167fddf252ad1be2c89b69c2b068fc378daa952ba7f163c4a11628f55a4df523b3ef60405160405180910390a46111cf838383611724565b505050565b60006002600083815260200190815260200160002060009054906101000a900473ffffffffffffffffffffffffffffffffffffffff169050919050565b6000600660009054906101000a900473ffffffffffffffffffffffffffffffffffffffff16905081600660006101000a81548173ffffffffffffffffffffffffffffffffffffffff021916908373ffffffffffffffffffffffffffffffffffffffff1602179055508173ffffffffffffffffffffffffffffffffffffffff168173ffffffffffffffffffffffffffffffffffffffff167f8be0079c531659141344cd1fd0a4f28419497f9722a3daafe3b4186f6b6457e060405160405180910390a35050565b600081600001549050919050565b6001816000016000828254019250508190555050565b600073ffffffffffffffffffffffffffffffffffffffff168273ffffffffffffffffffffffffffffffffffffffff16141561136b576040517f08c379a0000000000000000000000000000000000000000000000000000000008152600401611362906125aa565b60405180910390fd5b611374816116de565b156113b4576040517f08c379a00000000000000000000000000000000000000000000000000000000081526004016113ab90612616565b60405180910390fd5b6113c06000838361171f565b6113c9816116de565b15611409576040517f08c379a000000000000000000000000000000000000000000000000000000000815260040161140090612616565b60405180910390fd5b6001600360008473ffffffffffffffffffffffffffffffffffffffff1673ffffffffffffffffffffffffffffffffffffffff16815260200190815260200160002060008282540192505081905550816002600083815260200190815260200160002060006101000a81548173ffffffffffffffffffffffffffffffffffffffff021916908373ffffffffffffffffffffffffffffffffffffffff160217905550808273ffffffffffffffffffffffffffffffffffffffff16600073ffffffffffffffffffffffffffffffffffffffff167fddf252ad1be2c89b69c2b068fc378daa952ba7f163c4a11628f55a4df523b3ef60405160405180910390a461151160008383611724565b5050565b8173ffffffffffffffffffffffffffffffffffffffff168373ffffffffffffffffffffffffffffffffffffffff161415611584576040517f08c379a000000000000000000000000000000000000000000000000000000000815260040161157b90612682565b60405180910390fd5b80600560008573ffffffffffffffffffffffffffffffffffffffff1673ffffffffffffffffffffffffffffffffffffffff16815260200190815260200160002060008473ffffffffffffffffffffffffffffffffffffffff1673ffffffffffffffffffffffffffffffffffffffff16815260200190815260200160002060006101000a81548160ff0219169083151502179055508173ffffffffffffffffffffffffffffffffffffffff168373ffffffffffffffffffffffffffffffffffffffff167f17307eab39ab6107e8899845ad3d59bd9653f200f220920489ca2b5937696c31836040516116759190611a1b565b60405180910390a3505050565b61168d848484610ede565b61169984848484611729565b6116d8576040517f08c379a00000000000000000000000000000000000000000000000000000000081526004016116cf90612714565b60405180910390fd5b50505050565b60008073ffffffffffffffffffffffffffffffffffffffff16611700836111d4565b73ffffffffffffffffffffffffffffffffffffffff1614159050919050565b505050565b505050565b600061174a8473ffffffffffffffffffffffffffffffffffffffff166118b1565b156118a4578373ffffffffffffffffffffffffffffffffffffffff1663150b7a02611773610d88565b8786866040518563ffffffff1660e01b81526004016117959493929190612789565b6020604051808303816000875af19250505080156117d157506040513d601f19601f820116820180604052508101906117ce91906127ea565b60015b611854573d8060008114611801576040519150601f19603f3d011682016040523d82523d6000602084013e611806565b606091505b5060008151141561184c576040517f08c379a000000000000000000000000000000000000000000000000000000000815260040161184390612714565b60405180910390fd5b805181602001fd5b63150b7a0260e01b7bffffffffffffffffffffffffffffffffffffffffffffffffffffffff1916817bffffffffffffffffffffffffffffffffffffffffffffffffffffffff1916149150506118a9565b600190505b949350505050565b600080823b905060008111915050919050565b8280546118d090612056565b90600052602060002090601f0160209004810192826118f25760008555611939565b82601f1061190b57805160ff1916838001178555611939565b82800160010185558215611939579182015b8281111561193857825182559160200191906001019061191d565b5b509050611946919061194a565b5090565b5b8082111561196357600081600090555060010161194b565b5090565b6000604051905090565b600080fd5b600080fd5b60007fffffffff0000000000000000000000000000000000000000000000000000000082169050919050565b6119b08161197b565b81146119bb57600080fd5b50565b6000813590506119cd816119a7565b92915050565b6000602082840312156119e9576119e8611971565b5b60006119f7848285016119be565b91505092915050565b60008115159050919050565b611a1581611a00565b82525050565b6000602082019050611a306000830184611a0c565b92915050565b600081519050919050565b600082825260208201905092915050565b60005b83811015611a70578082015181840152602081019050611a55565b83811115611a7f576000848401525b50505050565b6000601f19601f8301169050919050565b6000611aa182611a36565b611aab8185611a41565b9350611abb818560208601611a52565b611ac481611a85565b840191505092915050565b60006020820190508181036000830152611ae98184611a96565b905092915050565b6000819050919050565b611b0481611af1565b8114611b0f57600080fd5b50565b600081359050611b2181611afb565b92915050565b600060208284031215611b3d57611b3c611971565b5b6000611b4b84828501611b12565b91505092915050565b600073ffffffffffffffffffffffffffffffffffffffff82169050919050565b6000611b7f82611b54565b9050919050565b611b8f81611b74565b82525050565b6000602082019050611baa6000830184611b86565b92915050565b611bb981611b74565b8114611bc457600080fd5b50565b600081359050611bd681611bb0565b92915050565b60008060408385031215611bf357611bf2611971565b5b6000611c0185828601611bc7565b9250506020611c1285828601611b12565b9150509250929050565b600080600060608486031215611c3557611c34611971565b5b6000611c4386828701611bc7565b9350506020611c5486828701611bc7565b9250506040611c6586828701611b12565b9150509250925092565b600060208284031215611c8557611c84611971565b5b6000611c9384828501611bc7565b91505092915050565b611ca581611af1565b82525050565b6000602082019050611cc06000830184611c9c565b92915050565b600080fd5b600080fd5b7f4e487b7100000000000000000000000000000000000000000000000000000000600052604160045260246000fd5b611d0882611a85565b810181811067ffffffffffffffff82111715611d2757611d26611cd0565b5b80604052505050565b6000611d3a611967565b9050611d468282611cff565b919050565b600067ffffffffffffffff821115611d6657611d65611cd0565b5b611d6f82611a85565b9050602081019050919050565b82818337600083830152505050565b6000611d9e611d9984611d4b565b611d30565b905082815260208101848484011115611dba57611db9611ccb565b5b611dc5848285611d7c565b509392505050565b600082601f830112611de257611de1611cc6565b5b8135611df2848260208601611d8b565b91505092915050565b60008060408385031215611e1257611e11611971565b5b6000611e2085828601611bc7565b925050602083013567ffffffffffffffff811115611e4157611e40611976565b5b611e4d85828601611dcd565b9150509250929050565b611e6081611a00565b8114611e6b57600080fd5b50565b600081359050611e7d81611e57565b92915050565b60008060408385031215611e9a57611e99611971565b5b6000611ea885828601611bc7565b9250506020611eb985828601611e6e565b9150509250929050565b600067ffffffffffffffff821115611ede57611edd611cd0565b5b611ee782611a85565b9050602081019050919050565b6000611f07611f0284611ec3565b611d30565b905082815260208101848484011115611f2357611f22611ccb565b5b611f2e848285611d7c565b509392505050565b600082601f830112611f4b57611f4a611cc6565b5b8135611f5b848260208601611ef4565b91505092915050565b60008060008060808587031215611f7e57611f7d611971565b5b6000611f8c87828801611bc7565b9450506020611f9d87828801611bc7565b9350506040611fae87828801611b12565b925050606085013567ffffffffffffffff811115611fcf57611fce611976565b5b611fdb87828801611f36565b91505092959194509250565b60008060408385031215611ffe57611ffd611971565b5b600061200c85828601611bc7565b925050602061201d85828601611bc7565b9150509250929050565b7f4e487b7100000000000000000000000000000000000000000000000000000000600052602260045260246000fd5b6000600282049050600182168061206e57607f821691505b6020821081141561208257612081612027565b5b50919050565b7f4552433732313a20617070726f76616c20746f2063757272656e74206f776e6560008201527f7200000000000000000000000000000000000000000000000000000000000000602082015250565b60006120e4602183611a41565b91506120ef82612088565b604082019050919050565b60006020820190508181036000830152612113816120d7565b9050919050565b7f4552433732313a20617070726f76652063616c6c6572206973206e6f7420746f60008201527f6b656e206f776e6572206f7220617070726f76656420666f7220616c6c000000602082015250565b6000612176603d83611a41565b91506121818261211a565b604082019050919050565b600060208201905081810360008301526121a581612169565b9050919050565b7f4552433732313a2063616c6c6572206973206e6f7420746f6b656e206f776e6560008201527f72206f7220617070726f76656400000000000000000000000000000000000000602082015250565b6000612208602d83611a41565b9150612213826121ac565b604082019050919050565b60006020820190508181036000830152612237816121fb565b9050919050565b7f4552433732313a20696e76616c696420746f6b656e2049440000000000000000600082015250565b6000612274601883611a41565b915061227f8261223e565b602082019050919050565b600060208201905081810360008301526122a381612267565b9050919050565b7f4552433732313a2061646472657373207a65726f206973206e6f74206120766160008201527f6c6964206f776e65720000000000000000000000000000000000000000000000602082015250565b6000612306602983611a41565b9150612311826122aa565b604082019050919050565b60006020820190508181036000830152612335816122f9565b9050919050565b7f4f776e61626c653a2063616c6c6572206973206e6f7420746865206f776e6572600082015250565b6000612372602083611a41565b915061237d8261233c565b602082019050919050565b600060208201905081810360008301526123a181612365565b9050919050565b7f4f776e61626c653a206e6577206f776e657220697320746865207a65726f206160008201527f6464726573730000000000000000000000000000000000000000000000000000602082015250565b6000612404602683611a41565b915061240f826123a8565b604082019050919050565b60006020820190508181036000830152612433816123f7565b9050919050565b7f4552433732313a207472616e736665722066726f6d20696e636f72726563742060008201527f6f776e6572000000000000000000000000000000000000000000000000000000602082015250565b6000612496602583611a41565b91506124a18261243a565b604082019050919050565b600060208201905081810360008301526124c581612489565b9050919050565b7f4552433732313a207472616e7366657220746f20746865207a65726f2061646460008201527f7265737300000000000000000000000000000000000000000000000000000000602082015250565b6000612528602483611a41565b9150612533826124cc565b604082019050919050565b600060208201905081810360008301526125578161251b565b9050919050565b7f4552433732313a206d696e7420746f20746865207a65726f2061646472657373600082015250565b6000612594602083611a41565b915061259f8261255e565b602082019050919050565b600060208201905081810360008301526125c381612587565b9050919050565b7f4552433732313a20746f6b656e20616c7265616479206d696e74656400000000600082015250565b6000612600601c83611a41565b915061260b826125ca565b602082019050919050565b6000602082019050818103600083015261262f816125f3565b9050919050565b7f4552433732313a20617070726f766520746f2063616c6c657200000000000000600082015250565b600061266c601983611a41565b915061267782612636565b602082019050919050565b6000602082019050818103600083015261269b8161265f565b9050919050565b7f4552433732313a207472616e7366657220746f206e6f6e20455243373231526560008201527f63656976657220696d706c656d656e7465720000000000000000000000000000602082015250565b60006126fe603283611a41565b9150612709826126a2565b604082019050919050565b6000602082019050818103600083015261272d816126f1565b9050919050565b600081519050919050565b600082825260208201905092915050565b600061275b82612734565b612765818561273f565b9350612775818560208601611a52565b61277e81611a85565b840191505092915050565b600060808201905061279e6000830187611b86565b6127ab6020830186611b86565b6127b86040830185611c9c565b81810360608301526127ca8184612750565b905095945050505050565b6000815190506127e4816119a7565b92915050565b600060208284031215612800576127ff611971565b5b600061280e848285016127d5565b9150509291505056fea264697066735822122069ebf97ad4dedbca86da82a68142623955a57a722e3e0eb334a812a0226d3e5464736f6c634300080a0033",
  "immutableReferences": {},
  "source": "// SPDX-License-Identifier: MIT\r\npragma solidity >=0.7.0 <0.9.0;\r\n\r\nimport \"./token/ERC721/ERC721.sol\";\r\nimport \"./utils/Counters.sol\";\r\nimport \"./access/Ownable.sol\";\r\n\r\n/**\r\n * PJT  -  2) NFT Creator \r\n *         .\r\n */\r\ncontract SsafyNFT is ERC721, Ownable {\r\n    using Counters for Counters.Counter;\r\n    Counters.Counter private _tokenIds;\r\n    mapping(uint256 => string) tokenURIs;\r\n\r\n    event mintingNFT (uint256 indexed _tokenId, address indexed _owner);\r\n\r\n    constructor() ERC721(\"FarmDING\", \"ProjectByA608\"){}\r\n\r\n    function current() public view returns (uint256) {\r\n        return Counters.current(_tokenIds);\r\n    }\r\n\r\n    function tokenURI(uint256 tokenId) public view override returns (string memory) {\r\n         return tokenURIs[tokenId];\r\n    }\r\n\r\n    function create(address to, string memory _tokenURI) public returns (uint256) {\r\n        _tokenIds.increment();\r\n        tokenURIs[_tokenIds.current()] = _tokenURI;\r\n\r\n        _mint(to, _tokenIds.current());\r\n        emit mintingNFT(_tokenIds.current(), to);\r\n        \r\n        return _tokenIds.current();\r\n        }\r\n}",
  "sourcePath": "C:\\Users\\SSAFY\\Desktop\\smartcontract\\S07P22A608\\smart-contracts\\contracts\\SsafyNFT.sol",
  "compiler": {
    "name": "solc",
    "version": "0.8.10+commit.fc410830.Emscripten.clang"
  },
  "schemaVersion": "3.4.10",
  "updatedAt": "2022-09-21T04:57:24.818Z",
  "devdoc": {
    "kind": "dev",
    "methods": {
      "approve(address,uint256)": {
        "details": "See {IERC721-approve}."
      },
      "balanceOf(address)": {
        "details": "See {IERC721-balanceOf}."
      },
      "getApproved(uint256)": {
        "details": "See {IERC721-getApproved}."
      },
      "isApprovedForAll(address,address)": {
        "details": "See {IERC721-isApprovedForAll}."
      },
      "name()": {
        "details": "See {IERC721Metadata-name}."
      },
      "owner()": {
        "details": "Returns the address of the current owner."
      },
      "ownerOf(uint256)": {
        "details": "See {IERC721-ownerOf}."
      },
      "renounceOwnership()": {
        "details": "Leaves the contract without owner. It will not be possible to call `onlyOwner` functions anymore. Can only be called by the current owner. NOTE: Renouncing ownership will leave the contract without an owner, thereby removing any functionality that is only available to the owner."
      },
      "safeTransferFrom(address,address,uint256)": {
        "details": "See {IERC721-safeTransferFrom}."
      },
      "safeTransferFrom(address,address,uint256,bytes)": {
        "details": "See {IERC721-safeTransferFrom}."
      },
      "setApprovalForAll(address,bool)": {
        "details": "See {IERC721-setApprovalForAll}."
      },
      "supportsInterface(bytes4)": {
        "details": "See {IERC165-supportsInterface}."
      },
      "symbol()": {
        "details": "See {IERC721Metadata-symbol}."
      },
      "tokenURI(uint256)": {
        "details": "See {IERC721Metadata-tokenURI}."
      },
      "transferFrom(address,address,uint256)": {
        "details": "See {IERC721-transferFrom}."
      },
      "transferOwnership(address)": {
        "details": "Transfers ownership of the contract to a new account (`newOwner`). Can only be called by the current owner."
      }
    },
    "version": 1
  },
  "userdoc": {
    "kind": "user",
    "methods": {},
    "notice": "PJT  -  2) NFT Creator          .",
    "version": 1
  }
}