{
  "contractName": "CrowdFunding",
  "abi": [
    {
      "inputs": [
        {
          "internalType": "address",
          "name": "_currencyAddress",
          "type": "address"
        }
      ],
      "stateMutability": "nonpayable",
      "type": "constructor"
    },
    {
      "anonymous": false,
      "inputs": [
        {
          "indexed": false,
          "internalType": "uint256",
          "name": "id",
          "type": "uint256"
        }
      ],
      "name": "Cancel",
      "type": "event"
    },
    {
      "anonymous": false,
      "inputs": [
        {
          "indexed": false,
          "internalType": "uint256",
          "name": "id",
          "type": "uint256"
        }
      ],
      "name": "Claim",
      "type": "event"
    },
    {
      "anonymous": false,
      "inputs": [
        {
          "indexed": false,
          "internalType": "uint256",
          "name": "id",
          "type": "uint256"
        },
        {
          "indexed": true,
          "internalType": "address",
          "name": "beneficiary",
          "type": "address"
        },
        {
          "indexed": false,
          "internalType": "uint256",
          "name": "goal",
          "type": "uint256"
        },
        {
          "indexed": false,
          "internalType": "uint32",
          "name": "startAt",
          "type": "uint32"
        },
        {
          "indexed": false,
          "internalType": "uint32",
          "name": "endAt",
          "type": "uint32"
        }
      ],
      "name": "Launch",
      "type": "event"
    },
    {
      "anonymous": false,
      "inputs": [
        {
          "indexed": true,
          "internalType": "uint256",
          "name": "id",
          "type": "uint256"
        },
        {
          "indexed": true,
          "internalType": "address",
          "name": "caller",
          "type": "address"
        },
        {
          "indexed": false,
          "internalType": "uint256",
          "name": "amount",
          "type": "uint256"
        }
      ],
      "name": "Pledge",
      "type": "event"
    },
    {
      "anonymous": false,
      "inputs": [
        {
          "indexed": false,
          "internalType": "uint256",
          "name": "id",
          "type": "uint256"
        },
        {
          "indexed": true,
          "internalType": "address",
          "name": "caller",
          "type": "address"
        },
        {
          "indexed": false,
          "internalType": "uint256",
          "name": "amount",
          "type": "uint256"
        }
      ],
      "name": "Refund",
      "type": "event"
    },
    {
      "anonymous": false,
      "inputs": [
        {
          "indexed": true,
          "internalType": "uint256",
          "name": "id",
          "type": "uint256"
        },
        {
          "indexed": true,
          "internalType": "address",
          "name": "caller",
          "type": "address"
        },
        {
          "indexed": false,
          "internalType": "uint256",
          "name": "amount",
          "type": "uint256"
        }
      ],
      "name": "Unpledge",
      "type": "event"
    },
    {
      "inputs": [],
      "name": "SSFTokenContract",
      "outputs": [
        {
          "internalType": "contract SSFToken",
          "name": "",
          "type": "address"
        }
      ],
      "stateMutability": "view",
      "type": "function",
      "constant": true
    },
    {
      "inputs": [
        {
          "internalType": "uint256",
          "name": "",
          "type": "uint256"
        }
      ],
      "name": "campaigns",
      "outputs": [
        {
          "internalType": "address",
          "name": "beneficiary",
          "type": "address"
        },
        {
          "internalType": "uint256",
          "name": "goal",
          "type": "uint256"
        },
        {
          "internalType": "uint256",
          "name": "pledged",
          "type": "uint256"
        },
        {
          "internalType": "uint32",
          "name": "startAt",
          "type": "uint32"
        },
        {
          "internalType": "uint32",
          "name": "endAt",
          "type": "uint32"
        },
        {
          "internalType": "bool",
          "name": "claimed",
          "type": "bool"
        }
      ],
      "stateMutability": "view",
      "type": "function",
      "constant": true
    },
    {
      "inputs": [],
      "name": "campaignsCount",
      "outputs": [
        {
          "internalType": "uint256",
          "name": "",
          "type": "uint256"
        }
      ],
      "stateMutability": "view",
      "type": "function",
      "constant": true
    },
    {
      "inputs": [],
      "name": "currentBalance",
      "outputs": [
        {
          "internalType": "uint256",
          "name": "",
          "type": "uint256"
        }
      ],
      "stateMutability": "view",
      "type": "function",
      "constant": true
    },
    {
      "inputs": [],
      "name": "funderAddress",
      "outputs": [
        {
          "internalType": "address",
          "name": "",
          "type": "address"
        }
      ],
      "stateMutability": "view",
      "type": "function",
      "constant": true
    },
    {
      "inputs": [
        {
          "internalType": "uint256",
          "name": "",
          "type": "uint256"
        },
        {
          "internalType": "address",
          "name": "",
          "type": "address"
        }
      ],
      "name": "pledgedAmount",
      "outputs": [
        {
          "internalType": "uint256",
          "name": "",
          "type": "uint256"
        }
      ],
      "stateMutability": "view",
      "type": "function",
      "constant": true
    },
    {
      "inputs": [
        {
          "internalType": "uint256",
          "name": "_goal",
          "type": "uint256"
        },
        {
          "internalType": "uint32",
          "name": "_startAt",
          "type": "uint32"
        },
        {
          "internalType": "uint32",
          "name": "_endAt",
          "type": "uint32"
        }
      ],
      "name": "launch",
      "outputs": [],
      "stateMutability": "nonpayable",
      "type": "function"
    },
    {
      "inputs": [
        {
          "internalType": "uint256",
          "name": "_id",
          "type": "uint256"
        }
      ],
      "name": "cancel",
      "outputs": [],
      "stateMutability": "nonpayable",
      "type": "function"
    },
    {
      "inputs": [
        {
          "internalType": "uint256",
          "name": "_id",
          "type": "uint256"
        },
        {
          "internalType": "uint256",
          "name": "_amount",
          "type": "uint256"
        }
      ],
      "name": "pledge",
      "outputs": [],
      "stateMutability": "nonpayable",
      "type": "function"
    },
    {
      "inputs": [
        {
          "internalType": "uint256",
          "name": "_id",
          "type": "uint256"
        },
        {
          "internalType": "uint256",
          "name": "_amount",
          "type": "uint256"
        }
      ],
      "name": "unpledge",
      "outputs": [],
      "stateMutability": "nonpayable",
      "type": "function"
    },
    {
      "inputs": [
        {
          "internalType": "uint256",
          "name": "_id",
          "type": "uint256"
        }
      ],
      "name": "claim",
      "outputs": [],
      "stateMutability": "nonpayable",
      "type": "function"
    },
    {
      "inputs": [
        {
          "internalType": "uint256",
          "name": "_id",
          "type": "uint256"
        }
      ],
      "name": "refund",
      "outputs": [],
      "stateMutability": "nonpayable",
      "type": "function"
    },
    {
      "inputs": [
        {
          "internalType": "uint256",
          "name": "campaignID",
          "type": "uint256"
        }
      ],
      "name": "contribute",
      "outputs": [],
      "stateMutability": "nonpayable",
      "type": "function"
    }
  ],
  "bytecode": "0x60806040523480156200001157600080fd5b506040516200206d3803806200206d8339818101604052810190620000379190620000e8565b806000806101000a81548173ffffffffffffffffffffffffffffffffffffffff021916908373ffffffffffffffffffffffffffffffffffffffff160217905550506200011a565b600080fd5b600073ffffffffffffffffffffffffffffffffffffffff82169050919050565b6000620000b08262000083565b9050919050565b620000c281620000a3565b8114620000ce57600080fd5b50565b600081519050620000e281620000b7565b92915050565b6000602082840312156200010157620001006200007e565b5b60006200011184828501620000d1565b91505092915050565b611f43806200012a6000396000f3fe608060405234801561001057600080fd5b50600436106100cf5760003560e01c80635ef94baf1161008c578063adec5ed511610066578063adec5ed514610201578063c1cbbca71461021f578063ce845d1d1461023b578063fde327be14610259576100cf565b80635ef94baf14610197578063711853ab146101b5578063aa4fb63a146101d1576100cf565b8063141961bc146100d4578063278ecde1146101095780632c63f14614610125578063379607f51461014157806340e58ee51461015d57806344c89b6514610179575b600080fd5b6100ee60048036038101906100e99190611543565b610275565b604051610100969594939291906115fa565b60405180910390f35b610123600480360381019061011e9190611543565b6102fe565b005b61013f600480360381019061013a9190611687565b610626565b005b61015b60048036038101906101569190611543565b6108fe565b005b61017760048036038101906101729190611543565b610bbf565b005b610181610e3a565b60405161018e91906116da565b60405180910390f35b61019f610e40565b6040516101ac9190611754565b60405180910390f35b6101cf60048036038101906101ca919061176f565b610e64565b005b6101eb60048036038101906101e691906117db565b6110ec565b6040516101f891906116da565b60405180910390f35b610209611111565b604051610216919061181b565b60405180910390f35b61023960048036038101906102349190611543565b611137565b005b61024361113a565b60405161025091906116da565b60405180910390f35b610273600480360381019061026e919061176f565b611140565b005b60046020528060005260406000206000915090508060000160009054906101000a900473ffffffffffffffffffffffffffffffffffffffff16908060010154908060020154908060030160009054906101000a900463ffffffff16908060030160049054906101000a900463ffffffff16908060030160089054906101000a900460ff16905086565b6000600460008381526020019081526020016000206040518060c00160405290816000820160009054906101000a900473ffffffffffffffffffffffffffffffffffffffff1673ffffffffffffffffffffffffffffffffffffffff1673ffffffffffffffffffffffffffffffffffffffff16815260200160018201548152602001600282015481526020016003820160009054906101000a900463ffffffff1663ffffffff1663ffffffff1681526020016003820160049054906101000a900463ffffffff1663ffffffff1663ffffffff1681526020016003820160089054906101000a900460ff1615151515815250509050806080015163ffffffff16421161043d576040517f08c379a000000000000000000000000000000000000000000000000000000000815260040161043490611893565b60405180910390fd5b8060200151816040015110610487576040517f08c379a000000000000000000000000000000000000000000000000000000000815260040161047e906118ff565b60405180910390fd5b60006005600084815260200190815260200160002060003373ffffffffffffffffffffffffffffffffffffffff1673ffffffffffffffffffffffffffffffffffffffff16815260200190815260200160002054905060006005600085815260200190815260200160002060003373ffffffffffffffffffffffffffffffffffffffff1673ffffffffffffffffffffffffffffffffffffffff1681526020019081526020016000208190555060008054906101000a900473ffffffffffffffffffffffffffffffffffffffff1673ffffffffffffffffffffffffffffffffffffffff1663a9059cbb33836040518363ffffffff1660e01b815260040161058d92919061191f565b6020604051808303816000875af11580156105ac573d6000803e3d6000fd5b505050506040513d601f19601f820116820180604052508101906105d09190611974565b503373ffffffffffffffffffffffffffffffffffffffff167f21e12a7cad0da5928167e1084ea4d5fdf8d9af66657a2543a9ac76a0ca08147784836040516106199291906119a1565b60405180910390a2505050565b428263ffffffff16101561066f576040517f08c379a000000000000000000000000000000000000000000000000000000000815260040161066690611a16565b60405180910390fd5b8163ffffffff168163ffffffff1610156106be576040517f08c379a00000000000000000000000000000000000000000000000000000000081526004016106b590611a82565b60405180910390fd5b6276a700426106cd9190611ad1565b8163ffffffff161115610715576040517f08c379a000000000000000000000000000000000000000000000000000000000815260040161070c90611b73565b60405180910390fd5b60018060008282546107279190611ad1565b9250508190555033600260006101000a81548173ffffffffffffffffffffffffffffffffffffffff021916908373ffffffffffffffffffffffffffffffffffffffff1602179055506040518060c001604052803373ffffffffffffffffffffffffffffffffffffffff168152602001848152602001600081526020018363ffffffff1681526020018263ffffffff1681526020016000151581525060046000600154815260200190815260200160002060008201518160000160006101000a81548173ffffffffffffffffffffffffffffffffffffffff021916908373ffffffffffffffffffffffffffffffffffffffff160217905550602082015181600101556040820151816002015560608201518160030160006101000a81548163ffffffff021916908363ffffffff16021790555060808201518160030160046101000a81548163ffffffff021916908363ffffffff16021790555060a08201518160030160086101000a81548160ff0219169083151502179055509050503373ffffffffffffffffffffffffffffffffffffffff167f0601cd0d650b473037e838a2696d41e654433d065b3f56b28d1d3302e44a304f6001548585856040516108f19493929190611b93565b60405180910390a2505050565b60006004600083815260200190815260200160002090503373ffffffffffffffffffffffffffffffffffffffff168160000160009054906101000a900473ffffffffffffffffffffffffffffffffffffffff1673ffffffffffffffffffffffffffffffffffffffff16146109a7576040517f08c379a000000000000000000000000000000000000000000000000000000000815260040161099e90611c24565b60405180910390fd5b8060030160049054906101000a900463ffffffff1663ffffffff164211610a03576040517f08c379a00000000000000000000000000000000000000000000000000000000081526004016109fa90611893565b60405180910390fd5b806001015481600201541015610a4e576040517f08c379a0000000000000000000000000000000000000000000000000000000008152600401610a4590611c90565b60405180910390fd5b8060030160089054906101000a900460ff1615610aa0576040517f08c379a0000000000000000000000000000000000000000000000000000000008152600401610a9790611cfc565b60405180910390fd5b60018160030160086101000a81548160ff02191690831515021790555060008054906101000a900473ffffffffffffffffffffffffffffffffffffffff1673ffffffffffffffffffffffffffffffffffffffff1663a9059cbb8260000160009054906101000a900473ffffffffffffffffffffffffffffffffffffffff1683600201546040518363ffffffff1660e01b8152600401610b4092919061191f565b6020604051808303816000875af1158015610b5f573d6000803e3d6000fd5b505050506040513d601f19601f82011682018060405250810190610b839190611974565b507f7bb2b3c10797baccb6f8c4791f1edd6ca2f0d028ee0eda64b01a9a57e3a653f782604051610bb391906116da565b60405180910390a15050565b6000600460008381526020019081526020016000206040518060c00160405290816000820160009054906101000a900473ffffffffffffffffffffffffffffffffffffffff1673ffffffffffffffffffffffffffffffffffffffff1673ffffffffffffffffffffffffffffffffffffffff16815260200160018201548152602001600282015481526020016003820160009054906101000a900463ffffffff1663ffffffff1663ffffffff1681526020016003820160049054906101000a900463ffffffff1663ffffffff1663ffffffff1681526020016003820160089054906101000a900460ff16151515158152505090503373ffffffffffffffffffffffffffffffffffffffff16816000015173ffffffffffffffffffffffffffffffffffffffff1614610d24576040517f08c379a0000000000000000000000000000000000000000000000000000000008152600401610d1b90611c24565b60405180910390fd5b806060015163ffffffff164210610d70576040517f08c379a0000000000000000000000000000000000000000000000000000000008152600401610d6790611d68565b60405180910390fd5b60046000838152602001908152602001600020600080820160006101000a81549073ffffffffffffffffffffffffffffffffffffffff0219169055600182016000905560028201600090556003820160006101000a81549063ffffffff02191690556003820160046101000a81549063ffffffff02191690556003820160086101000a81549060ff021916905550507f8bf30e7ff26833413be5f69e1d373744864d600b664204b4a2f9844a8eedb9ed82604051610e2e91906116da565b60405180910390a15050565b60015481565b60008054906101000a900473ffffffffffffffffffffffffffffffffffffffff1681565b60006004600084815260200190815260200160002090508060030160049054906101000a900463ffffffff1663ffffffff16421115610ed8576040517f08c379a0000000000000000000000000000000000000000000000000000000008152600401610ecf90611dd4565b60405180910390fd5b81816002016000828254610eec9190611df4565b92505081905550816005600085815260200190815260200160002060003373ffffffffffffffffffffffffffffffffffffffff1673ffffffffffffffffffffffffffffffffffffffff1681526020019081526020016000206000828254610f539190611df4565b9250508190555060008054906101000a900473ffffffffffffffffffffffffffffffffffffffff1673ffffffffffffffffffffffffffffffffffffffff1663095ea7b333846040518363ffffffff1660e01b8152600401610fb592919061191f565b6020604051808303816000875af1158015610fd4573d6000803e3d6000fd5b505050506040513d601f19601f82011682018060405250810190610ff89190611974565b5060008054906101000a900473ffffffffffffffffffffffffffffffffffffffff1673ffffffffffffffffffffffffffffffffffffffff1663a9059cbb33846040518363ffffffff1660e01b815260040161105492919061191f565b6020604051808303816000875af1158015611073573d6000803e3d6000fd5b505050506040513d601f19601f820116820180604052508101906110979190611974565b503373ffffffffffffffffffffffffffffffffffffffff16837f2eeeab891b26a214d1b25749f88a406bdea852bd8c9bfda977e0ef8114c180ba846040516110df91906116da565b60405180910390a3505050565b6005602052816000526040600020602052806000526040600020600091509150505481565b600260009054906101000a900473ffffffffffffffffffffffffffffffffffffffff1681565b50565b60035481565b60006004600084815260200190815260200160002090508060030160009054906101000a900463ffffffff1663ffffffff164210156111b4576040517f08c379a00000000000000000000000000000000000000000000000000000000081526004016111ab90611e74565b60405180910390fd5b8060030160049054906101000a900463ffffffff1663ffffffff16421115611211576040517f08c379a000000000000000000000000000000000000000000000000000000000815260040161120890611dd4565b60405180910390fd5b818160020160008282546112259190611ad1565b92505081905550816005600085815260200190815260200160002060003373ffffffffffffffffffffffffffffffffffffffff1673ffffffffffffffffffffffffffffffffffffffff168152602001908152602001600020600082825461128c9190611ad1565b9250508190555033600260006101000a81548173ffffffffffffffffffffffffffffffffffffffff021916908373ffffffffffffffffffffffffffffffffffffffff16021790555060008054906101000a900473ffffffffffffffffffffffffffffffffffffffff1673ffffffffffffffffffffffffffffffffffffffff166370a08231336040518263ffffffff1660e01b815260040161132d919061181b565b602060405180830381865afa15801561134a573d6000803e3d6000fd5b505050506040513d601f19601f8201168201806040525081019061136e9190611ea9565b60038190555060008054906101000a900473ffffffffffffffffffffffffffffffffffffffff1673ffffffffffffffffffffffffffffffffffffffff1663095ea7b333846040518363ffffffff1660e01b81526004016113cf92919061191f565b6020604051808303816000875af11580156113ee573d6000803e3d6000fd5b505050506040513d601f19601f820116820180604052508101906114129190611974565b5060008054906101000a900473ffffffffffffffffffffffffffffffffffffffff1673ffffffffffffffffffffffffffffffffffffffff166323b872dd3330856040518463ffffffff1660e01b815260040161147093929190611ed6565b6020604051808303816000875af115801561148f573d6000803e3d6000fd5b505050506040513d601f19601f820116820180604052508101906114b39190611974565b503373ffffffffffffffffffffffffffffffffffffffff16837f06bdb975df800a73232998e71ed585d536222f1dfeaa622d7f62a23ada686c82846040516114fb91906116da565b60405180910390a3505050565b600080fd5b6000819050919050565b6115208161150d565b811461152b57600080fd5b50565b60008135905061153d81611517565b92915050565b60006020828403121561155957611558611508565b5b60006115678482850161152e565b91505092915050565b600073ffffffffffffffffffffffffffffffffffffffff82169050919050565b600061159b82611570565b9050919050565b6115ab81611590565b82525050565b6115ba8161150d565b82525050565b600063ffffffff82169050919050565b6115d9816115c0565b82525050565b60008115159050919050565b6115f4816115df565b82525050565b600060c08201905061160f60008301896115a2565b61161c60208301886115b1565b61162960408301876115b1565b61163660608301866115d0565b61164360808301856115d0565b61165060a08301846115eb565b979650505050505050565b611664816115c0565b811461166f57600080fd5b50565b6000813590506116818161165b565b92915050565b6000806000606084860312156116a05761169f611508565b5b60006116ae8682870161152e565b93505060206116bf86828701611672565b92505060406116d086828701611672565b9150509250925092565b60006020820190506116ef60008301846115b1565b92915050565b6000819050919050565b600061171a61171561171084611570565b6116f5565b611570565b9050919050565b600061172c826116ff565b9050919050565b600061173e82611721565b9050919050565b61174e81611733565b82525050565b60006020820190506117696000830184611745565b92915050565b6000806040838503121561178657611785611508565b5b60006117948582860161152e565b92505060206117a58582860161152e565b9150509250929050565b6117b881611590565b81146117c357600080fd5b50565b6000813590506117d5816117af565b92915050565b600080604083850312156117f2576117f1611508565b5b60006118008582860161152e565b9250506020611811858286016117c6565b9150509250929050565b600060208201905061183060008301846115a2565b92915050565b600082825260208201905092915050565b7f6e6f7420656e6465640000000000000000000000000000000000000000000000600082015250565b600061187d600983611836565b915061188882611847565b602082019050919050565b600060208201905081810360008301526118ac81611870565b9050919050565b7f706c6564676564203e3d20676f616c0000000000000000000000000000000000600082015250565b60006118e9600f83611836565b91506118f4826118b3565b602082019050919050565b60006020820190508181036000830152611918816118dc565b9050919050565b600060408201905061193460008301856115a2565b61194160208301846115b1565b9392505050565b611951816115df565b811461195c57600080fd5b50565b60008151905061196e81611948565b92915050565b60006020828403121561198a57611989611508565b5b60006119988482850161195f565b91505092915050565b60006040820190506119b660008301856115b1565b6119c360208301846115b1565b9392505050565b7f7374617274206174203c206e6f77000000000000000000000000000000000000600082015250565b6000611a00600e83611836565b9150611a0b826119ca565b602082019050919050565b60006020820190508181036000830152611a2f816119f3565b9050919050565b7f656e64206174203c207374617274206174000000000000000000000000000000600082015250565b6000611a6c601183611836565b9150611a7782611a36565b602082019050919050565b60006020820190508181036000830152611a9b81611a5f565b9050919050565b7f4e487b7100000000000000000000000000000000000000000000000000000000600052601160045260246000fd5b6000611adc8261150d565b9150611ae78361150d565b9250827fffffffffffffffffffffffffffffffffffffffffffffffffffffffffffffffff03821115611b1c57611b1b611aa2565b5b828201905092915050565b7f656e64206174203e206d6178206475726174696f6e0000000000000000000000600082015250565b6000611b5d601583611836565b9150611b6882611b27565b602082019050919050565b60006020820190508181036000830152611b8c81611b50565b9050919050565b6000608082019050611ba860008301876115b1565b611bb560208301866115b1565b611bc260408301856115d0565b611bcf60608301846115d0565b95945050505050565b7f6e6f742062656e65666963696172790000000000000000000000000000000000600082015250565b6000611c0e600f83611836565b9150611c1982611bd8565b602082019050919050565b60006020820190508181036000830152611c3d81611c01565b9050919050565b7f706c6564676564203c20676f616c000000000000000000000000000000000000600082015250565b6000611c7a600e83611836565b9150611c8582611c44565b602082019050919050565b60006020820190508181036000830152611ca981611c6d565b9050919050565b7f616c726561647920636c61696d65640000000000000000000000000000000000600082015250565b6000611ce6600f83611836565b9150611cf182611cb0565b602082019050919050565b60006020820190508181036000830152611d1581611cd9565b9050919050565b7f7374617274656400000000000000000000000000000000000000000000000000600082015250565b6000611d52600783611836565b9150611d5d82611d1c565b602082019050919050565b60006020820190508181036000830152611d8181611d45565b9050919050565b7f656e646564000000000000000000000000000000000000000000000000000000600082015250565b6000611dbe600583611836565b9150611dc982611d88565b602082019050919050565b60006020820190508181036000830152611ded81611db1565b9050919050565b6000611dff8261150d565b9150611e0a8361150d565b925082821015611e1d57611e1c611aa2565b5b828203905092915050565b7f6e6f742073746172746564000000000000000000000000000000000000000000600082015250565b6000611e5e600b83611836565b9150611e6982611e28565b602082019050919050565b60006020820190508181036000830152611e8d81611e51565b9050919050565b600081519050611ea381611517565b92915050565b600060208284031215611ebf57611ebe611508565b5b6000611ecd84828501611e94565b91505092915050565b6000606082019050611eeb60008301866115a2565b611ef860208301856115a2565b611f0560408301846115b1565b94935050505056fea26469706673582212206b5f65549568e1063f638031e236fdfcce7bd2bd4a57cbb926255b60f6cc4b4a64736f6c634300080a0033",
  "immutableReferences": {},
  "source": "pragma solidity >=0.7.0 <0.9.0;\r\n\r\nimport \"./token/ERC20/ERC20.sol\";\r\nimport \"./SSFToken.sol\";\r\nimport \"./access/Ownable.sol\";\r\n// interface IERC20 {\r\n//     function transfer(address, uint) external returns (bool);\r\n//     function transferFrom(\r\n//         address,\r\n//         address,\r\n//         uint\r\n//     ) external returns (bool);\r\n// }\r\n\r\ncontract CrowdFunding{\r\n  SSFToken public SSFTokenContract;\r\n//   IERC20 public erc20Contract;\r\n\r\n  struct Funder {\r\n    address _addr;\r\n    // string _name;\r\n    uint _amount;\r\n  }\r\n\r\n  event Launch(\r\n      uint id,\r\n      address indexed beneficiary,\r\n      uint goal,\r\n      uint32 startAt,\r\n      uint32 endAt\r\n  );\r\n  event Cancel(uint id);\r\n  event Pledge(uint indexed id, address indexed caller, uint amount);\r\n  event Unpledge(uint indexed id, address indexed caller, uint amount);\r\n  event Claim(uint id);\r\n  event Refund(uint id, address indexed caller, uint amount);\r\n\r\n\r\n  struct Campaign {\r\n    // Creator(beneficiary) of campaign\r\n    address beneficiary;\r\n    // Amount of tokens to raise\r\n    uint goal;\r\n    // uint numFunders;\r\n    // Total amount pledged(funded)\r\n    uint pledged;\r\n    // Timestamp of start of campaign\r\n    uint32 startAt;\r\n    // Timestamp of end of campaign\r\n    uint32 endAt;\r\n    // True if goal was reached and creator has claimed the tokens.\r\n    bool claimed;\r\n    // mapping (uint => Funder) funders;\r\n  }\r\n\r\n  // IERC20 public immutable token;\r\n\r\n\r\n  // Total count of campaigns created.\r\n  // It is also used to generate id for new campaigns.\r\n  uint public campaignsCount;\r\n  address public funderAddress;\r\n  uint public currentBalance;\r\n\r\n  // Mapping from id to Campaign\r\n  //  key uint, value Campaign   mapping(  ) \r\n  //  map campaigns  state  .\r\n  // { 1: Campaign, 2: Campaign ...}\r\n  mapping(uint => Campaign) public campaigns;\r\n\r\n  // Mapping from campaign id => pledger => amount pledged\r\n  mapping(uint => mapping(address => uint)) public pledgedAmount;\r\n\r\n  // constructor(address _token) { \r\n  //     token = IERC20(_token);\r\n  // }\r\n  constructor(address  _currencyAddress) { \r\n    SSFTokenContract = SSFToken(_currencyAddress);\r\n  }\r\n\r\n  function launch(\r\n      uint _goal,\r\n      uint32 _startAt,\r\n      uint32 _endAt\r\n  ) external {\r\n      require(_startAt >= block.timestamp, \"start at < now\");\r\n      require(_endAt >= _startAt, \"end at < start at\");\r\n      require(_endAt <= block.timestamp + 90 days, \"end at > max duration\");\r\n\r\n      campaignsCount += 1;\r\n      funderAddress = msg.sender;\r\n      campaigns[campaignsCount] = Campaign({\r\n          beneficiary: msg.sender,\r\n          goal: _goal,\r\n          // numFunders: 0,\r\n          pledged: 0,\r\n          startAt: _startAt,\r\n          endAt: _endAt,\r\n          claimed: false\r\n      });\r\n\r\n      emit Launch(campaignsCount, msg.sender, _goal, _startAt, _endAt);\r\n  }\r\n\r\n  \r\n  function cancel(uint _id) external {\r\n      Campaign memory campaign = campaigns[_id];\r\n      require(campaign.beneficiary == msg.sender, \"not beneficiary\");\r\n      require(block.timestamp < campaign.startAt, \"started\");\r\n\r\n      delete campaigns[_id];\r\n      emit Cancel(_id);\r\n  }\r\n\r\n\r\n  function pledge(uint _id, uint _amount) public {\r\n      Campaign storage campaign = campaigns[_id];\r\n      require(block.timestamp >= campaign.startAt, \"not started\");\r\n      require(block.timestamp <= campaign.endAt, \"ended\");\r\n      // require(SSFTokenContract.balanceOf(msg.sender) > 0, \"funder do not have enough ERC20 token\");\r\n      // campaign.funders[campaign.numFunders++] = Funder({addr: msg.sender, amount: msg.value});\r\n      campaign.pledged += _amount;\r\n      pledgedAmount[_id][msg.sender] += _amount;\r\n      funderAddress = msg.sender;\r\n      // funderAddress = address(this);\r\n      currentBalance = SSFTokenContract.balanceOf(msg.sender);\r\n      // SSFTokenContract.approve(msg.sender, _amount);\r\n      SSFTokenContract.approve(msg.sender, _amount);\r\n      SSFTokenContract.transferFrom(msg.sender, address(this), _amount);\r\n      // token.transferFrom(msg.sender, address(this), _amount);\r\n\r\n      emit Pledge(_id, msg.sender, _amount);\r\n  }\r\n\r\n\r\n  function unpledge(uint _id, uint _amount) external {\r\n      Campaign storage campaign = campaigns[_id];\r\n      require(block.timestamp <= campaign.endAt, \"ended\");\r\n\r\n      campaign.pledged -= _amount;\r\n      pledgedAmount[_id][msg.sender] -= _amount;\r\n      SSFTokenContract.approve(msg.sender, _amount);\r\n      SSFTokenContract.transfer(msg.sender, _amount);\r\n\r\n      emit Unpledge(_id, msg.sender, _amount);\r\n  }\r\n\r\n  function claim(uint _id) external {\r\n      Campaign storage campaign = campaigns[_id];\r\n      require(campaign.beneficiary == msg.sender, \"not beneficiary\");\r\n      require(block.timestamp > campaign.endAt, \"not ended\");\r\n      require(campaign.pledged >= campaign.goal, \"pledged < goal\");\r\n      require(!campaign.claimed, \"already claimed\");\r\n\r\n      campaign.claimed = true;\r\n      SSFTokenContract.transfer(campaign.beneficiary, campaign.pledged);\r\n\r\n      emit Claim(_id);\r\n  }\r\n\r\n  function refund(uint _id) external {\r\n      Campaign memory campaign = campaigns[_id];\r\n      require(block.timestamp > campaign.endAt, \"not ended\");\r\n      require(campaign.pledged < campaign.goal, \"pledged >= goal\");\r\n\r\n      uint bal = pledgedAmount[_id][msg.sender];\r\n      pledgedAmount[_id][msg.sender] = 0;\r\n      SSFTokenContract.transfer(msg.sender, bal);\r\n\r\n      emit Refund(_id, msg.sender, bal);\r\n  }\r\n\r\n\r\n  // function newCampaign(address _beneficiary, uint _goalAmount)  public returns (uint campaignID)  {\r\n  //   campaignID = numCampaigns++; \r\n  //   // campaigns[campaignID] = Campaign(beneficiary, goal, 0, 0);\r\n  // }\r\n  function contribute(uint campaignID) public {\r\n    // Campaign storage c = campaigns[campaignID];\r\n    // c.funders[c.numFunders++] = Funder({addr: msg.sender, amount: msg.value});\r\n    // c.amount += msg.value;\r\n  }\r\n  function _getCurrencyAmount() private view returns (uint256) {\r\n        return SSFTokenContract.balanceOf(msg.sender);\r\n    }\r\n\r\n  // function checkGoalReached(uint campaignID) public returns (bool reached) {\r\n  //   // Campaign c = campaigns[campaignID];\r\n  //   // if (c.amount < c.fundingGoal)\r\n  //   //   return false;\r\n  //   // c.beneficiary.send(c.amount);\r\n  //   // c.amount = 0;\r\n  //   // return true;\r\n  // }\r\n}\r\n\r\n",
  "sourcePath": "C:\\Users\\mimi0\\Desktop\\A608__pjt\\pjt_sub2\\S07P22A608\\Frontend\\smart-contracts\\contracts\\CrowdFunding.sol",
  "compiler": {
    "name": "solc",
    "version": "0.8.10+commit.fc410830.Emscripten.clang"
  },
  "schemaVersion": "3.4.10",
  "updatedAt": "2022-09-24T06:08:39.820Z",
  "networkType": "ethereum",
  "devdoc": {
    "kind": "dev",
    "methods": {},
    "version": 1
  },
  "userdoc": {
    "kind": "user",
    "methods": {},
    "version": 1
  }
}